:020000040800F2
:100000000080012071460008A5460008A5460008AA
:10001000A5460008A5460008A54600080000000007
:10002000000000000000000000000000354500084E
:10003000A546000800000000DB4500083B4600081C
:10004000A5460008A5460008A5460008A5460008E4
:10005000A5460008A5460008A5460008A5460008D4
:10006000A5460008A5460008A5460008A5460008C4
:10007000A5460008A5460008A5460008A5460008B4
:10008000A5460008A5460008A54600080000000097
:10009000000000000000000000000000A54600086D
:1000A000A5460008A5460008A5460008A546000884
:1000B000A5460008A5460008A5460008A546000874
:1000C000A5460008A5460008A5460008A546000864
:1000D000A5460008A5460008A54600080000000047
:1000E000A5460008A5460008A54600080000000037
:1000F000000000000000000000000000A54600080D
:1001000000000000A5460008A5460008A546000816
:1001100000000000000000000000000000000000DF
:10012000A5460008A5460008A5460008A546000803
:10013000A5460008000000000000000000000000CC
:10014000000000000000000000000000A5460008BC
:10015000A5460008A5460008A5460008A5460008D3
:10016000A5460008A54600080000000000000000A9
:10017000000000000000000000000000000000007F
:1001800000000000A546000800000000000000007C
:10019000A546000810B5054C237833B9044B13B1BC
:1001A0000448AFF300800123237010BD300200200B
:1001B00000000000785E00080C4B43B10C480D496C
:1001C00010B5AFF300800C48036823B910BD0A488E
:1001D000036833B97047094B002BF7D0BDE81040D6
:1001E0001847064B002BF5D0184700BF0000000051
:1001F000785E0008340200202C020020000000007D
:1002000043680B7043681B0A4B70C3888B70C379BB
:10021000CB7083680B7183681B0A4B7143898B71A8
:10022000C37ACB71082070470B7843604A7843EA61
:10023000022343608A7843EA02434360CA7843EA70
:10024000026343600B7983604A7943EA0223836047
:100250008A7943EA02438360CA7943EA026383608E
:100260000820704700487047D05A0008004870477F
:10027000AF5A000800487047D3590008004870473B
:10028000B2590008004870479F590008004870475D
:100290007E59000800487047EC5900080048704734
:1002A0005D59000843680B701A0A4A701A0C1B0E3D
:1002B0008A70CB7083680B711A0A4A711A0C1B0E74
:1002C0008A71CB71C3680B721A0A4A721A0C1B0E20
:1002D0008A72CB7203690B731A0A4A731A0C1B0ECB
:1002E0008A73CB73102070470B6843604B68836040
:1002F0008B68C360CB68036110207047004870476B
:10030000975A000800487047765A000843680B70F7
:100310001A0A4A701A0C1B0E8A70CB7083680B7114
:100320001A0A4A711A0C1B0E8A71CB71C3680B72C0
:100330001A0A4A721A0C1B0E8A72CB7203690B736B
:100340001A0A4A731A0C1B0E8A73CB7343690B7417
:100350001A0A4A741A0C1B0E8A74CB7483690B75C3
:100360001A0A4A751A0C1B0E8A75CB75C3690B766F
:100370001A0A4A761A0C1B0E8A76CB761C20704716
:100380000B6843604B6883608B68C360CB68036114
:100390000B6943614B6983618B69C3611C207047A2
:1003A00000487047625A000800487047415A0008E8
:1003B000044B42685A6082689A60C268DA600269D7
:1003C0001A6170479402002070B5054600F10C04D4
:1003D0002046FFF789FF2B6A2046BDE8704018478A
:1003E000406A704700487047975A000800487047B5
:1003F000765A000890F8E8057047C3681A6810B488
:1004000014680A468168184623465DF8044B18476D
:100410000138002321FA03F20833202B00F8012FC2
:10042000F8D1704743682DE9F0410B7043681B0A0F
:100430004B70C3888B70C379CB700D460A1D044680
:10044000002160688142A2EB050302F104020FD291
:10045000E36853F8213002F8043C180A02F8030C50
:10046000180C1B0E02F8020C02F8013C0131E8E7FF
:100470002269EA542169EA18090A5170618A917067
:10048000E17CD17004332B44002122699142A3EB1B
:10049000050603F104030FD2A26952F8212003F8E4
:1004A000042C100A03F8030C100C120E03F8020CB3
:1004B00003F8012C0131E8E7E369AB55E269AB19B8
:1004C000120A5A70E28B9A70E27FDA7004360027C3
:1004D000E3699F4214D2636A53F8270004F0F9FFDE
:1004E00080460146A819FFF793FF636A043653F864
:1004F0002710A819424604F0FBFC46440137E7E701
:100500003046BDE8F081F8B50E46037906F8013BA8
:10051000054680680F4604F0DCFF0446014630467D
:10052000FFF776FF2246A968781D04F0E1FC601D04
:10053000F8BD83882DE9F0410B7083881B0A4B704E
:10054000054680680C4604F0C4FF07460146A01C1F
:10055000FFF75EFF3A46A968A01D04F0C9FCE868F1
:1005600004F0B7FF07F10608064601460A3704EB18
:100570000800FFF74DFF3246E968E01904F0B8FCC7
:10058000286904F0A6FF3E4401460746A019043638
:10059000FFF73EFF3A46A01929693E4404F0A8FC43
:1005A0006B69A35534441A0A62701A0C1B0EA270B0
:1005B000E370301DBDE8F08110B500230360013900
:1005C00011F8012F02FA03F4026808332243202BAA
:1005D0000260F5D110BD37B50C4611F8013B03712F
:1005E000054601A8FFF7E8FF019B621D581D111B7E
:1005F000884204D912F8011B02F8021CF7E72344D1
:10060000002204341A71AC6003B030BDF0B50B7831
:1006100083804A7885B043EA022383800C460646ED
:10062000023101A8FFF7C8FF019FA31DBD1D1A1BC2
:10063000954204D913F8012B03F8022CF7E7E319CC
:1006400000225A71631DB360611902A8FFF7B4FF5D
:100650002B1D029D07F10A021D442244111B8D42ED
:1006600004D912F8011B02F8021CF7E76119013BDB
:100670002344002201F8012C03A8F360FFF79CFF3C
:1006800003980435284463191A1B904204D913F8BF
:10069000012B03F8022CF7E72218013D0023254423
:1006A00002F8013C356193785178D2781B0443EA13
:1006B0000123215C0B4343EA02630430736105B0FC
:1006C000F0BD2DE9F34143680D689D4204460E4696
:1006D00004D9A900C06804F0A1FEE0606560321D85
:1006E000002160688142A2EB060302F1040213D2EA
:1006F00012F8023C12F8030C1B0443EA002312F820
:10070000040C034312F8010C43EA0063E068A360A1
:1007100040F821300131E4E7F218F15C9578507827
:10072000D2782D0445EA00250D431F1D236945EAB3
:1007300002659D4204D9A900A06904F06FFEA06182
:100740002561F319002122699142A3EB060503F10B
:10075000040313D213F8022C13F8030C120442EA18
:10076000002213F8040C024313F8010C42EA006261
:10077000A069626140F821200131E4E77319725DDC
:100780009F785978DB783F0447EA0127174347EA07
:100790000367E3699F4205F1040504D9B900606A63
:1007A00004F03CFE6062E7610027B846E3699F42BF
:1007B0001AD2711901A8FFF7FFFE2B1D019DF21837
:1007C0001D44911BA94204D212F8011B02F8021C1D
:1007D000F7E77219013B02F8018C626A3344236225
:1007E00042F827300137E1E7284602B0BDE8F08142
:1007F00030B585B00446094B01930023029303935F
:1008000054F8EC3B01AA1B680A210546984720468C
:1008100003F0B6FBC5F8FC0005B030BD84580008F5
:100820002DE9F04186B02B4B009300222A4BADF806
:1008300004200546029303930493059200F20C549E
:1008400000F5AE664FF400772368BBB158689A682C
:10085000ADF804201A68036802929B6898472368E1
:10086000039058680368DB68984721682B680490F8
:1008700005971B6809696A46284698470434B442BC
:10088000E2D105F2D4564FF400772068C8B143682E
:10089000ADF804308368029303689B68984703901F
:1008A00020680368DB6898472B6804902068D3F8B9
:1008B0000080036805975B6898476A4601462846AA
:1008C000C0470434A642E0D1012385F8E83506B0DC
:1008D000BDE8F0819C5800084F5B0008F0B585B07A
:1008E00000F1EC051F4B01930446002328460293B8
:1008F00003930E4603F044FBD4F8FC203146871ADC
:1009000001A8FFF791FC029B4FF47A76B7FBF6F251
:100910001344029306FB1272039B134F284607FBF6
:100920000232039203F02CFB029AB0FBF6F3013A79
:10093000D21A0399C4F800210C4A06FB13030A4497
:1009400007FB1323C4F8043104F5827104F58070A9
:1009500000F026FB284603F013FBC4F8F00505B0B1
:10096000F0BD00BF8458000840420F0000CA9A3B07
:1009700073B54C4C4C4B2046002540F8043B0423F7
:100980000322022104F1EC068DE828004FF4807365
:1009900000F0FCFB304603F009FB4FF46143C4F860
:1009A000E83030464FF4007603F0BEFA324629466E
:1009B00004F58670C4F8FC50C4F80051C4F8045122
:1009C000C4F8085104F0B9FA32462946642604F501
:1009D000437004F0B2FA3246294604F20C5004F097
:1009E000ACFA3246294604F5AE6004F0A6FA2F4B65
:1009F000C4F8FC3504F5C2630026C4F80056C4F8F8
:100A00000456C4F80856C4F80C561E60C4F81456B0
:100A1000C4F81856C4F81C56C4F82056244A254970
:100A2000C4F8D4552046C4F8D855C4F8DC55C4F8E9
:100A3000E055C4F8E45584F8E855C4F8EC55C4F81A
:100A4000F055C4F8F45584F8F85503F01BFD1A4B23
:100A50001A4A1B491A601B4A1B480860D0601B4891
:100A60001062012050621A4C1A481460166190609E
:100A700056619661D6611848184A4E6082E80300B4
:100A800015618E60164ACE600E6116495E609E60EA
:100A9000DE601E615E619E61DE6182E80A001561B2
:100AA00002B070BDA802002014590008CC580008FC
:100AB00094010020890F000860020020FC58000803
:100AC00094020020CC080020E4580008B10300087C
:100AD0002859000838590008555900084C020020D0
:100AE0008002002051590008F0B5632985B0044602
:100AF0000E4603DD90F8E855002D4DD0136804F242
:100B000013311B6810469847FF2384F80C33FE23EB
:100B1000C0F3072284F80D33C3B284F80E331344B4
:100B2000DB4384F8116346F3072684F80F2384F827
:100B3000103384F8126304F2113105220023861D5C
:100B4000B24204DC11F8015B01322B44F8E700F1FA
:100B500008052044DB43B5F5007F80F813330CDC37
:100B600004F543773E460434F31B9D4214DD16F82A
:100B7000011B204600F07AFBF6E7094B01930323A3
:100B80008DF80830074B0393236801AA1B680721DF
:100B9000204698474FF0FF35284605B0F0BD00BF0E
:100BA000B4580008085A00082DE9F74F00F1EC0985
:100BB0000446484603F0E4F9D4F8F03542F6F8224A
:100BC000C31A934284BF002384F8E835D4F8D4359F
:100BD000054633B1D4F8F43583423CBF0023C4F852
:100BE000D4350027BA4604F1040B3E4604F5867856
:100BF000D4F80831E3B9584600F0E0F918BB94F88E
:100C0000E8355BB1D4F8EC3540F6C412EB1A9342E8
:100C100004D92046FFF7ECFDC4F8EC55002F40F056
:100C2000D780BAF1000F14BF6FF002000020A7E0D8
:100C3000484603F0A5F9D4F80831401B9842DAD9A8
:100C40006FF001009CE0584600F0C2F90028D6DBA6
:100C5000D4F8E435D4F8D4250344072AC4F8E4359D
:100C600010D1D4F8E0355A1C2344C4F8E02583F8A9
:100C70000C01D4F8D835013BC4F8D835002BB7D1D6
:100C800008231CE0B2B9FF2807D10123C4F8D435EA
:100C900005F11403C4F8F435AAE74846019203F0BD
:100CA0006FF941F28833401B9842019AA0D984F829
:100CB000E825C5E7012A0FD1FE2803D10223C4F895
:100CC000D43595E794F8E835C4F8D465002B8FD176
:100CD0002046FFF78DFD8BE7022A09D1C4F8D8051D
:100CE000C4F8E0650323C4F8D435C4F8E4057FE70D
:100CF000032A07D1D4F8D83503EB0020C4F8D8056F
:100D00000423DCE7042A0BD15A42D2B2DBB258BF2B
:100D10005342FF2B01D10523D1E7C4F8D46567E71F
:100D2000052A03D1C4F8DC050623DCE7062A0BD12B
:100D3000D4F8DC3503EB00200723C4F8D435C4F81D
:100D4000DC05D4F8D83599E7082A7FF451AF5A4228
:100D5000D2B2DBB258BF5342FF2BC4F8D4657FF444
:100D600047AFD4F8DC3573B92046FFF741FD204684
:100D7000FFF756FDC4F8EC55C4F8F0554FF0FF30BE
:100D800003B0BDE8F08F0A2B05D141462046FFF79E
:100D9000A5FD01272CE7062B08D1414604F2FC50A3
:100DA000FFF78FFC012384F8F83521E70B2B04D1E2
:100DB00084F8E8654FF0010A1AE7F83354F8230085
:100DC00000283FF415AF036841461B6898470FE7BA
:100DD0006FF00300D4E700005D4C80B5D4F8E81054
:100DE000201D03F049F9002304F5A162C4F8D435AD
:100DF000C4F8D835C4F8E035C4F8DC35114651F8EC
:100E0000040F002840F08E80524904EB83007D33AC
:100E1000C0F80C158B60CC60002352F8041F002929
:100E200040F085804C4A04EB83017D33C1F80C25EA
:100E30009360D460494A002352F8041F00297BD1F3
:100E400003F5AE71464A44F8212064335360454CA3
:100E5000454B6360454BA360454BE360454B2361C5
:100E6000454B636138A7D7E90067444BA361DFF8BE
:100E70001481434B374DE36141462846FFF7BDFAE5
:100E800038493548FFF7B9FA3148FFF78DFE4FF47E
:100E9000FA7003F0F5F9606803F06AFD32463B46EC
:100EA00003F008FC03F0B8FD6060A06803F060FD8B
:100EB00032463B4603F0FEFB03F0AEFDA060E06867
:100EC00003F056FD32463B4603F0F4FB03F0A4FD6D
:100ED000E060206903F04CFD32463B4603F0EAFB3C
:100EE00003F09AFD2061606903F042FD32463B4603
:100EF00003F0E0FB03F090FD6061A06903F038FDB2
:100F000032463B4603F0D6FB03F086FDA061E06964
:100F100003F02EFD32463B4603F0CCFB03F07CFD94
:100F2000E061A9E70133192B7FF469AF74E701335E
:100F3000192B7FF472AF7DE70133192B7FF47CAF5F
:100F400085E700BFAFF300809A9999999999B93FC5
:100F5000A80200204C02002080020020140800207B
:100F6000CC080020600200200000C8420000DC42E3
:100F70000000F0420000024300000C430000164352
:100F8000000020439402002010B5044B044640F8B2
:100F9000043B00F0AFF8204610BD00BF1459000814
:100FA00030B502680D68044CB5FBF4F31A4404FB39
:100FB000135302600B6030BD00CA9A3BD0F8C020CA
:100FC000D0F8C400101A18BF0120704701207047E4
:100FD00010B5D0F8C420D0F8BC100346501CC3F89C
:100FE000C400885CD3F8C820D3F8C440013AB4FBED
:100FF000F2F102FB1142C3F8C42010BD034610B148
:1010000007C983E807007047704742688168036832
:1010100012F0010F4FEA62021CBF8858C3588818AB
:101020001847C36810B504460BB19B689847204623
:1010300010BD30B5044685B000F14C05284602F0DD
:1010400065F930B3D4F8D020D4F8D4309A4216D011
:10105000D4F8D430D4F8CC20591CC4F8D410D15CC6
:10106000D4F8D830D4F8D400013BB0FBF3F203FB42
:101070001203C4F8D430284602F052F9DEE7002308
:10108000204601226946039303F072F86846FFF791
:10109000C8FF05B030BDC36810B504460BB19B68EE
:1010A0009847204610BD000070B506460B4B46F829
:1010B000983B044646B100F1B805B54204D0103D56
:1010C0002846FFF7AEFFF8E704F13800FFF7E3FF2B
:1010D00004F12800FFF7DFFF204670BDB05D000877
:1010E00010B50446FFF7E0FF204603F0E9F920467B
:1010F00010BD000030B5134B036085B000252A46B3
:1011000069460446039503F033F86846FFF789FF04
:10111000012269462046039503F02AF86846FFF746
:1011200080FF04F1CC0000F023F904F1BC0000F0D2
:101130001FF9054B23602046FFF7B6FF204605B098
:1011400030BD00BF585B0008985D000810B504462C
:10115000FFF7D0FF204603F0B3F9204610BD000092
:1011600010B586B08DE80C00019B029203930491A8
:10117000054B9DF82020059302A902F0F9FF02A873
:10118000FFF74FFF06B010BDE05A00087FB50446D8
:101190001D464FF41653089E02F030FF20460F4BB9
:1011A00040F8BC3B294600F0F2F806FB05F104F1DB
:1011B000CC0000F0ECF80A4B029300230393009359
:1011C00004AB204613E90C002146FFF7C9FF204677
:1011D000C4F8DC50C4F8E06004B070BD585B00088F
:1011E0004B12000870B5044686B04C3002F08EF801
:1011F000C0B102AD0122294600262046059602F024
:10120000B7FF2846FFF70DFF2046FFF712FF064BFA
:10121000029301230396009395E80C002146204693
:10122000FFF79EFF06B070BD3310000843680268E8
:1012300010B55C1C4460D154C3684168013BB1FBEC
:10124000F3F203FB1213436010BD38B500F14C05F7
:101250000446284602F03EF838B1284602F044F829
:10126000C1B204F1BC00FFF7E1FF38BD38B5054657
:101270000C46CC30C9B2FFF7D9FF2846FFF7B2FFC2
:10128000204638BD2DE9F04107460C46B1B10D4668
:1012900000F1CC082E4616F8011B21B14046FFF79D
:1012A000C5FF3546F6E70A214046FFF7BFFF2C1B76
:1012B0003846FFF797FF601CBDE8F0810846BDE89F
:1012C000F0812DE9F04107460D4691B1A2B18C188D
:1012D0000E4600F1CC08B44205D016F8011B40467A
:1012E000FFF7A4FFF7E73846FFF77CFF601BBDE878
:1012F000F0810846BDE8F0811046BDE8F0810000AD
:101300000EB42DE9F04185B0D0F8DC2002AFD31D3A
:1013100023F0070307F12404ADEB030D54F8048B0D
:1013200002AE05460021304603F007FE2246414644
:1013300030467C6004F0EEF8D5F8DC30834202469B
:101340000CD200905D220848084900F015F90020F1
:101350000C37BD46BDE8F04103B070473146284622
:10136000FFF7AFFFF4E700BF165B0008EC5A000878
:1013700010B50446006808B103F09EF8204610BD81
:1013800000214160C2688160006803F0D6BD38B5B5
:10139000044608460D4603F083F8E56020602046C9
:1013A000FFF7EEFF204638BD0748084A08B5121A75
:1013B000002103F0C2FD03F023F803F011FD03F058
:1013C00026F803F061F800BF300200201828002042
:1013D00038B504460D4603685AB18268136020464A
:1013E000012101F0A1FC29462046BDE8384001F06A
:1013F00097BCC2681B04F1E770B50E46044615465B
:1014000001F06EFC013606D02A4620460021BDE8D8
:101410007040FFF7DDBF70BD0022FFF7EDBF000099
:1014200000487047845B0008014800F003B800BF23
:10143000845B0008036870B5DB68044698476368FE
:101440005A6823681AB99B68BDE8704018475B6802
:10145000156898476368281A00285A6807DC91685D
:1014600059601B68002BEAD050689847E7E723686B
:1014700010681B69BDE87040184703685B6818472F
:1014800010B5044601300DD110BD9C4209D1204653
:10149000896801F0E1FC20460021BDE8104001F020
:1014A0005FBD0C31B1F900305A1CEED10248BDE8E5
:1014B000104000F061B800BFD15B0008884208B559
:1014C00008D0431C06D0013106D0044800F054F87F
:1014D0004FF0FF31084608BD0146FBE7A05B00085E
:1014E000B1F900305A1C01D118467047834201D12E
:1014F000486870470C31F3E7421C10B5044607D02A
:10150000FFF7EEFF431C044602D1024800F034F816
:10151000204610BDB15B0008EFF31080C04300F01F
:101520000100704708B5FFF7F7FF72B6064B1A685F
:1015300022B980F00100054AC0B210701A681A681A
:1015400001321A6008BD00BF00090020FC0800201D
:1015500008B5074B1A6852B1FFF7DEFF1A68013A67
:101560001A601B681BB9034B1B7803B962B608BD30
:1015700000090020FC0800200FB4012008B502F08B
:1015800083FF00B589B0FFF7CDFF052101A8FFF764
:1015900043FF039B019A1A60962002F071FE019BA3
:1015A000049A1B041360962002F06AFEF1E701F032
:1015B000E4BB000008B5024C23689847FCE700BF75
:1015C0009801002008B50B4800F042FE0A4B186055
:1015D0000A4800F03DFE0A4B18600A4800F038FE49
:1015E000094B186003F0FCFB00210846BDE80840E9
:1015F00002F00DBF305C0008FC1F00202C5C0008CE
:101600000C090020285C000804090020FFF7D2BF65
:1016100010B5044600F08AFD21460246BDE81040A0
:101620000148FFF7A9BF00BFF05B000802F04ABF06
:101630000B4A0C4B0C4830B41A60C2F1005303F54E
:10164000C033B3F5806F194628BF4FF48061074D52
:10165000074C01605B1A1A442A60236030BC704753
:1016600018280020141D0020100900201409002053
:10167000101D002000F0C0FEFFF7DAFF0348002134
:1016800000F06EFE00F0D4FCFEE700009C0100209C
:10169000024B4FF0FF31186800F0F8BD0C09002034
:1016A000014B186800F01ABE0C09002030B5027812
:1016B0008C784368013AD2B213B19D78A54207D223
:1016C000022A4B60416006D803B19960886030BD42
:1016D00018465B68F0E700238B6030BD02784368F2
:1016E000013A59684160022A4FF0000205D809B159
:1016F00088605A609A60184670475A60FBE700009D
:10170000034B5A684260002282605860704700BFF5
:10171000F0260020104BDA6810B58AB19A8ADC688E
:101720008A420CD3C460D860C468036104B12061EC
:10173000521A92B28282998A8A1A9A8210BD3CB950
:1017400000248A1AC460D86003619A82848210BD22
:10175000A38A1A442346E2E7082700202DE9F04136
:10176000174DEB6853B1AB8A164FDFF85C80013B35
:10177000AB820026AA8A0AB9EC680CB9BDE8F081F0
:10178000A36833B161685960616809B18B606260B8
:10179000A66021463846FFF789FFA38AAB826378AB
:1017A000042B01BFD8F80030E28A9B18A3820123E2
:1017B0006370E368EB600BB11D61E6602661D9E7F9
:1017C00008270020F02600208427002083682BB102
:1017D00042685A6042685AB193607047054B5A6834
:1017E000904202D142685A6070471346002AF6D1EF
:1017F000704700BFF026002010B5846801462CB960
:101800004378012B0DD1074C03E0A4682378002B0B
:10181000FBD00846FFF7DAFF2046BDE81040FFF78F
:1018200045BF10BDF0260020036910B563B1C26842
:10183000DA60C2684AB1998A848A21449982136124
:101840000023C3600023036110BD9A82FAE7000001
:1018500070B4114BDD78EFF31086EFF3108272B69F
:101860009A78954211D901329A701A78541CA5427F
:1018700008BF00241C7006B962B6954207D903EB75
:10188000C20370BC586099607047002EF4D00220EB
:1018900070BCFFF7BDBE00BF741F002003230370A0
:1018A0000023438043608360C36070472DE9F843A1
:1018B00043880546002B63D0324F81683A689142D5
:1018C0005ED1013B9BB243801BB100242046BDE8A2
:1018D000F8830B6A984229D1C3680B6291F82430CF
:1018E0000C6A5CBB8B706A68DFF89C80002A3BD076
:1018F0002846FFF7F3FE2146064600F0C1F83046C1
:10190000FFF792FF336AEB604FF001093968D8F8AE
:101910000430A5F80290AE6035628A789B789A42CE
:1019200014D3304600F05CFED0E71346002BD5D030
:10193000DA689542F9D1EA68DA60CFE762681AB1ED
:101940009278934238BF1346E468CAE74046FFF7EF
:10195000ADFE31464046FFF7A9FE3B6883F8019093
:1019600086F801902046DDE7D8F8042092789A4264
:10197000ABD94046FFF79AFE3B6801225A70F1E767
:10198000FF24A3E73C270020F0260020438870B501
:1019900004460E46134D43B92A688260116AC1603D
:1019A000106201336380002070BD80682A68904215
:1019B000F7D081B1937882789A4202D28370FFF790
:1019C0001BFF62684AB129682046FFF76FFE0921B4
:1019D000304600F029FE012070BD2B6863605A601C
:1019E0009C60F4E73C270020836A9B0804BF224BDD
:1019F0001B88F0B5056B08BF9B0805EB83025407F5
:101A000048BF043A4FF0807602E94200A2F1400458
:101A1000A2F14406A2F10C074FF0000E46F804EFC5
:101A2000BE42FBD1C66942F8206C41631249C462D0
:101A30000968C90017D5112B15D9103B6FF00701A4
:101A40005B084B43A3F138010A444FF0CC302146E8
:101A500091420BD108331C44231F9D423CBF4FF0E1
:101A6000CC3344F8043C054B2B60F0BD41F8040C2A
:101A700041F8080DECE700BF385C0008A52E5AE2DB
:101A800090F82520C36A12B1603319607047203383
:101A9000FBE710B590F82540C36A1CB1603383E8BA
:101AA000060010BD2033FAE7054B1B7823B9054B20
:101AB0004FF080521A607047034B01221A70704732
:101AC0006819002004ED00E06919002038B51A4BB0
:101AD0001A4C186801234370FFF712FE6578A3784B
:101AE0003BB917486570FFF7F9FDBDE8384000F0D5
:101AF0005DBD04EBC503586802789AB9198900F0F6
:101B0000BBF9E37801359D4208BF0025EFF3108350
:101B1000EFF3108272B6A278013AA270002BDED1E8
:101B200062B6DCE7012A03D1996800F033F9E8E7EF
:101B300000F09EFFE5E700BF3C270020741F002057
:101B4000F0260020084B1A68084B1A6000225A60E1
:101B5000072243F8042C064A136843F07F431360BE
:101B60004FF0FF30704700BF505C000814E000E009
:101B700020ED00E07047000008B50B4B186801230A
:101B80004370FFF7BDFD00F0ADF9084A136801335B
:101B90001360FFF7E3FD00F091FC0548FFF79EFDA1
:101BA000BDE8084000F002BD3C270020842700204B
:101BB000F0260020064B1A68136BD26A934203D8B2
:101BC0001A68044B9A4202D00120FFF721BD7047EA
:101BD0003C270020A52E5AE2002ABBBF22F000427B
:101BE0000732033222F00702A8BF22F0030210B529
:101BF000B4BF10230C2392B1D4188C420FD80144E7
:101C00000344544241600360826021449818814239
:101C100002D300510346F9E70020186010BD0120EF
:101C200010BDEFF3108372B6026803F001030AB12E
:101C30001168016003B962B61046704781420DD346
:101C4000436899420AD2EFF3108372B602680A60C1
:101C5000016013F0010003D162B6704701207047A4
:101C60000020704701231039037089080023437056
:101C700083704360038143818381C1817047000089
:101C800070B5858904461646002D38D043891A1D43
:101C9000013350F822200A60C2899BB29A424381E4
:101CA00004BF002343814368F3B14378022B1BD167
:101CB000FFF714FD00210546FFF7E2FE2389E969DD
:101CC0001A1D013344F82210E2899BB29A42238103
:101CD00008BF0023284608BF2381FFF7A5FD28463B
:101CE00000F07EFC002070BDEFF31080EFF3108356
:101CF00072B6013DA5810028F4D162B670BD4AB12B
:101D00004268094B42B11968FFF7D0FC0821304600
:101D100000F08AFC012070BD1B6843605A60986027
:101D200001234370F2E700BF3C270020C28980896D
:101D3000101A704708B5FFF78BFDBDE80840FFF7A4
:101D4000B3BE838910B504460BB34389043350F8FE
:101D500023300B604378022B04D10021FFF778FD7C
:101D6000FFF7A2FEEFF31083EFF3108272B6A289A1
:101D7000013AA28103B962B66389E28901339BB259
:101D80009A42638101D100236381042010BD18466B
:101D900010BD0000436870B504460E46002B4BD0C2
:101DA0004578022D20D0032D0AD0012D61D1FFF7F7
:101DB00095FC044632461021FFF76BFE65700EE07D
:101DC0000846FFF72EFF0546002852D02046FFF7B1
:101DD00085FC29460446FFF753FE01236370204625
:101DE000FFF722FD214622E0FFF778FC002105469F
:101DF000FFF746FE2389E9691A1D44F82210EFF324
:101E00001082EFF3108172B6A1890131A18102B96C
:101E100062B6E28901339BB29A42238104BF002358
:101E2000238101236B702846FFF7FEFC29461148E9
:101E3000BDE87040FFF73ABC8089E189884213D23F
:101E400023891A1D44F82260EFF31082EFF3108506
:101E500072B60130A08102B962B601339BB29942D9
:101E600008BF0023238170BD0320BDE87040FFF749
:101E7000CFBB70BDF026002010B5038B427819430C
:101E8000062A04460183438B15D133EA010219D196
:101E900021EA030121832046FFF7C6FC01232046E7
:101EA0006370628B0821FFF7F4FD21460648BDE808
:101EB0001040FFF7FBBB052A04D111EA030201D051
:101EC0004283E5E710BD00BFF0260020034B00224F
:101ED0001A60034A1268DA80704700BF2827002082
:101EE000345C000808B50E4B5A680E4B19689142D5
:101EF0000D4905D01A60DA880868013A02449A80D0
:101F000098880A8890420AD1002205481A60FFF793
:101F1000E5FBBDE8084001460148FFF7C7BB08BD27
:101F2000F026002028270020842700200B4A136871
:101F300030B5002443B90360816013B19D68691A0C
:101F4000996044B1206030BD9D68A942F3D31C461E
:101F5000491B1B68EEE7106030BD00BF382700202A
:101F6000C0B1431C11D00C4B984211D80B4B1B68CD
:101F70004FF47A715A1E01FB0020B0FBF3F34FF6C9
:101F8000FE70834206D898B270474FF6FF707047D4
:101F90004FF6FE70704700BF00093D00EC5B000883
:101FA00038B1830704D10378002B18BF0020704795
:101FB00000207047B0B50E4D287800AFA8B90D4C81
:101FC000236893F8241000F051FB2368DA78FF2A85
:101FD00003D1DA6A203282F3098862680AB984E898
:101FE0000C0000F0FBFC01232B700020B0BD00BFF3
:101FF000352700203C270020014B1878704700BF90
:102000003527002010B5EFF3108434B9EFF30584C1
:102010001CB9EFF31484E40702D4034B187810BD05
:10202000DFF808C000DF10BD35270020F91F0008C9
:1020300090B589B000AFEFF31083002B37D1EFF3E9
:102040000583002B33D1FFF7DDFF28B9194C246835
:1020500014B1646804B1A047EFF3148404F00304DE
:10206000022C18D0032C1CD0012C1ED007F1200408
:1020700084F30988104C2478E40710D5022484F3F3
:102080001488BFF34F8FBFF36F8FDFF830C000DFCE
:102090002437BD4690BD084C2478E407F5D40324CA
:1020A000EDE7054C2478E407EFD5FF20F0E7822028
:1020B000EEE700BF242700201A5C0008B51F0008C7
:1020C00070B50B461646024610B90024204670BD76
:1020D00000680028F9D0B2F90440E51CADB2062D25
:1020E000F3D8D168C1B11269043444EA012100F087
:1020F000FBFA0028E9D00A4B0A4A013853F820407D
:10210000E36A5A63084B1B6843B19B6833B131469D
:10211000E0789847E063D9E70A46E5E7E663D5E764
:10212000381F0020AD2200082427002008B500F049
:1021300095FA18B10138024B53F8200008BD00BFD2
:10214000381F002010B5FFF72BFF044670B1084B75
:102150001B681BB1DB680BB1C06B9847E07800F0DF
:1021600019FBFF280CBF8120002010BD802010BD6E
:102170002427002008B528B1FFF7F2FE00F074FC18
:10218000402008BD08BD000010B5EFF3108434B93D
:10219000EFF305841CB9DFF80CC000DF10BD82200E
:1021A00010BD000075210008830705D138B14369CF
:1021B00001691B681846704700231946FAE7034671
:1021C000FBE7000010B504460846DFF80CC000DF4E
:1021D00084E80300204610BDA921000810B548B1CD
:1021E000046824B1237823B92046FFF757FB204623
:1021F00010BD002010BD70B510F0030405460E465A
:1022000011D180B10378032B0DD10846FFF7A8FE4A
:1022100001462846FFF7BAFB012806D1002E14BF5D
:10222000C120812070BD802070BD204670BD820716
:1022300008B50AD148B10378032B06D1FFF736FB66
:10224000FF280CBF8120002008BD802008BD0000B1
:1022500070B50546EFF3108494B9EFF305867EB9A7
:10226000EFF31484E40706D4064C24781CB9BDE8C7
:102270007040FFF7B3BF2846DFF80CC000DF70BD29
:10228000002070BD35270020DD21000810B5EFF3D8
:10229000108434B9EFF305841CB9DFF80CC000DFFB
:1022A00010BD822010BD0000F7210008084808B5C5
:1022B0004FF0FF310068FFF7E9FFDFF818C000DFDB
:1022C0000446FFF7B3F92046DFF80CC000DFFEE755
:1022D000302700202D2100084521000810B5EFF31C
:1022E000108434B9EFF305841CB9DFF80CC000DFAB
:1022F00010BD822010BD00002F2200082DE9F04102
:1023000080460F461646EFF3108404BBEFF30583B7
:10231000D3B9EFF31483DB0706D40E4B1B781BB93C
:10232000BDE8F041FFF7CCBE0B4D4FF0FF31286800
:10233000FFF7ACFF404639463246DFF820C000DFE9
:1023400004462868FFF7CAFF2046BDE8F081002454
:10235000FAE700BF3527002030270020C120000801
:102360000022FFF7CBBF10B5044660B1016851B140
:10237000406848B1037833B90431890089B2FFF766
:1023800071FC606810BD002010BD000038B5114C14
:1023900023780BB900F0A8FA0F4B25781B68FF22B1
:1023A0009A708DB929460D48FFF7DDFF0C4B2A4680
:1023B000186029460B48FFF783FE0B4B18600B484B
:1023C000FFF746FF0A4B186001232370094B0020DA
:1023D000187038BD342700203C270020205C0008FE
:1023E000F81F00203C5C0008EC260020545C00082C
:1023F000302700203527002010B5EFF3108474B982
:10240000EFF305845CB9EFF31484E40703D4BDE86B
:102410001040FFF7BBBFDFF80CC000DF10BD82200B
:1024200010BD00008D2300082DE9FF410C468046B9
:1024300018B30378012B25D10846FFF791FD02A9B7
:1024400002464046FFF71CFC012811D10020002C59
:102450000246034618BF4020029904460D46164620
:102460001F462046294632463B4604B0BDE8F0816F
:102470000020024603461020EEE78024054606466B
:102480000746EEE7002580242E462F46E9E770B583
:102490000E461446054660B15AB90378012B08D19F
:1024A000FFF744FC38B128463146FFF743FC20468D
:1024B00070BD802070BD812070BD0000F8B5114E48
:1024C00034682CB1A368104F013BA360A26802B12D
:1024D000F8BD2568386835602146FFF7D8FF10B190
:1024E0000420FFF795F86379012B07D1E1682046B6
:1024F000FFF71CFD002DEBD02C46E7E701232371ED
:10250000F8E700BF38270020F81F00207FB50446F9
:102510001646084601B122B180232360204604B04C
:1025200070BD0B78012BF7D102A9FFF70AFC042834
:1025300008BF102301AD14BF0196019395E8070071
:1025400084E80700EAE7000038B504461546EFF3D3
:10255000108010B9EFF3058028B12A462046FFF716
:10256000D5FF204638BD08461146DFF80CC000DF15
:1025700084E80700F5E70000292400087FB50A4C2D
:1025800021684FF0FF3203A8FFF7DEFF039B102BFB
:10259000F6D1049901A8FFF715FE019B002BEFD09F
:1025A00002989847ECE700BFF81F0020054B5860E1
:1025B00002234370044B1B681BB11B690BB1C06B3A
:1025C000184770473C2700202427002008B50348FF
:1025D000FFF784F8BDE80840FFF7E8BFF0260020C9
:1025E00070B5044618B9BDE87040FFF7EFBF0C4E58
:1025F000A278306883789A424FF0010508D9FFF736
:102600007FF833685D702046BDE87040FFF7CEBFAD
:10261000657021460348BDE87040FFF747B800BF2A
:102620003C270020F026002038B50D46014680B139
:102630004FF6FF739842074C02D02068FFF76AF804
:10264000236805485D70FFF749F8BDE83840FFF79B
:10265000ADBF38BD3C270020F0260020024B186893
:1026600000B1C078704700BF3C27002010B5A8B962
:10267000194B1B68997083F82410184843689B789D
:102680008B4201D8002010BD134C2168FFF70EF8D3
:10269000236801225A70FFF799FFF3E7104B1B885C
:1026A000984217D801380F4B53F8204094B10A4B89
:1026B000A1701B6884F824109C42DED02046FFF7EE
:1026C0009BF86378012BDDD10448FFF707F8FFF78B
:1026D00087FFD7E7FF2010BD3C270020F026002011
:1026E0001C5C0008381F00202DE9F04711F0FF0F97
:1026F0000D468046234816469A4608BF0135FFF727
:1027000090FA044620B94FF000094846BDE8F0872A
:102710001D4B06631B881D4E280AA06200218B42B8
:1027200001F10109EFD006EB89020F4652F8042CA3
:102730004946002AF3D1EDB2012384F80390C4F88E
:102740001CA0C4F838A022706370A57084F82450CF
:102750006260A260E26022612262A282E28222833F
:10276000628384F8252018B90948FFF75AFA2063D4
:1027700020464146FFF738F9204646F82740FFF744
:102780002FFFC2E7202300201C5C0008381F002018
:10279000281D00202DE9F84F4D4D18B12B68DB782E
:1027A000984241D12C68DFF83C810023637001F02E
:1027B00096FEE062FFF7FEF92B681C6A0127A4B9B8
:1027C0002A684449D3784448013B41F82340116BBF
:1027D000FFF734FA296841480C63FFF72FFA2C60A1
:1027E000FFF7F4FE2046BDE8F88F6368B3B12046DA
:1027F000FEF774FF00210646FFF742F93046FFF767
:1028000013F8777031464046FEF750FFE368326AAE
:102810006780A660E26034621C46D0E7E2686380AD
:10282000A360E3601446CAE72D4B1B8898424DD83D
:10283000284B471E994653F82760002E46D0304655
:10284000FEF7C4FF3046FEF7EFFFDFF898B0346ABA
:102850004FF0010AB4B9316B1F4849F82740FFF720
:10286000EDF9314634631D48FFF7E8F91D48296842
:1028700043689A788B789A42B4D901234B70FEF75B
:1028800015FFADE76368DBB12046FEF727FF0021A7
:102890008046FFF7F5F84046FEF7C6FF88F801A02E
:1028A00041465846FEF702FFE368D8F82020A4F816
:1028B00002A0C4F80880E260C8F820401C46C9E7BE
:1028C000E2686380A360E3601446C3E7FF2489E7FE
:1028D0003C270020381F0020281D00202023002036
:1028E0001C5C0008F026002038B52C4B2C491A88B7
:1028F0000023184693424DD32A4B2B4819882B4C62
:102900004022FFF769F92A4B2A481A882A4B42F0DD
:1029100000421968FFF760F9284B1988284B0822F4
:102920001868FFF759F9FF230025E3702148A562D5
:10293000012363702570A57084F824506560A5603C
:10294000E56025612562A582E5822583658384F89B
:102950002550FFF766F91B4920632046FFF744F82E
:10296000194B04221A705D60184B1A70DD601D61EE
:102970009D82174B20461C6002236370FFF716FEF2
:10298000144A154B12781D705D70DA70BDE838403E
:10299000FFF79CBA41F823000133ABE71C5C000849
:1029A000381F0020E85B0008202300204427002077
:1029B000385C0008281D0020E45B0008EA5B000882
:1029C000080900200D160008F02600200827002026
:1029D0003C270020195C0008741F002008B51E4B1E
:1029E0001A6842F47F021A601B681B0203F07F43DF
:1029F000DB43B3FA83F3194A194812680168DBB262
:102A0000C3F10803C2F30222934298BF531C6FF034
:102A1000807202FA03F303F07F4321F07F421343F5
:102A20000360FFF78FF80F4B0028186012DB00F1EE
:102A3000604000F56440FF2202701A6853099B0051
:102A400003F1604303F5614302F01F02012101FA23
:102A500002F21A6008BD00BF20ED00E00CED00E0BE
:102A60001CED00E0202700200321FFF7DDBD000062
:102A7000426810B57AB1FEF731FE0446FEF7D4FE87
:102A8000012161702046FEF7FBFF21460448BDE8A6
:102A90001040FEF70BBE42880132428010BD00BFDD
:102AA000F026002070B5134C23681A69950707D5E6
:102AB000DA68900704D56FF002021A61FEF7B4FCE1
:102AC00023681A69510713D5DA68520710D56FF0D9
:102AD0000402094E1A615D6A3368EB1AB3F57A7F16
:102AE00006D300F07FFD236805F57A729A6335609E
:102AF00070BD00BF882700207C19002030B589B048
:102B000001A903A801F0F2F901F0C0F90023029332
:102B1000244B01901A6C244C42F008021A641A6C7F
:102B200002F008020292029A1A6A42F008021A623D
:102B30001A6A22F008021A62069AA3F50B33236080
:102B40004FF0FF33E360194B4ABBB0FBF3F00138A1
:102B50000025606014482561A560656100F0E8FE0D
:102B60001349322000F006FD124B0F484FF480222B
:102B70005A60294600F018FF04210B4800F014FFAA
:102B800023680D4A596A1160126802F57A729A63D5
:102B9000DA68284642F00402DA6009B030BD40002D
:102BA000D3E700BF003802408827002040420F00D2
:102BB000A52A000800E100E07C190020034B044A2C
:102BC0001360DA6822F00402DA607047000C0040FB
:102BD00088270020034B044A1360DA6842F004029D
:102BE000DA607047000C0040882700207FB5002382
:102BF000072855D8DFE800F00413202D3A54544735
:102C000000932A4B2A481A6B42F001021A631B6B8D
:102C100003F001030093009B07B05DF804FB0193F0
:102C2000224B24481A6B42F002021A631B6B03F01A
:102C300002030193019BEFE702931C4B1E481A6BA2
:102C400042F004021A631B6B03F004030293029B1D
:102C5000E2E70393154B19481A6B42F008021A6316
:102C60001B6B03F008030393039BD5E704930F4BFF
:102C700013481A6B42F010021A631B6B03F0100327
:102C80000493049BC8E70593084B0E481A6B42F067
:102C900080021A631B6B03F080030593059BBBE75F
:102CA0000948FEF769FC0020B6E700BF0038024083
:102CB000000002400004024000080240000C0240F4
:102CC00000100240001C0240585C000810B50021B2
:102CD000044604F00F0400F0BFF80120A04010BD2E
:102CE00070B504464B1C0E46218216D0C1F303106A
:102CF000FFF77CFF05463046FFF7E8FF238A074AC7
:102D0000656103F00F03206052F82330A36105F1E1
:102D1000100318356360A560E56070BD7C5C000839
:102D2000B0F9100000F01CB910B58369446971B99D
:102D3000216893FAA3F2B2FA82F20320520000FA59
:102D400002F221EA020293FAA3F3226010BD226884
:102D500093FAA3F1B1FA81F193FAA3F303204900A6
:102D600000FA01F1B3FA83F322EA01025B000121C8
:102D700001FA03F31343236010BD08B5FFF71EFFEC
:102D80000121002000F012FEBDE80840FFF722BF3D
:102D9000054B186830B901221A60044B044A1A60C6
:102DA000FFF7ACBE704700BF8019002088270020C5
:102DB000000C004008B5044B1B680BB9FFF7E8FF97
:102DC000024B586A08BD00BF80190020000C00406B
:102DD000044B054A13605863DA6842F00202DA6075
:102DE000704700BF000C004088270020034B044AB6
:102DF0001360DA6822F00202DA607047000C0040CB
:102E000088270020034A044B13606FF002021A6106
:102E1000704700BF88270020000C004030B5C36811
:102E200091FAA1F4B4FA84F491FAA1F10325B1FA6C
:102E300081F1640005FA04F4490023EA040302FA6C
:102E400001F11943C16030BD012A02D0022A18BF26
:102E50000022FFF7E3BF00002DE9F0413F4B00F0F7
:102E60000F08C0F3031053F828400E4601F0070581
:102E7000FFF7BCFE836894FAA4F1B1FA81F194FAE9
:102E8000A4F20327490007FA01F1B2FA82F223EA19
:102E900001035200022101FA02F213438D428360C2
:102EA00028D0BD4241D0012D3FD00023026894FAC2
:102EB000A4F7B7FA87F794FAA4F14FF0030EB1FA2A
:102EC00081F17F000EFA07F7490022EA07028B40E2
:102ED000013D1343012D036005D8436832074CBF01
:102EE0002343A3434360C6F301122146BDE8F041EA
:102EF000FFF7AABFB8F1070FC6F3032717D9426A35
:102F0000230A93FAA3F1B1FA81F193FAA3F34FF0F4
:102F10000F0EB3FA83F389000EFA01F19B0022EA47
:102F2000010207FA03F3134343622B46BEE7026A2A
:102F300094FAA4F3B3FA83F394FAA4F14FF00F0ECA
:102F4000B1FA81F19B000EFA03F3890022EA030231
:102F500007FA01F313430362E7E700BF7C5C000854
:102F600038B500F00F02194BC0F3031053F822409C
:102F70000D46FFF73BFE04FB04F2016802EB42033F
:102F80000B40B3FBF2F3013B012B05D8EB1E022BE8
:102F9000436809D823434360032D08D10122214609
:102FA000BDE83840FFF750BF23EA04034360012D1A
:102FB000F4D0052D01D0022D01D10222EFE72146E8
:102FC0000022BDE83840FFF729BF00BF7C5C000845
:102FD0004309012200F01F0002FA00F02033044AE6
:102FE00042F82300BFF34F8FBFF36F8F704700BFCE
:102FF00000E100E042681649920110B58B180468A0
:103000008C5082685A60C2689A600269DA604269CC
:103010001A61026A9A610022DA61DA849A84DA8596
:103020009A85B0F91A2001320AD108225A6118464D
:1030300000F003FC58B10748BDE81040FEF79CBA09
:10304000B0F9182001320CBF04220C22EEE710BDAB
:10305000AC190020BC5C0008F7B5194E074656F8BD
:10306000200000282AD0174CBD0163591A68520667
:103070000AD5DB68590607D5134B01211B68984711
:1030800063596FF040021A6063591A6892060CD5B2
:10309000DB68980609D50C4B56F827001B68002101
:1030A000984763596FF020021A6063591A68110734
:1030B00004D55A69D20744BF5B68019303B0F0BDE1
:1030C00088190020AC190020841900200020FFF787
:1030D000C3BF0120FFF7C0BF0520FFF7BDBF000041
:1030E000F0B50E4685B00446454930461546FEF714
:1030F00003FA444907462846FEF7FEF901463846DA
:10310000FEF7DCF9404B206098421ED003F5806347
:1031100098425ED0A3F5504398422BD13B4B1A6A9C
:1031200042F400321A621A6A22F400321A62002251
:1031300002921A6C42F400321A641B6C03F40033DE
:103140000293029B0123636014E0304B5A6A42F001
:1031500010025A625A6A002122F010025A6201914A
:103160005A6C42F010025A645B6C616003F0100309
:103170000193019B22493046FEF782F921492846F6
:10318000FEF77EF9721C03D001213046FFF7E8FEFE
:103190006B1C03D001212846FFF7E2FE4FF41653C3
:1031A000A3600023E3602361636123622683658358
:1031B0002046FFF71FFF2268154B9A4207D1154B97
:1031C000154801221A6021464C2201F091FE05B0FB
:1031D000F0BD0E4B5A6A42F020025A625A6A22F03F
:1031E00020025A62002203925A6C42F020025A6472
:1031F0005B6C03F020030393039B0523A3E700BF4D
:103200001C5D0008D45C000800100140003802403A
:1032100000440040A8190020C42700208160FFF767
:10322000E9BE0000034B19604168034B43F82120BD
:10323000704700BF841900208819002038B5436802
:10324000012B0D461AD0052B1BD0EBB91C492524A8
:103250001C489B01F2B1C258D368C5B943F02003A2
:10326000D360204600F086F96209012304F00704C8
:1032700003FA04F4144B43F8224038BD13492624C2
:10328000E6E713494724E3E700210C46E0E743F073
:103290004003E5E7C358DA6835B922F02002DA6066
:1032A000DB681A0606D538BD22F04002DA60DB681A
:1032B0009B0604D42046BDE83840FFF789BE38BDE0
:1032C000CD300008AC19002000E100E0D330000848
:1032D000D93000084368034A9B01D3581868C0F3EB
:1032E00040107047AC190020416810B504462046D4
:1032F000FFF7F0FF0028FAD08901034B5B585868AC
:10330000C0F3080010BD00BFAC1900204368034A99
:103310009B01D3581868C0F3C0107047AC19002047
:1033200038B5446805462846FFF7F0FF0028FAD074
:10333000A401034B1B59C1F30801596038BD00BFFC
:10334000AC19002008B500F019F8BDE8084000F0FD
:1033500031B97FB50F230193022100234FF480522E
:1033600001A8029103930492059300F0D9FCB0FAEE
:1033700080F0400907B05DF804FB0000174A1849C7
:10338000936803F00C03042B10B50DD0082B0DD05F
:10339000144B0B60114B144A9B68C3F30313D25CAC
:1033A0000B68D3400B6010BD104BF2E754685068B7
:1033B00052686302C2F3881200F03F004CBF0B4B0F
:1033C000084BB3FBF0F35343044A5268C2F3014283
:1033D00001325200B3FBF2F3DBE700BF00380240DA
:1033E000B00100200024F400645D000800127A009F
:1033F00000B58FB01B4B002100911A6C42F0805237
:103400001A641B6C184A03F080530093009B0191CF
:10341000136823F4404343F400431360136803F438
:1034200040430193019B01230293B8B90393022304
:1034300008934FF48003099308230A934FF4A87369
:103440000B9304230C9302A807230D9300F0BEFAFC
:1034500030B9FFF77EFF0FB05DF804FB0523E5E709
:103460000020F8E7003802400070004010B58EB030
:1034700000241A4B00941A6C42F080521A641B6CA0
:10348000174A03F080530093009B0194136823F4C0
:10349000404343F4004313601368039403F4404330
:1034A0000193019B099403230293012305931023A5
:1034B00006930A934FF4A8730B93042302220C93F0
:1034C00002A8072308920D9300F080FA18B9FFF7BD
:1034D00040FF0EB010BD2046FBE700BF00380240A1
:1034E0000070004008B50120FFF782FF30B9FFF7F8
:1034F0007FFF18B9FFF7BAFF00B9FEE708BD00006B
:10350000174AD2F8883010B543F47003154CC2F84E
:1035100088302368002143F001032360A160236801
:1035200023F0847323F4803323600F4B636023689C
:1035300023F4802323604FF00063E16093600B4B22
:103540000B4A1A6000F036F8FFF7CCFF236A43F00D
:1035500008032362236A23F00803236210BD00BF1F
:1035600000ED00E00038024010300024B0010020DF
:103570000024F40030B50C4CA268A468B4F1006FCC
:1035800013460CD1131F094C094A53F8045F42F843
:10359000045FA242F9D1044A4FF000539360103007
:1035A00043F8201030BD00BF00ED00E09001002086
:1035B000FCFFFF1F08B50A4B1A6842F400721A603C
:1035C0001A6842F480621A601A6842F480721A60C3
:1035D0000F20FFF793FA00F013F8002008BD00BF9A
:1035E000003C0240024A136801331360704700BF79
:1035F00010280020014B1868704700BF10280020D9
:10360000704700002DE9F0470668C2683369C16958
:1036100023F4405313433361044683680069F2681E
:103620000343606922F41642034322F00C020B4369
:103630001343F3607369A26923F440731343B1F534
:10364000004F73617A4B7CD19E4203D003F58063B7
:103650009E4244D100F032FC192505FB00F360685E
:103660004FF064094000B3FBF0F3B3FBF9F34FEA0A
:10367000031800F023FC636868435B00B0FBF3F7BA
:1036800000F01CFC636868435B00B0FBF3F3B3FB22
:10369000F9F309FB1373DB003233B3FBF9F35B007F
:1036A00003F4F87700F00AFC626868435200B0FB4C
:1036B000F2FA00F003FC636868435B00B0FBF3F3CD
:1036C000B3FBF9F309FB13A3DB003233B3FBF9F3CC
:1036D00003F0070343443B44B360BDE8F08700F0C8
:1036E000D5FB192505FB00F360684FF06409400025
:1036F000B3FBF0F3B3FBF9F34FEA031800F0C6FB9A
:10370000636868435B00B0FBF3F700F0BFFB6368DE
:1037100068435B00B0FBF3F3B3FBF9F309FB1373EE
:10372000DB003233B3FBF9F35B0003F4F87700F00E
:10373000ADFB626868435200B0FBF2FA00F0A6FBF2
:10374000B9E79E4202D03B4B9E4240D100F0B6FB0F
:10375000676819254FF0640905FB00F3BF00B3FB50
:10376000F7F3B3FBF9F31F0100F0A8FB63686843AC
:103770009B00B0FBF3F800F0A1FB636868439B007B
:10378000B0FBF3F3B3FBF9F309FB13831B013233F3
:10379000B3FBF9F303F0F00800F090FB62686843B4
:1037A0009200B0FBF2FA00F089FB636868439B006B
:1037B000B0FBF3F3B3FBF9F309FB13A31B013233A3
:1037C000B3FBF9F303F00F0343EA080383E700F0C8
:1037D0005DFB676819254FF0640905FB00F3BF0026
:1037E000B3FBF7F3B3FBF9F31F0100F04FFB636882
:1037F00068439B00B0FBF3F800F048FB6368684344
:103800009B00B0FBF3F3B3FBF9F309FB13831B013C
:103810003233B3FBF9F303F0F00800F037FB6268D2
:1038200068439200B0FBF2FA00F030FBBDE700BF46
:103830000010014000140140704710B5044640B329
:1038400090F8393003F0FF021BB980F83820FFF7F9
:10385000F3FF2268242384F83930D36823F400531B
:10386000D3602046FFF7CEFE23681A6922F4904207
:103870001A615A6922F02A025A61DA6842F4005247
:10388000DA6000202023E06384F8393084F83A308D
:1038900010BD012010BD7047224A036890420ED02F
:1038A000B0F1804F0BD0A2F57C42904207D002F5D8
:1038B0008062904203D002F58062904219D14A683A
:1038C00023F070031343174A904204D1CA6823F4CB
:1038D0004073134318E0B0F1804FF7D0124A904282
:1038E000F4D002F580629042F0D002F580629042FE
:1038F000ECD00E4A9042E9D002F580629042E5D0C9
:1039000002F580629042E1D003608B68C3620B686D
:103910008362044B984204BF0B6903630123436134
:10392000704700BF0000014000040040004001401B
:1039300010B50446A0B190F8393003F0FF021BB96E
:1039400080F83820FFF7A7FF022384F83930206879
:10395000211DFFF7A1FF012384F83930002010BD9D
:10396000012010BD036A10B501248C4023EA040332
:103970000362036A8A401A43026210BD10B504460E
:1039800001220068FFF7EEFF2368064A934202BF58
:103990005A6C42F400425A641A6842F001021A60FA
:1039A000002010BD00000140FFF7E8BF064A136980
:1039B000012923F00403136101D130BF704740BFD8
:1039C00020BF20BF704700BF00ED00E00368F7B5DF
:1039D000DD07044638D42368980771D423681E078E
:1039E00000F1BD8023685D0728D500230193A84B13
:1039F000A84D1A6C42F080521A641B6C03F080537D
:103A00000193019B2B6843F480732B60FFF7F2FD59
:103A100006462B68DA0540F1C4809F4B227A1A7063
:103A2000A368002B00F0CB80FFF7E4FD984D06461D
:103A300041F288372B6F9B0740F1BA80A269002AB8
:103A400040F0CD80002015E0914B9A6802F00C0206
:103A5000042A07D09A6802F00C02082A0CD15B688D
:103A6000590209D58A4B1B689A03B4D56368002BA9
:103A7000B1D1012003B0F0BD884B22791A70636880
:103A80007BB1FFF7B7FD824D064641F288372B68C0
:103A90009B03A0D4FFF7AEFD801BB842F7D90320EB
:103AA000E8E7FFF7A7FD7A4D064641F288372B6815
:103AB000980390D5FFF79EFD801BB842F7D9EEE73B
:103AC000734B9A6812F00C0F07D09A6802F00C0240
:103AD000082A16D15B68590213D46D4B1A689207F5
:103AE00002D5E268012AC4D11868F82292FAA2F23B
:103AF000B2FA82F122698A4020F0F8010A431A6082
:103B00006CE7E268664BDAB101221A60FFF772FDDA
:103B10005F4D06462B689B070CD52968F82393FA5E
:103B2000A3F3B3FA83F22369934021F0F80213431D
:103B30002B6053E7FFF75EFD801B0228EAD9AEE752
:103B40001A60FFF757FD524D06462B689F077FF519
:103B500045AFFFF74FFD801B0228F6D99FE762694A
:103B6000504B7AB101221A60FFF744FD484D0646DA
:103B70006B6F98073FF536AFFFF73CFD801B0228BF
:103B8000F6D98CE71A60FFF735FD414D06466B6F9D
:103B900099077FF527AFFFF72DFD801B0228F6D987
:103BA0007DE7FFF727FD801B02287FF632AF76E71F
:103BB000FFF720FD801BB8427FF63CAF6FE7FFF7B1
:103BC00019FD334D064641F288372B6F98077FF574
:103BD00035AFFFF70FFD801BB842F6D95FE72C4DDC
:103BE000AB6803F00C03082B3FF443AF2E4E0023C9
:103BF000022A33603ED1FFF7FDFC07462B6899018E
:103C000032D447F6C07797FAA7F74FF44032B7FAA5
:103C100087F792FAA2F24FF07061B2FA82F091FA4D
:103C2000A1F1226AE3691343626A02FA07F7A26A02
:103C30005208013A82403B431343E26A144CB1FA02
:103C400081F102FA01F10B436B6001233360FFF74E
:103C5000D1FC054623689A013FF5F4AEFFF7CAFC94
:103C6000401B0228F6D91AE7FFF7C4FCC01B022844
:103C7000C4D914E7FFF7BEFC04462B689B017FF50F
:103C8000E1AEFFF7B7FC001B0228F6D907E700BF3B
:103C90000038024000700040703802400238024094
:103CA00000004742800E474260004742194A93682D
:103CB00003F00C03042B10B503D0082B03D01648D7
:103CC00010BD164810BD5168536801F03F0113F450
:103CD000800F47F6C074536894FAA4F0B0FA80F0ED
:103CE00003EA040323FA00F314BF0C480A48B0FBAC
:103CF000F1F05843074B4FF440325B6892FAA2F25E
:103D0000B2FA82F203F44033D34001335B00B0FBDC
:103D1000F3F010BD003802400024F40000127A00D5
:103D2000564B1A6802F00F028A422DE9F04105460F
:103D30000E4630D32A68940737D4D0073DD44F4B72
:103D40001A6802F00F029642C0F088802A68510774
:103D500000F18C80130707D5494A2969936823F439
:103D6000604343EAC1039360FFF7A0FF444BF02296
:103D70009B6892FAA2F2B2FA82F203F0F003D34007
:103D8000404AD35CD840404B18600F20FEF7B6FE87
:103D90000020BDE8F081CAB21A701B6803F00F035F
:103DA0009942C7D00120BDE8F0813549A8688B68E9
:103DB00023F0F00303438B60BFE76A68304B012AAE
:103DC0001ED11B6813F4003FECD02D4CA36823F0E8
:103DD00003031343A360FFF70DFC6B68012B074639
:103DE00041F2883816D1A36803F00C03042BA6D047
:103DF000FFF700FCC01B4045F5D90320BDE8F0816A
:103E0000911E01291B6802D813F0007FDCE713F034
:103E1000020FD9E7022B0AD1A36803F00C03082B89
:103E20008DD0FFF7E7FBC01B4045F5D9E5E7032B35
:103E30000FD1A36803F00C030C2B80D0FFF7DAFB43
:103E4000C01B4045F5D9D8E7FFF7D4FBC01B404560
:103E5000D3D8A36813F00C0FF6D170E7F2B21A7042
:103E60001B6803F00F039E429CD16FE70449E8688A
:103E70008B6823F4E05303438B606BE7003C024004
:103E800000380240745D0008B0010020084B4FF478
:103E9000E0529B6892FAA2F2B2FA82F203F4E05383
:103EA000D340044AD35C044A1068D840704700BF2E
:103EB00000380240745D0008B0010020084B4FF448
:103EC00060429B6892FAA2F2B2FA82F203F4604373
:103ED000D340044AD35C044A1068D840704700BFFE
:103EE00000380240745D0008B00100200F23036019
:103EF0000B4B9A6802F0030242609A6802F0F002EB
:103F000082609A6802F4E052C2609B68DB0803F4A6
:103F1000E0530361034B1B6803F00F030B60704712
:103F200000380240003C024010B50446FDF7FAFAA2
:103F300023682BB9E068FDF7A0FA012360602360D5
:103F4000BDE81040FDF704BB38B50546FDF7EAFAB9
:103F50002C6824B1E868FDF790FA6C68041BFDF743
:103F6000F7FA204638BD38B50546FDF7DBFA284696
:103F7000AC68FFF7E9FF0444FDF7EAFA204638BDD4
:103F800008B5FFF7F0FF4FF47A7390FBF3F008BD2C
:103F900010B50446FDF7C6FAE068FDF76EFA002397
:103FA0006060A360BDE81040FDF7D2BA002310B5F1
:103FB0000360436083600446FDF732FAE060204608
:103FC000FFF7E6FF204610BD0368184708B10B68ED
:103FD000036070477047884238B504460D460AD0E2
:103FE000FDF71FF83CB1EB681BB15B682946204622
:103FF0009847EB68E360204638BD704710B504462B
:1040000000F04EF8014B2360204610BD985D00087B
:1040100010B5034B03600446FDF746F8204610BD7B
:10402000985D000810B50446FFF7F2FF204600F047
:1040300047FA204610BD70477047704700EB0112E9
:1040400002F19800D2F8A4301B68184710B480B170
:10405000146853680CB9DA070BD513F0010F4FEA57
:1040600063031CBFC2581459184423465DF8044B1F
:1040700018475DF8044B704770B50546044655F87F
:104080004C3B0E461B68984728463146FFF7C6F85A
:104090002368C4F8B86020465B68BDE870401847E4
:1040A0002DE9F04387B00025914600950246019521
:1040B000044688461F469DE80300274B42F8083B0C
:1040C000264B82E80300236148F207036361244B17
:1040D000E561A46122626362BFF36F8FBFF34F8F0C
:1040E00004F14C064C226563656484F8485084F8FA
:1040F0004950304600F021FF02A9C4F8A450C4F88A
:10410000B450C4F8B870174D174F029704F19800D7
:104110000595FFF760FF02A8FCF783FF02A904F1F1
:10412000A80002970595FFF756FF02A8FCF779FF54
:104130004A4641463046FEF7D3FFD4F8B810304621
:10414000FFF76CF8304622460849FFF76BF8204627
:1041500007B0BDE8F08300BFB05D000801A090E8A3
:104160004D400008845D0008374000083D400008CD
:104170002DE9FF410546884655F84C3B1B6804462F
:1041800016469847FDF7CEF9D8F80C70300197B174
:10419000983041462044FFF71EFF01223146284651
:1041A000FFF74CF8FDF7D4F9236820465B68984781
:1041B00004B0BDE8F081074B00939830064B0393A1
:1041C00069462044FFF707FF6846FCF72AFF3A4696
:1041D000E4E700BF37400008845D000838B50446B6
:1041E00048B15830A04206D0A0F12C051438FCF795
:1041F00052FF2846F6E7204638BD000070B50E4C49
:104200002046002528263246294640F8045B00F067
:1042100094FE3246294604F13000E56200F08DFE3E
:10422000A5652046E565054A84F860500449BDE867
:10423000704000F027B900BFAC1B002094010020A3
:10424000DD41000800F0D0BE00F02CBF00F07EBEC3
:1042500070B50546FEF7AEFD4FF47A7495FBF4F4A5
:10426000002C064602DDFDF757F928B9FEF7A2FD3E
:10427000801BA842FAD370BD204600F02BF9F5E769
:104280004FF47A735843FFF7E3BF000008B5084BBB
:104290001B685BB9022107480322FEF721FF4FF498
:1042A00016510448BDE80840FEF7B8BF08BD00BF7E
:1042B000A8190020C4270020022810B5044601DCFC
:1042C000002010BD00F0F8FB09230360033C094BFC
:1042D00053F82400002243F8242040B103681B69EE
:1042E0009847041EECDA00F0E7FB644204604FF0EC
:1042F000FF3010BD101C0020F8B505460E461446D0
:1043000000F0DAFB0923022D03600FDC124B1B685F
:104310000BB9FFF7BBFF35463719104EBD4215D01C
:1043200015F8011B3046FEF7FBFFF7E7033D0C4B8A
:1043300053F8250060B103682246DB683146984790
:10434000041E03DA00F0B8FB634203602046F8BDA8
:104350004FF0FF34FAE700BFA8190020C42700205F
:10436000101C002070B504460D46164600F0A4FB54
:104370000923022C03600BDC0F4B1B680BB9FFF702
:1043800085FF0E48FEF7B0FF01242870204670BD5F
:10439000033C0B4B53F8240058B1036832469B682A
:1043A00029469847041EF1DA00F086FB6342036059
:1043B000ECE74FF0FF34E9E7A8190020C4270020FC
:1043C000101C002070B504460D46164600F074FB24
:1043D0000923022C03600BDD033C084B53F8240037
:1043E00040B1036832462946DB69BDE87040184792
:1043F000002070BD4FF0FF3070BD00BF101C0020CA
:1044000008B5FEF79FFFFDF735F908BD704708B501
:10441000FFF7FCFFBDE80840FCF7DEBC0C4A136860
:1044200010B51844EFF30881884205D3094B0C22DC
:104430001A604FF0FF3010BD07490C6824B10749DE
:10444000096821448842F1D21060184610BD00BFAF
:10445000B401002014280020101D0020141D00208D
:10446000074C08B523680546986800F0DDFB236813
:10447000D86800F0D9FB0DB1FDF783F8FEE700BF67
:10448000B80100200120704708B5FFF7E9FF08B523
:10449000FDF7FEF808BD08B5FDF702F908BD0000FC
:1044A00010B500F0C1FC044610B90248FDF764F8ED
:1044B000204610BDC05D000808B100F0BDBC7047CB
:1044C000FFF7FABF024B1B6803B11847704700BFE4
:1044D000181D0020FDF758BE80F309887047EFF3E0
:1044E00009807047684680F309885A480078C007F9
:1044F00014BF0220032080F314887047DFF858C1EE
:10450000EFF305831B0618BF6047EFF31483DB0747
:1045100008BF604700DF7047DFF840C1EFF3058355
:104520001B0618BF6047EFF31483DB0708BF604723
:1045300000DF7047EFF30980816911F8021CE1BBCD
:1045400090E80F1010B5E047BDE81040EFF3098C7C
:104550008CE80700424B93E80600914208BF704781
:1045600041B91EF0100F16D13E49086820F0010035
:10457000086010E01EF0100F06BF2CED108A01201D
:10458000002081F825002CE9F00FC1F82CC00CB4F4
:10459000FDF710FB0CBC1A60D2F82CC0BCE8F00F81
:1045A00092F8250000280EBF6FF0020E6FF0120E79
:1045B000BCEC108A8CF30988704710B52A4A12683F
:1045C000914209D8294C54F8214090E80F10A04797
:1045D000EFF3098C8CE80F0010BD10B5FDF776FAEB
:1045E000BDE810401E4B93E80600914208BF70479B
:1045F000EFF3098C1EF0100F06BF2CED108A01207E
:10460000002081F825002CE9F00FC1F82CC00CB473
:10461000FDF7D0FA0CBC1A60D2F82CC0BCE8F00F41
:1046200092F8250000280EBF6FF0020E6FF0120EF8
:10463000BCEC108A8CF30988704710B5FDF79CFA22
:10464000FFF7CEBF10B5FDF795FAFDF795FAFFF726
:10465000C7BF00001A5C0008231C00083D1C0008AE
:104660003C27002034EF00E000000000FCFFFFFFCB
:10467000DFF820D0002103E0074B5B5843500431A2
:104680000648074B42189A42F6D3FEF739FFFCF76B
:104690008BFE704700800120845E0008940100209A
:1046A00030020020FEE7000081F0004102E000BF80
:1046B00083F0004330B54FEA41044FEA430594EAE2
:1046C000050F08BF90EA020F1FBF54EA000C55EA1D
:1046D000020C7FEA645C7FEA655C00F0E2804FEAEE
:1046E0005454D4EB5555B8BF6D420CDD2C4480EAD0
:1046F000020281EA030382EA000083EA010180EA00
:10470000020281EA0303362D88BF30BD11F0004F4D
:104710004FEA01314FF4801C4CEA113102D0404283
:1047200061EB410113F0004F4FEA03334CEA1333BE
:1047300002D0524263EB430394EA050F00F0A780D6
:10474000A4F10104D5F1200E0DDB02FA0EFC22FAD1
:1047500005F2801841F1000103FA0EF2801843FAC5
:1047600005F359410EE0A5F120050EF1200E012AB6
:1047700003FA0EFC28BF4CF0020C43FA05F3C018F4
:1047800051EBE37101F0004507D54FF0000EDCF16D
:10479000000C7EEB00006EEB0101B1F5801F1BD316
:1047A000B1F5001F0CD349085FEA30004FEA3C0C1A
:1047B00004F101044FEA445212F5800F80F09A8010
:1047C000BCF1004F08BF5FEA500C50F1000041EB14
:1047D000045141EA050130BD5FEA4C0C404141EB18
:1047E000010111F4801FA4F10104E9D191F0000F3F
:1047F00004BF01460020B1FA81F308BF2033A3F1C2
:104800000B03B3F120020CDA0C3208DD02F1140CB8
:10481000C2F10C0201FA0CF021FA02F10CE002F1F3
:104820001402D8BFC2F1200C01FA02F120FA0CFCEC
:10483000DCBF41EA0C019040E41AA2BF01EB045135
:10484000294330BD6FEA04041F3C1CDA0C340EDC33
:1048500004F11404C4F1200220FA04F001FA02F376
:1048600040EA030021FA04F345EA030130BDC4F134
:104870000C04C4F1200220FA02F001FA04F340EA29
:104880000300294630BD21FA04F0294630BD94F0DA
:10489000000F83F4801306BF81F480110134013DC1
:1048A0004EE77FEA645C18BF7FEA655C29D094EA32
:1048B000050F08BF90EA020F05D054EA000C04BFB0
:1048C0001946104630BD91EA030F1EBF002100209B
:1048D00030BD5FEA545C05D14000494128BF41F03A
:1048E000004130BD14F580043CBF01F5801130BD9E
:1048F00001F0004545F0FE4141F470014FF0000029
:1049000030BD7FEA645C1ABF194610467FEA655CD9
:104910001CBF0B46024650EA013406BF52EA03357B
:1049200091EA030F41F4002130BD00BF90F0000F69
:1049300004BF0021704730B54FF4806404F13204A5
:104940004FF000054FF0000150E700BF90F0000F5E
:1049500004BF0021704730B54FF4806404F1320485
:1049600010F0004548BF40424FF000013EE700BF55
:1049700042004FEAE2014FEA31014FEA02701FBFE5
:1049800012F07F4393F07F4F81F06051704792F0B7
:10499000000F14BF93F07F4F704730B54FF4607431
:1049A00001F0004521F0004120E700BF50EA01027C
:1049B00008BF704730B54FF000050AE050EA010229
:1049C00008BF704730B511F0004502D5404261EB99
:1049D00041014FF4806404F132045FEA915C3FF4DA
:1049E000DCAE4FF003025FEADC0C18BF03325FEA73
:1049F000DC0C18BF033202EBDC02C2F1200300FA28
:104A000003FC20FA02F001FA03FE40EA0E0021FA4C
:104A100002F11444C1E600BF4FEA4102B2F1E043A3
:104A200024BFB3F5001CDCF1FE5C0DD901F0004C95
:104A30004FEAC0024CEA5070B2F1004F40EB8300E5
:104A400008BF20F00100704711F0804F21D113F111
:104A50003872BCBF01F00040704741F480114FEA4A
:104A60005252C2F11802C2F1200C10FA0CF320FAD3
:104A700002F018BF40F001004FEAC1234FEAD323F0
:104A800003FA0CFC40EA0C0023FA02F34FEA43035A
:104A9000CCE77FEA625307D150EA01331EBF4FF0E3
:104AA000FE4040F44000704701F0004040F0FE40FE
:104AB00040F40000704700BF014B1868704700BF0A
:104AC000B80100208A892DE9F041054610070C46FF
:104AD0005AD44B68002B05DC0B6C002B02DC002049
:104AE000BDE8F081E66A002EF9D0002312F480526E
:104AF0002F682B6033D0606DA3895A0705D5636892
:104B0000C01A636B0BB1236CC01A00230246E66A1D
:104B1000216A2846B047431CA38906D129681D296C
:104B20004BD82B4ACA40D60747D500226260D90429
:104B30002269226004D5421C01D12B6803B960654B
:104B4000616B2F600029CAD004F14403994202D05E
:104B50002846FFF77BFB00206063BDE8F081216AF7
:104B600001232846B047411CC6D12B68002BC3D077
:104B70001D2B01D0162B01D12F60B0E7A38943F084
:104B80004003A381BDE8F0810F69002FA7D09307F0
:104B90000E6808BF4B690F6018BF0023A6EB07081B
:104BA0008B60B8F1000F9ADD43463A46216AA66A47
:104BB0002846B047002807DCA38943F04003A381BF
:104BC0004FF0FF30BDE8F0810744A8EB0008E8E7AC
:104BD0000100402038B50B6905460C46DBB118B121
:104BE00083690BB900F072F80C4B9C4209D16C68D8
:104BF000B4F90C307BB121462846BDE83840FFF7B8
:104C000061BF074B9C4201D1AC68F1E7054B9C4268
:104C100008BFEC68ECE7002038BD00BF005E00086C
:104C2000205E0008E05D0008014620B9044B0549FC
:104C3000186800F0B7B8044B1868FFF7CBBF00BF87
:104C4000405E0008D54B0008B8010020014900F083
:104C5000A9B800BFD54B0008002310B50446036077
:104C60004360836081814366C281036143618361E4
:104C7000194608225C3000F060F9054B6362054B71
:104C8000A362054BE362054B2462236310BD00BFA2
:104C90004D5400086F540008A7540008CB54000876
:104CA00070B54A1E682555430E4605F17401FFF79D
:104CB000C9FA044640B1002180E842000C30A060EF
:104CC00005F1680200F039F9204670BD836910B51E
:104CD000044633BB8364C3640365124B124A1B68EA
:104CE0008262984204BF0123836100F01FF8606074
:104CF000204600F01BF8A060204600F017F80022C4
:104D0000E06004216068FFF7A7FF01220921A06885
:104D1000FFF7A2FF02221221E068FFF79DFF0123A7
:104D2000A36110BD405E00084D4C0008F8B51C4B57
:104D30001E68B369074613B93046FFF7C7FF483608
:104D4000B4687368013B03D5336833B13668F7E75D
:104D5000B4F90C506DB16834F4E704213846FFF71C
:104D60009FFF30600028F1D10C233B6004462046B1
:104D7000F8BD4FF6FF73E3810123A38165662560CB
:104D8000A560656025616561A5610822294604F179
:104D90005C0000F0D2F86563A563A564E564E6E70E
:104DA000405E00082DE9F8438046894600F148043A
:104DB000002614B93046BDE8F883A5686768013F4E
:104DC00001D52468F5E7AB89012B07D9B5F90E3079
:104DD000013303D029464046C84706436835EEE70D
:104DE00070B50D4E0D4CA41BA4100025A54209D191
:104DF0000B4E0C4C00F036FDA41BA4100025A54260
:104E000005D170BD56F8253098470135EEE756F8C4
:104E1000253098470135F2E71C0200201C020020D3
:104E20001C02002028020020024B01461868FFF7F0
:104E300009BA00BFB8010020024B01461868FFF70D
:104E400005BA00BFB801002000000000000000000B
:104E500001F0FF01102A2BDB10F0070F08D010F82B
:104E6000013B013A8B422DD010F0070F42B3F6D12F
:104E7000F0B441EA012141EA014122F007047FF048
:104E800000070023F0E80256083C85EA010586EA9F
:104E9000010685FA47F5A3FA87F586FA47F6A5FADB
:104EA00087F68EB9EED1F0BC01F0FF0102F00702E7
:104EB00032B110F8013B013A83EA010313B1F8D192
:104EC0000020704701387047002D06BF3546033873
:104ED000073815F0010F07D1013015F4807F02BFAC
:104EE000013015F4C03F0130F0BC0138704700BFFD
:104EF00010B5431E0A44914200D110BD11F8014B78
:104F000003F8014FF7E7884210B501EB020303D81D
:104F1000421E99420CD110BD9842F9D28118D21A82
:104F2000D34200D110BD13F8014D01F8014DF7E750
:104F300011F8014B02F8014FEBE70244034693429C
:104F400000D1704703F8011BF9E7000038B50546AA
:104F5000002945D051F8043C0C1F002BB8BFE418C1
:104F6000FFF795FA1F4A1368104633B9636014605F
:104F70002846BDE83840FFF78EBAA3420CD9216815
:104F80006218934204BF1A685B68636004BF5218DA
:104F900022600460ECE713465A680AB1A242FAD9CB
:104FA00019685818A0420BD1206801445818824251
:104FB0001960DDD1106852685A6001441960D7E762
:104FC00002D90C232B60D3E7206821188A4204BF42
:104FD00011685268626004BF091821605C60C7E70D
:104FE00038BD00BF1C1D002070B5CD1C25F0030589
:104FF00008350C2D38BF0C25002D064601DBA942D3
:1050000003D90C233360002070BDFFF740FA234A18
:105010001468214691B9224C23681BB9304600F030
:1050200005FA20602946304600F000FA431C26D1DC
:105030000C2333603046FFF72EFAE4E70B685B1B66
:105040001AD40B2B0FD90B60CD50CC183046FFF77C
:1050500022FA04F10B00231D20F00700C31A1BD015
:105060005A42E25070BD8C420DBF63684B6863606A
:10507000136018BF0C46E9E70C464968CAE7C41C30
:1050800024F00304A04205D0211A304600F0CEF9E6
:105090000130CDD02560D9E770BD00BF1C1D0020B8
:1050A000201D0020F8B5074614460E4621B91146CA
:1050B000BDE8F840FFF7C6B822B9FFF7C7F82546A4
:1050C0002846F8BD00F064FA84420FD921463846DC
:1050D000FFF7B8F805460028F2D031462246FFF720
:1050E00007FF31463846FFF7B1F8E9E73546E7E70D
:1050F0002DE9F04791461F468A680B69DDF820804C
:105100009342B8BF1346C9F8003091F843200646D1
:105110000C4612B10133C9F800302368990642BF2A
:10512000D9F800300233C9F80030256815F00605BB
:1051300007D104F1190AE368D9F800209B1A9D42AF
:1051400029DB94F843302268003318BF012392060C
:105150002ED404F1430239463046C047013021D0F5
:105160002368E568D9F8002003F00603042B08BF84
:10517000AD1AA36822690CBF25EAE57500259342A4
:10518000C4BF9B1AED184FF000091A344D451BD1CE
:105190000020BDE8F0870123524639463046C0471B
:1051A000013003D14FF0FF30BDE8F0870135C2E791
:1051B000E1185A1C302081F84300224494F845102D
:1051C00082F843100233C4E70123224639463046B1
:1051D000C0470130E6D009F10109D7E72DE9F043D6
:1051E00017460A7E85B06E2A984606460C460C9BEA
:1051F00001F1430E00F0BC801AD8632A2ED00AD8E1
:10520000002A00F0C880582A00F08A8004F1420584
:1052100084F842202AE0642A01D0692AF6D1216864
:105220001A6811F0800F23D0111D1960136827E050
:10523000732A00F0B48008D86F2A2AD0702AE5D1EA
:105240000A6842F020020A6003E0752A21D0782A19
:10525000DCD1782284F845206E4964E01A6801F1B7
:105260004205111D1960136884F842300123A3E040
:1052700011F0400F02F104011960D7D0B2F90030EB
:10528000002B03DA2D225B4284F8432062490A2274
:1052900017E02068196810F0800F03D0081D18600F
:1052A0000B6806E010F0400F01F104001860F7D021
:1052B0000B8859496F2A14BF0A220822002084F85B
:1052C00043006568A560002DC0F29C80206820F036
:1052D00004002060002B3FD1002D40F095807546E2
:1052E000082A0BD12368DA0708D5236962689A4235
:1052F000DEBF302305F8013C05F1FF35AEEB0503B9
:105300002361CDF800803B4603AA21463046FFF7D3
:10531000EFFE013055D14FF0FF3005B0BDE8F0830E
:1053200081F845203C492268186812F0800F00F18E
:1053300004051D6001D0036802E05506FBD5038813
:10534000D00744BF42F0200222601BB9226822F03D
:10535000200222601022B1E77546B3FBF2F002FB97
:105360001033CB5C05F8013D03460028F5D1B7E7C3
:1053700008681A68496910F0800F04D0101D186081
:105380001368196007E010F0400F02F10400186084
:105390001368F6D01980002323617546B1E71A68B7
:1053A000111D19601568626800212846FFF750FD3D
:1053B00008B1401B606063682361002384F84330B8
:1053C0009FE723692A4639463046C0470130A2D0BC
:1053D00023689B0707D5002504F11909E368039AA0
:1053E0009B1A9D4205DBE068039B9842B8BF1846B4
:1053F00093E701234A4639463046C04701308AD0F8
:105400000135EBE7002BA7D10B7884F8423004F18B
:10541000420565E7555E0008445E0008024B0A46F7
:1054200001461868FEF710BFB801002038B5064CD9
:105430000023054608462360FEF7F0FF431C02D117
:10544000236803B12B6038BD1428002010B50C462A
:10545000B1F90E1000F0F4F90028ABBF636DA38919
:105460001B1823F48053ACBF6365A38110BD2DE9E5
:10547000F0411F468B89DB0505460C46164605D5CF
:1054800002230022B1F90E1000F070F8A389B4F9DC
:105490000E1023F48053A38132463B462846BDE8D4
:1054A000F04100F041B810B50C46B1F90E1000F013
:1054B0005DF8431CA38915BF606523F4805343F452
:1054C0008053A38118BFA38110BDB1F90E1000F065
:1054D0003DB8034613F8012B002AFBD1181A0138F6
:1054E000704710B59AB04FF40274009104916FF0B8
:1054F0000041029105914FF6FF71ADF80E1069461B
:10550000ADF80C4000F0A8F8009B00221A701AB009
:1055100010BD000013460A46014602480068FFF726
:10552000E0BF00BFB801002038B5074C054608466B
:105530001146002222601A46FEF7DEFE431C02D10D
:10554000236803B12B6038BD1428002038B5064C01
:105550000023054608462360FEF7AEFE431C02D139
:10556000236803B12B6038BD1428002038B5074CE0
:10557000054608461146002222601A46FEF722FF21
:10558000431C02D1236803B12B6038BD14280020CE
:1055900051F8040C0028A0F10400BCBF0B58C0183F
:1055A00070472DE9F0478E689E4282460C46914630
:1055B000984635D88A8912F4906F31D025680969E8
:1055C0006F1A6569022305EB450595FBF3F508F1B4
:1055D00001033B449D4238BF1D46530531D5294642
:1055E000FEF730FE064650B90C23CAF80030A389F6
:1055F00043F04003A3814FF0FF30BDE8F0873A4607
:105600002169FFF775FCA38923F4906343F08003BD
:10561000A381266165613E44ED1B2660A560464678
:10562000464528BF4646324649462068FFF76BFC90
:10563000A3689B1BA36023681E4426600020BDE86E
:10564000F0872A46FEF700FE06460028E1D12169D0
:105650005046FEF7FBFDC7E72DE9F04F9DB08046B1
:1056600003938B891C060D4616460FD50B696BB943
:105670004021FEF7E7FD2860286128B90C23C8F80F
:1056800000304FF0FF30C5E040236B6100230993E9
:1056900020238DF8293030238DF82A304FF0010B6C
:1056A00037463C4614F8013B002B3CD1B7EB060AC9
:1056B0000BD05346324629464046FFF772FF013071
:1056C00000F0A380099B534409933B78002B00F022
:1056D0009C8000234FF0FF320493079305920693BA
:1056E0008DF853301A93052221785048FFF7B0FB0C
:1056F000671C049BD8B9D90644BF20228DF85320DB
:105700001A0744BF2B228DF8532022782A2A16D05C
:10571000079A00210A20274601343B78303B092BA9
:1057200051D9C9B111E0252BC0D02746B9E73F4A6E
:10573000801A0BFA00F0184304903C46D3E7039A12
:10574000111D12680391002A01DB079204E0524206
:1057500043F00203079204933B782E2B0ED17B7803
:105760002A2B07F1010132D1039B1A1D1B680392FA
:10577000002BB8BF4FF0FF33023705932C4C39781C
:1057800003222046FFF764FB38B14023001B03FAD5
:1057900000F0049B034304930137397825488DF8C2
:1057A000281006227E1CFFF753FB002835D0224B21
:1057B000FBB9039B073323F0070308330393099BCB
:1057C0004B4409936CE700FB02320121A3E700235D
:1057D000059318460A240F4601313A78303A092ACF
:1057E00003D9002BCAD00590C8E704FB0020012391
:1057F000F1E703AB00932A46104B04A94046AFF3F0
:105800000080B0F1FF3F8146D9D1AB895B063FF5FF
:1058100038AF09981DB0BDE8F08F03AB00932A465E
:10582000064B04A94046FFF7D9FCEAE7665E00088C
:105830006C5E0008705E000800000000A3550008C0
:1058400038B5074C054608461146002222601A4624
:10585000FEF788FD431C02D1236803B12B6038BDDD
:1058600014280020F8B500BFF8BC08BC9E4670475D
:10587000F8B500BFF8BC08BC9E46704700000000A9
:10588000000000000102000829020008650200086B
:105890006D02000800000000000000003305000851
:1058A0000D060008750200087D02000800000000D7
:1058B0000000000007050008D70500088502000861
:1058C0008D02000800000000000000002504000810
:1058D000C3060008950200089D02000800000000B1
:1058E00000000000A5020008E9020008FD0200080F
:1058F0000503000800000000000000000D03000880
:1059000081030008A1030008A903000800000000AB
:1059100000000000E90A0008A90B0008F5030008D0
:105920000000000000000000C9030008E1030008B7
:10593000E5030008ED030008636F6E74726F6C2F4F
:10594000636F6D6D616E642F6861726477617265FB
:1059500000656E635F6368617474657200396630F8
:1059600065393862646136353938313938366464BE
:105970006635336166613761343065343900313101
:1059800061626437333163323539333332363163F0
:1059900064363138336264313264363239350072FC
:1059A0006F7373657269616C5F6D7367732F4C6F92
:1059B00067003061643531663838666334343839AD
:1059C0003266386331303638343037373634363033
:1059D000303500726F7373657269616C5F6D7367E8
:1059E000732F546F706963496E666F00726F7373C3
:1059F000657269616C5F6D7367732F526571756550
:105A00007374506172616D004D65737361676520D9
:105A100066726F6D206465766963652064726F706D
:105A20007065643A206D657373616765206C61729F
:105A3000676572207468616E206275666665722E95
:105A400000323365613161656333623361656435AA
:105A500064613934383335623862646531343638DC
:105A60006300636F6E74726F6C2F456E636F646555
:105A700072446174610037383730623935396233C6
:105A80003364353866646637326161393261636127
:105A900034633835323000636F6E74726F6C2F4828
:105AA00061726477617265436F6D6D616E640063EE
:105AB00064373136366337346335353263333131E9
:105AC0006662636332666535613762633238390016
:105AD0007374645F6D7367732F54696D65000000A4
