:1000000000300020C10000007F370000CB3E000020
:1000100000000000000000000000000000000000E0
:10002000000000000000000000000000D33D0000C0
:100030000000000000000000593E0000A13E00004A
:10004000D33E0000D33E0000D33E0000D33E00006C
:10005000D33E0000D33E0000D33E0000D33E00005C
:10006000D33E0000D33E0000D33E0000D33E00004C
:10007000D33E0000D33E0000D33E0000D33E00003C
:10008000D33E0000D33E0000D33E0000D33E00002C
:10009000D33E0000D33E0000D33E0000D33E00001C
:1000A000D33E0000D33E0000D33E0000D33E00000C
:1000B000D33E0000D33E0000D33E0000D33E0000FC
:1000C0000749084A084B9B1A05DD002408591051BE
:1000D00004349C42FADB054880470548004700008D
:1000E000085D0000C0F0FF1F58F1FF1F8D370000B2
:0400F00019170000DC
:10040000FFFFFFFFFFFFFFFFFFFFFFFFFEFFFFFFFD
:1004100010B5064C2378002B07D1054B002B02D0DA
:10042000044800E000BF0123237010BD58F1FF1FF6
:1004300000000000FC5C0000084B10B5002B03D04E
:100440000749084800E000BF07480368002B00D1B7
:1004500010BD064B002BFBD09847F9E700000000C9
:100460005CF1FF1FFC5C000058F1FF1F0000000062
:1004700003790B7043681B0A4B7043681B0C8B702D
:1004800043681B0ECB70037A0B7183681B0A4B7198
:1004900083681B0C8B71836808201B0ECB7170471F
:1004A0000A7842604B781B021A4342608B781B0427
:1004B00013434360CA781206134343600A7982608B
:1004C0004B791B021A4382608B791B0413438360B0
:1004D000CA791206134383600820704700487047AA
:1004E000A85900000048704787590000004870472D
:1004F000AB580000004870478A5800000048704719
:100500007758000000487047565800000048704770
:10051000C4580000004870473558000043681A0A64
:100520000B704A701A0C1B0E8A70CB7083681A0A03
:100530000B714A711A0C1B0E8A71CB71C3681A0AAF
:100540000B724A721A0C1B0E8A72CB72036910204E
:100550001A0A0B734A731A0C1B0E8A73CB737047FB
:100560004A780B7812021A438B781B041A43CB7813
:100570001B06134343604A790B7912021A438B79A5
:100580001B041A43CB791B06134383604A7A0B7A08
:1005900012021A438B7A1B041A43CB7A1B061343AD
:1005A000C3604A7B0B7B12021A438B7B1B041A43EA
:1005B000CB7B1B0613430361102070470048704734
:1005C0006F590000004870474E59000043681A0AEE
:1005D0000B704A701A0C1B0E8A70CB7083681A0A53
:1005E0000B714A711A0C1B0E8A71CB71C3681A0AFF
:1005F0000B724A721A0C1B0E8A72CB7203691A0AAA
:100600000B734A731A0C1B0E8A73CB7343691A0A55
:100610000B744A741A0C1B0E8A74CB7483691A0A01
:100620000B754A751A0C1B0E8A75CB75C3691C2095
:100630001A0A0B764A761A0C1B0E8A76CB7670470E
:100640004A780B7812021A438B781B041A43CB7832
:100650001B06134343604A790B7912021A438B79C4
:100660001B041A43CB791B06134383604A7A0B7A27
:1006700012021A438B7A1B041A43CB7A1B061343CC
:10068000C3604A7B0B7B12021A438B7B1B041A4309
:10069000CB7B1B06134303614A7C0B7C12021A437B
:1006A0008B7C1B041A43CB7C1B06134343614A7D9E
:1006B0000B7D12021A438B7D1B041A43CB7D1B0654
:1006C000134383614A7E0B7E12021A438B7E1B0406
:1006D0001A43CB7E1B061343C3611C2070470000E6
:1006E000004870473A590000004870471959000007
:1006F0004268044B5A6082689A60C268DA60026994
:100700001A617047BCF1FF1F70B5040005000C347E
:100710002000FFF725FF2B6A2000984770BD406A34
:1007200070470000004870476F590000004870474C
:100730004E590000014BC05C7047C0465C0500008C
:1007400010B5C3680A0019680C6881681800A047D2
:1007500010BD002310B50C00DA00D440C45401339E
:10076000042BF8D110BD0379F7B50B7043680D0069
:100770001B0A4B7043680A1D1B0C8B7043680400F6
:100780001B0ECB7000216068531B81420CD2E068C5
:100790008B001B580131180A13705070180C1B0E77
:1007A0009070D3700432EEE7227CEA542169EA1893
:1007B000090A517021690433090C91702169EB1801
:1007C000090ED170002122695E1B91420CD2A069F2
:1007D0008A0012580131100A1A705870100C120E4B
:1007E0009870DA700433EEE70027237FAB55E26997
:1007F000AB19120A5A70E2690436120C9A70E26957
:10080000120EDA70E3699F4215D2636ABA009858F3
:1008100004F0ACFD01900199A819FFF79AFF636AF3
:10082000BA0004369958A819019A04F0BEFA019B3F
:1008300001379E19E6E73000FEBD70B5037906006A
:100840000B7080680D0004F091FD0400681C21000D
:10085000FFF77FFF681DB168220004F0A6FA601D53
:1008600070BDF8B5838806000B7083880C001B0AE6
:100870004B70806804F07AFD0500A01C2900FFF78A
:1008800068FF2A00B168A01D04F08FFAF06804F038
:100890006DFD0700AB1DE01839000A35FFF759FF61
:1008A0003A00F168601904F080FA306904F05EFDE6
:1008B0007D190700601939000435FFF74AFF6019F8
:1008C0003A00316904F071FA73697F19E3551A0A25
:1008D000E41962701A0C1B0E381DA270E370F8BD8B
:1008E000002310B50360CA5CDC00A2400468013339
:1008F00022430260042BF6D110BDF7B50C000B7833
:1009000005000371013101A8FFF7EAFF221D130062
:100910000199481D01331E1BB04203D91F785E1E8A
:100920003770F7E7002364182371AA60FEBDF0B5A5
:100930000C000B7885B083804A78060012021343BE
:100940008380023101A8FFF7CBFF611D0B00019AE4
:10095000951D0133181B854203D91F78581E077057
:10096000F7E70023A218537102A8B1606119FFF7DD
:10097000B7FF029A2B1D9D181A00AA4204D2A05C50
:10098000511E60540132F8E700206119013BE31861
:100990004A1E1070F36003A8FFF7A2FF039B043503
:1009A000E8182B00834204D2E15C5A1EA1540133A3
:1009B000F8E700212218013D531E651919703561B1
:1009C000537891781B020904D2780B43215C1206FC
:1009D0000B4313430430736105B0F0BDF7B54B789A
:1009E0000E781B0233438E78040036043343CE78EE
:1009F0000D0036061E4343689E4204D9B100C0680C
:100A000004F04CFCE060002366602F1D62685E1CF1
:100A1000B000934215D221007B78BA781B021204F1
:100A200013433A7804381343FA7808311206134313
:100A3000A360E3680422181804F0B7F90437330000
:100A4000E4E72A1857789378295C1B043F021F4378
:100A50003943D77823693F060F43061D9F4204D9C7
:100A6000B900A06904F01AFCA06127610027AE1943
:100A70002369721B9F4215D221007378B2781B0242
:100A8000120413433278B8001343F278143112067B
:100A900013436361A3690422181804F086F901372F
:100AA0000436E5E7A9184F788B78A85C1B043F0251
:100AB0001F433843CF78E3693F060743161D9F4223
:100AC00004D9B900606A04F0E9FB6062E7610027BD
:100AD000E3699F421FD2A91901A8FFF701FF019AFC
:100AE000331D9E181A00B24204D2A85C511E6854ED
:100AF0000132F8E70021AA19013A11702100013BE7
:100B0000EB182362636AB80018180422203104F03D
:100B10004CF90137DCE73000FEBD00001FB5084B83
:100B200004000193002302930393036801AA1B6846
:100B30000A2198472000603002F0C1FE20671FBDE7
:100B40005C5700000022F0B52D4B89B0029302AB38
:100B50009A802C4B802704930593069390230500DD
:100B6000DB00C418284B0792C618BF002368002B6F
:100B700017D01989586802AA91801A6803680492EC
:100B80009B6898472368059058680368DB68984716
:100B900021682B68069007971B6802AA096928003C
:100BA00098470434B442E1D1A9238026DB00EB1836
:100BB0000193B6002068002818D0828802AB9A8082
:100BC0008368049303689B689847059020680368CE
:100BD000DB6898472B68069020681F6803680796B3
:100BE0005B68984702AA01002800B847019B0434BB
:100BF000A342DFD10122054BEA5409B0F0BDC04643
:100C000074570000275A0000E40400005C0500004F
:100C1000F0B5264B060087B003930023040060362E
:100C200030000F000493059302F049FE236F390052
:100C3000C51A03A8FFF734FCFA212800890003F045
:100C400049F9FA21049B890018180490280001939F
:100C500003F0C6F9164B30005943059BC9180193A0
:100C6000059102F02CFEFA21049B890007000193F4
:100C70005D1E03F02FF9FA212D1A65670D4B059DB6
:100C800038008900ED1803F0ABF9094B20005943F7
:100C9000691AA16721007430783100F067FB3000D9
:100CA00002F00DFE044BE05007B0F0BD5C570000B1
:100CB00040420F0000CA9A3B6405000073B54A4CDD
:100CC0004A4B20000025042208C026008023009201
:100CD000082101955B00603600F020FC300002F036
:100CE00003FEE1231B02E3653000802602F0BAFD1B
:100CF0002000B60029003200803025676567A567AF
:100D0000E56704F06DF8A0239B002900E01832008D
:100D100004F066F890239D3EDB00FF3E2900E018BA
:100D2000320004F05DF8324B2900E018320004F084
:100D300057F8A9230026DB00E5502E4B2E4AE5503C
:100D40000433E5502D4B2E49E5500433E5502D4B2F
:100D50002000E5540433E5502B4BE5500433E550B7
:100D60002A4BE5540433E250294B2A4AE550043318
:100D7000E550294BE5500433E550284BE650043349
:100D8000E550274BE5500433E550264BE55002F083
:100D9000BFFF254B254A264926481A60264A086087
:100DA000D0602648264C106201205062254816610A
:100DB00056619661D66114609060234A23484E6064
:100DC0008E60CE600E615E609E60DE601E615E6160
:100DD0009E61DE611060516015611D491D4A1561FB
:100DE0001160536073BDC046D0F1FF1FEC57000087
:100DF000E40400004C050000A45700005405000066
:100E0000591300005C050000640500006C0500003B
:100E100074050000C0F0FF1F7C0500008405000081
:100E20008C0500009405000088F1FF1FD4570000D6
:100E3000BCF1FF1FBC57000068F7FF1FF106000060
:100E4000005800001058000074F1FF1F2D580000DA
:100E500029580000A8F1FF1FF0B5040085B00E006E
:100E6000632904DD00252B4BC35CAB424ED01368D5
:100E700029491B68611810009847A023FF229B0096
:100E8000E254264B013AE254254AC3B2A354254901
:100E90000212D2B262549B18A122DB439200A354E7
:100EA000214B0522E654214B360AE6540023851DCA
:100EB000AA4206DCA02189005118615C01325B184E
:100EC000F6E7DB43144A05002018801803708023DE
:100ED00008359B009D420BDC8033E7183E00F31B76
:100EE0009D4213DD3178201D00F081FB0136F6E7CD
:100EF0000F4B01AA0193032313710E4B072193603B
:100F0000236820001B68012598476D42280005B022
:100F1000F0BDC0465C0500008702000081020000B1
:100F200082020000830200008502000086020000A9
:100F30008C570000E05800000300F0B56033040057
:100F400087B01800029302F0BAFC8B4A8B49A35871
:100F50000700C31A05928B4202D90022884BE25443
:100F6000A923DB00E258002A06D0AD22D200A25805
:100F7000BA4201D20022E2500023A9250393019333
:100F8000ED00E36F002B1ED1261D300000F002FAA9
:100F9000002821D17A4BE35C002B0AD0AC25ED0070
:100FA0006359784AFB1A934203D92000FFF7B6FD34
:100FB0006751039B002B00D0DCE0019B181E00D181
:100FC000AAE00320A7E0029802F079FCE36FC01BBF
:100FD0009842D9D902209EE0300000F0E3F90028C1
:100FE000D8DBAB23AB22DB00E35866590493D20075
:100FF000C318A350072E0ED1634AA358591CE318F7
:10100000A1508033614A1870A358013BA350002BB4
:10101000B7D108331AE0002E13D1FF2807D10123DE
:10102000AD2263513B00D2001433A350A9E70298CC
:1010300002F045FC564BC01B9842A2D9504BE654D7
:10104000C8E7012E0ED1FE2802D10223635198E792
:10105000002363514A4BE35C002B92D12000FFF741
:101060005DFD8EE7022E0AD10022484BE050464B30
:10107000E25003236351AB23DB00E05081E7032EF2
:1010800006D1424B0002E2581018E0500423DDE77D
:10109000042E0CD13F4A134003D53F4A013B134372
:1010A0000133FF2B01D1FA3BD0E70023CEE7052E19
:1010B00004D1AA23DB00E0500623DBE7062E0AD189
:1010C000AA23DB00E25800021018E0500723635106
:1010D0002E4BE3589BE7082E00D052E700226251C6
:1010E0002C4A134003D52C4A013B13430133FF2BF9
:1010F00000D046E7AA23DB00E358002B0ED12000E6
:10110000FFF70CFD2000FFF71DFDAC230120DB00E5
:10111000E750059BE750404207B0F0BD0A2B07D1CE
:10112000210020008031FFF773FD0123039328E79E
:10113000062B0AD1AE232100DB00E0188031FFF737
:101140004DFC0122154BE2541BE70B2B05D100226D
:101150000B4BE2540123019313E7D4339B00E318B4
:101160005868002800D10CE72100036880311B6813
:10117000984706E70420CEE764050000F82A00003F
:101180005C050000C4090000540500004C05000087
:1011900088130000FF00008000FFFFFF6C050000C7
:1011A00070B55B4D281DE96D02F0FDFBA9220023FF
:1011B000D200AB50574AAB50574AAB50043AAB50F1
:1011C00090219A00C9005218AA58002A00D090E035
:1011D00019002131514AFF3189007D336A509360F3
:1011E000D560002390219A00C9005218AA58002AFD
:1011F00000D083E019002131494AFF3189007D3355
:101200006A509360D560002346499A005218AA5844
:10121000002A78D11A003932FF3243499200AA18C5
:10122000643351604B60FA26404C414B760063605A
:10123000404BA360404BE360404B2361404B6361F4
:10124000404BA361404BE36140493448FFF778FAD3
:1012500021003348FFF774FA2800FFF76DFE3000D5
:1012600002F04AFC606803F0BBFA394A394B02F0DD
:10127000A7FF03F007FB6060A06803F0B1FA344AEF
:10128000344B02F09DFF03F0FDFAA060E06803F02C
:10129000A7FA2F4A2F4B02F093FF03F0F3FAE06016
:1012A000206903F09DFA2A4A2A4B02F089FF03F0D5
:1012B000E9FA2061606903F093FA254A254B02F0B0
:1012C0007FFF03F0DFFA6061A06903F089FA204A2A
:1012D000204B02F075FF03F0D5FAA061E06903F03E
:1012E0007FFA1B4A1B4B02F06BFF03F0CBFAE06165
:1012F000AAE70133192B00D062E772E70133192BFB
:1013000000D06FE77FE70133192B00D07CE78AE735
:10131000D0F1FF1F4C0500005405000074F1FF1FC1
:10132000A8F1FF1FE404000068F7FF1F88F1FF1F0A
:101330000000C8420000DC420000F042000002430E
:1013400000000C430000164300002043BCF1FF1FC7
:101350009A9999999999B93F10B50400024B08C020
:1013600000F06CF8200010BDEC57000070B50D685F
:1013700006000C002800064902F0ACFD3368044961
:1013800018183060280002F02BFE216070BDC046A6
:1013900000CA9A3B436B806B181A431E98417047F2
:1013A0000120704770B50400836B5A1C8263026B86
:1013B000806BD55CE36B591E02F012FE2800A1631E
:1013C00070BD10B5002801D01CC91CC010BD7047ED
:1013D00010B54468836861100268E00701D5585869
:1013E00082585818904710BDC36810B50400002BF0
:1013F00001D09B689847200010BD000070B5060022
:10140000084B0C3604000360002E08D005002C3574
:10141000B54204D0103D2800FFF7E6FFF8E72000B2
:1014200070BDC046345C000010B50400FFF7E6FF55
:10143000200002F08DFC200010BD000030B500251A
:101440000400124B85B0083303602A0069460395F7
:1014500002F0F8FA6846FFF7C7FF0122694620004C
:10146000039502F0EFFA6846FFF7BEFF2000403018
:1014700000F032F92000303000F02EF9044B20004B
:101480002360FFF7BBFF200005B030BD285A0000E5
:101490001C5C000010B50400FFF7D0FF200002F034
:1014A00057FC200010BD7FB50400251D280002F068
:1014B0004EF900281DD0626CA36C9A420FD0A36C29
:1014C0005A1CA264226CA06CD65CE36C591E02F01C
:1014D00087FD2800A164310002F045F9E5E700230B
:1014E000200001226946039302F0ACFA6846FFF738
:1014F0007BFF7FBD10B5140086B0039308AA064B8E
:101500001278049102A90593029402F09BFA02A8B2
:10151000FFF76AFF06B010BDB85900007FB51D0087
:10152000962304009B01089E02F022FA20000C4B37
:10153000290008332360303000F0E1F8310020004A
:101540006943403000F0DBF8002320000093054A97
:101550002100FFF7CFFF20002565666504B070BD50
:10156000285A0000CD15000030B5040087B00430C3
:1015700002F0EDF8002816D00025012202A9200073
:10158000059502F05FFA02A8FFF72EFF2000FFF793
:101590008AFF0123054A009321002B0020000292BC
:1015A0000395FFF7A7FF07B030BDC046A7140000A2
:1015B00010B5040043685A1C42600268D154E368C5
:1015C0004068591E02F00CFD616010BD70B5051D2C
:1015D0000400280002F0A4F8002807D0280002F038
:1015E000ABF8C1B220003030FFF7E2FF70BD70B53C
:1015F00005000C004030C9B2FFF7DAFF2800FFF702
:10160000B3FF200070BD70B506000D00081E11D09C
:101610000C00300021784030002903D00134FFF75E
:10162000C7FFF6E70A21FFF7C3FF3000FFF79CFF73
:10163000601B013070BDF8B505000E00081E12D009
:10164000002082420FD00C008F18BC4206D0280028
:1016500021784030FFF7ACFF0134F6E72800A41BE7
:10166000FFF782FF2000F8BD0EB408221C23F0B55E
:1016700086B002AFBA18D4186A4608CC05007B6061
:10168000036D00210733DB08DB00D31A9D4602AE51
:10169000026D300003F0A4FB220079683000FC608A
:1016A00003F084FE2B6D020083420CD200905D2279
:1016B0000748084900F048F90020BD4604B0F0BCD6
:1016C00008BC03B0184731002800FFF7B4FFF4E767
:1016D000EE590000C459000010B50400006800284D
:1016E00001D002F02FFB200010BD0300002110B537
:1016F000DA6841608160006803F072FB10BD70B56C
:10170000040008000D0002F011FBE56020602000DD
:10171000FFF7EBFF200070BD0748084A10B5121A0A
:10172000002103F05DFB02F0ABFA03F0FBFA02F0DC
:10173000AEFA02F0EFFAC04658F1FF1F9C110020EC
:1017400070B50D000400160001F0E0FB6B1C07D023
:101750000021200001F0FAFB3100200001F0F0FB35
:1017600070BD70B5436804000D00002A0AD0C2683D
:1017700013602000012101F0E9FB2900200001F0A5
:10178000DFFB70BD0269F3E710B50222FFF7D8FF57
:1017900010BD70B50D000400160001F0B7FB6B1C06
:1017A00004D0320000212000FFF7DBFF70BD10B530
:1017B0000022FFF7EEFF10BD004870475C5A0000A2
:1017C00010B5024800F004F810BDC0465C5A000095
:1017D000036870B5DB680400984763685A6823683B
:1017E000002A02D19B68984770BD5B6815689847CE
:1017F00063682D1A5A68002D07DC916859601B68D0
:10180000002BEAD050689847E7E7236810681B6907
:101810009847E9E710B503685B68984710BD00007A
:1018200010B50400431C0CD110BD9C4208D120000F
:10183000896801F007FD0021200001F023FDF3E796
:101840000C3100228B5E5A1CEFD1024800F07CF86C
:10185000EAE7C046A95A000010B5884208D0431CE8
:1018600006D04B1C06D0044800F06EF80121494216
:10187000080010BD0100FBE7785A000000228B5ED3
:101880005A1C01D1180002E0834201D14868704718
:101890000C31F3E710B50400431C07D0FFF7EEFF4F
:1018A0000400431C02D1024800F04EF8200010BD95
:1018B000895A000010B500F041F810BDEFF3108315
:1018C000012098437047000010B5FFF7F7FF72B68C
:1018D000064A1368002B04D101335840044BC0B2B0
:1018E0001870136813680133136010BD9CF7FF1F55
:1018F00098F7FF1F10B5094C2368002B0CD0FFF799
:10190000DDFF2368013B23602368002B04D1044BD7
:101910001B78002B00D162B610BDC0469CF7FF1F9C
:1019200098F7FF1F30B585B06D461824201C291C80
:10193000ABBE041C200005B030BD0000014B186890
:101940007047C046C4F0FF1F0FB4012010B502F06D
:10195000E1F9000010B588B0FFF7B6FF094902A809
:10196000FFF725FF9624039A059B20001A60019239
:1019700002F0C2F8039A069B20001A60019202F05E
:10198000BBF8F0E74810000010B501F0EFFA10BD09
:1019900010B5024B1B689847FBE7C046C8F0FF1F15
:1019A00010B50C4800F086FE02000B4B0B481A6085
:1019B00000F080FE02000A4B0A481A6000F07AFE2E
:1019C000094B186003F0AEF90021002002F05FF926
:1019D00010BDC046085B0000040C0020045B000042
:1019E000A8F7FF1F005B0000A0F7FF1F10B5FFF76F
:1019F000CFFF10BD10B5040000F0BCFD21000200B7
:101A00000148FFF7A1FF10BDC85A000010B502F051
:101A1000A3F910BD80220A490A4B10B55B1A920047
:101A20001800934200D91000074A1B1A074C136094
:101A3000CB18074A2360074B1060196010BDC046E1
:101A4000A01100200030002038090020B0F7FF1F4F
:101A5000ACF7FF1F3C09002000F012FFFFF7DAFF90
:101A60000348002100F0B8FE00F0FCFCFEE7000097
:101A7000CCF0FF1F012110B5024B4942186800F05D
:101A80003BFE10BDA8F7FF1F10B5024B186800F011
:101A90005DFE10BDA8F7FF1F027830B5013A8C78C3
:101AA0004368D2B2002B02D09D78A54208D24B6089
:101AB0004160022A07D8002B00D09960886030BDB1
:101AC00018005B68EEE700238B60F8E7436810B509
:101AD00004785968013C41600022022C06D89142EA
:101AE00001D088605A609A60180010BD5A60FBE708
:101AF000034B5A6842600022586082607047C046BB
:101B0000F8100020124A10B5D368002B13D0938A26
:101B1000D4688B420DD3C460D060C4680261002CCD
:101B200000D020615B1A9BB28382918ACB1A938288
:101B300008E0002C07D10024CB1AC460D0600261F9
:101B40009382848210BDA28A9B182200E0E7C046DF
:101B50001011002070B5194DEB68002B09D001263B
:101B6000AB8A013BAB82AA8A002A02D1EC68002C26
:101B700000D170BDA368002B08D06168596061680E
:101B8000002901D08B6062600023A36021000C4813
:101B9000FFF782FFA38AAB826378042B04D1094B41
:101BA000E28A1B689B18A3820022E3686670EB60E0
:101BB000934201D01D61E2602261D4E71011002040
:101BC000F81000208C1100208368002B06D042689A
:101BD0005A604268002A00D093607047044B5A68EC
:101BE000904202D142685A60F7E7131EF7D1F4E73A
:101BF000F810002070B584680500002C05D14378EA
:101C0000012B0CD1064C03E0A4682378002BFBD0F9
:101C10002800FFF7D9FF29002000FFF73DFF70BD26
:101C2000F8100020036910B5002B0DD0C268DA60EF
:101C3000C268002A09D0998A848A09199982136195
:101C40000023C3600023036110BD9A82FAE70000FD
:101C500070B5114AD478EFF31086EFF3108372B6A3
:101C600093789C4211D90133937013785D1CAC4278
:101C700000D100251570002E00D162B69C4206D915
:101C8000DB00D3185860996070BD002EF5D002209B
:101C9000FFF7B0FEF8E7C0467C0B0020032303707B
:101CA0000023438043608360C3607047F7B5438877
:101CB0000500FF20002B0BD0344AA968126801925E
:101CC000914205D1013B9BB26B80002B01D00020DB
:101CD000FEBD0B6A9D4235D1EB680B624B1DDB7F6D
:101CE0000C6A002C36D18B706A68294F002A3CD0D0
:101CF0002800FFF7EBFE0600210000F0CBF83000D3
:101D0000FFF790FF01236B80336AAE60EB601F4BDF
:101D1000356219687B688A789B7830009A420DD2C8
:101D20003800FFF7B9FE38003100FFF7B5FE012299
:101D3000164B20001B685A700123737000F090FE50
:101D4000C5E71300002BC9D0DA689542F9D1EA68DB
:101D5000DA60C3E76268002A05D09078021C9842D6
:101D600000D21A1CD3B2E468BBE77A6892789A4230
:101D7000ADD93800FFF790FE0122044B20001B680C
:101D80005A7000F06DFE2000A2E7C046441100200A
:101D9000F810002070B5428804000E00164D002A8D
:101DA00008D12B68196A8360C16018620020013273
:101DB000628070BD836829688B42F7D00120002EB5
:101DC000F7D08A789978914203D29A701800FFF779
:101DD00011FF6268002A09D029682000FFF75CFE25
:101DE0003000092100F05CFE0120E2E72B6863600F
:101DF0005A609C60F4E7C04644110020F7B5836A3E
:101E000001919B0802D1204B1B889B08066B9C000C
:101E10003419620700D5043C8027221F7F04176015
:101E20002700019A2500083F3A600022403D290022
:101E30009446624604C18F42FBD12200C769203A12
:101E40001760019AC56242630F4A12680192D2007C
:101E500012D5112B10D9103B5B08DB005B421A0036
:101E6000383AA4182A000949A24208D1EB180433D1
:101E70009E4201D2054A1A60054B3360F7BD083A0D
:101E800051601160F0E7C046105B0000CCCCCCCCB8
:101E9000A52E5AE2C36A19627047C36A19625A6270
:101EA00070470000064B1B78002B04D18022054BA5
:101EB00052051A6070470122034B1A70FAE7C046B8
:101EC0000408002004ED00E0050800201B4B70B55D
:101ED000186801234370FFF70BFE194C6578A3784F
:101EE000002B06D165701748FFF7F0FD00F09AFD52
:101EF00070BDEB00E31858680278002A14D1996885
:101F000089B200F0C7F9E37801359D4200D1002580
:101F1000EFF31083EFF3108272B6A278013AA27049
:101F2000002BDCD162B6DAE7012A03D1996800F010
:101F30003FF9E8E700F0C6FFE5E7C046441100209E
:101F40007C0B0020F8100020094B01201A68094B77
:101F500040421A600022084B1A60084B07321A6090
:101F6000FF23074A1B0611680B4313607047C046E6
:101F7000285B000014E000E018E000E010E000E062
:101F800020ED00E0704700000B4B10B518680123EE
:101F90004370FFF7ADFD00F0B1F9084A1368013353
:101FA0001360FFF7D7FD00F0BFFC0548FFF78EFD7B
:101FB00000F038FD10BDC046441100208C110020F7
:101FC000F8100020074B10B51A68136BD26A9342C1
:101FD00003D8054A1B68934202D00120FFF70AFD8F
:101FE00010BDC04644110020A52E5AE230B50300B2
:101FF000002A18DA072010245200520807328243C0
:102000000120002A16D015198D4213D859181C1911
:10201000504259601C609A600918A318994207D36E
:102020001B501C00F9E70320033282430C24E7E72E
:102030000020206030BDEFF3108272B601231A40F9
:102040000368002B01D019680160002A00D162B634
:10205000180070470300012099420CD35A6891423E
:1020600009D2EFF3108272B6186808601960002078
:10207000D30700D462B670470123037000231039E0
:102080008908437083704360038143818381C181E8
:102090007047000070B5150082890400002A3AD00C
:1020A0004389181D8000005901330860E1899BB203
:1020B0006381994201D1002363816368002B1ED0A4
:1020C0006378022B1BD12000FFF700FD05000021E3
:1020D000FFF7E0FE2389E9691A1D920011510133CF
:1020E000E2899BB223819A4201D1002323812800F7
:1020F000FFF798FD280000F0B3FC002070BDEFF35F
:102100001083EFF3108172B60020013AA28183425E
:10211000F4D162B6F2E70120002DEFD06268094BDE
:10212000002A09D019682000FFF7B6FC2800082112
:1021300000F0B6FC0120E1E71B6863605A609C6018
:102140006070F3E744110020C3898089181A704732
:1021500010B5FFF77DFDFFF7A5FE10BD10B504001B
:1021600083890020834222D0638904339B001B595A
:102170000B606378022B05D101002000FFF768FD9A
:10218000FFF790FEEFF31083EFF3108272B6A2898F
:10219000013AA281002B00D162B66389E289013342
:1021A0009BB2638104209A4201D10023638110BD58
:1021B000436870B504000D00002B4AD04678022E0B
:1021C0001FD0032E0AD0012E42D1FFF77FFC04005E
:1021D0002A001021FFF761FE66700DE00800FFF78E
:1021E0002AFF051E34D02000FFF770FC29000400F0
:1021F000FFF750FE012363702000FFF713FD21005D
:1022000023E0FFF763FC05000021FFF743FE23896D
:10221000E9691A1D92001151EFF31082EFF310815A
:1022200072B6A1890131A181002A00D162B60133C1
:10223000E2899BB223819A4201D1002323810123A9
:1022400028006B70FFF7EEFC29001148FFF724FC13
:1022500070BD8289C089824215D22389191D8900E7
:102260000D51EFF31081EFF3108572B60132A281A8
:10227000002900D162B601339BB2984201D023817C
:10228000E6E70023FBE70320FFF7B4FBE0E7C046E7
:10229000F810002010B5038B427819430400018325
:1022A000438B062A14D11A000A4093420FD1994356
:1022B00021832000FFF7B6FC012308212000637072
:1022C000628BFFF7EAFD21000548FFF7E5FB10BD33
:1022D000052AFCD11A000A40F9D04283E7E7C0463C
:1022E000F81000200022034B1A60034A1268DA80BB
:1022F0007047C046301100200C5B000010B50D4B3C
:102300000D4C186862680D49904205D01A60DA8851
:102310000868013A82189A8098880A88904208D101
:10232000002220001A60FFF7D1FB01002000FFF718
:10233000B3FB10BD30110020F81000208C110020DC
:10234000002230B50B4C2368002B0AD1036081605A
:10235000002B02D09D68691A9960002A08D010608D
:1023600030BD9D68A942F1D31A00491B1B68EBE7F9
:102370002060F5E740110020002313B502009842C9
:1023800015D0431C15D00C4C0C49230088420ED8A4
:10239000FA200B4B800050431B680193013BC0188F
:1023A000019901F097FD2300A04200D883B21800E4
:1023B00016BD044BFBE7C046FEFF000000093D00D0
:1023C000C45A0000FFFF0000002806D0830705D193
:1023D00003785A4253415B42184070470020FCE7A3
:1023E000B0B50F4D00AF2878002815D10D4C2368EB
:1023F0000533D97F00F076FB2368DA78FF2A03D112
:10240000DA6A203282F309886268002A00D10CC49B
:1024100000F01CFD01232B70BD460020B0BDC0465E
:102420003D11002044110020014B18787047C04630
:102430003D11002090B5EFF31084002C07D1EFF38D
:102440000584002C03D1EFF31484E40702D4034B7A
:10245000187890BD024FBC4600DFFAE73D1100201E
:1024600029240000F0B589B000AFEFF31083822576
:10247000002B3AD1EFF30583002B36D1FFF7DAFFBB
:10248000002807D11B4C2468002C03D06468002C62
:1024900000D0A047EFF3148403263440022C18D058
:1024A000B4421DD0FF25012C1FD020243C1984F3F9
:1024B0000988114C2478E4070FD5022484F314888A
:1024C000BFF34F8FBFF36F8F0C4FBC4600DF05008B
:1024D0000BE0094C2478E407F6D486F31488EFE780
:1024E000054CFF252478E407EED52800BD4609B049
:1024F000F0BDC0462C110020F25A0000E12300007C
:1025000070B50B001500002802D10024200070BD1A
:102510000668002EF9D00422845EE21C92B2062ADC
:10252000F3D80022C168914200D002690434090244
:102530002143300000F016FB0028E6D00A4B01389A
:102540008000C458094AE36A5A63094B1B68002B90
:1025500007D09B68002B04D0E07829009847E063FF
:10256000D4E7E563D2E7C046600B00201D270000DA
:102570002C11002010B500F0ADFA031E03D0013875
:10258000024B8000C358180010BDC046600B0020ED
:1025900010B5FFF719FF8023041E0FD0084B1B68EE
:1025A000002B04D0DB68002B01D0C06B9847E0788B
:1025B00000F02AFB8123FF2800D00023180010BD63
:1025C0002C110020002310B5984204D0FFF7D4FE50
:1025D00000F072FC4023180010BD0000B0B50500EB
:1025E000EFF310848220002C07D1EFF30584002C38
:1025F00003D12800014FBC4600DFB0BDC525000057
:10260000830706D1002807D0436901691B681800B9
:10261000704700231900FAE70300FBE790B50400B8
:102620000800034FBC4600DF20606160200090BDC1
:102630000126000010B5031E0AD00468231E07D02F
:10264000002322789A4203D12000FFF727FB2300C2
:10265000180010BD70B5032405000E00044080234F
:10266000002C12D1002810D00278032A0DD10800C6
:10267000FFF782FE01002800FFF78CFB23000128F2
:1026800003D1C133002E00D1403B180070BD10B5FE
:102690000324802304400AD1002808D00278032AAA
:1026A00005D1FFF703FB8123FF2800D0230018008A
:1026B00010BD0000F8B50500EFF31086002086423B
:1026C0000FD1EFF305843000002C0AD1EFF3148012
:1026D000C00707D406480078002803D12800FFF778
:1026E000A9FFF8BD2800034FBC4600DFF9E7C0464C
:1026F0003D11002035260000B0B50500EFF3108431
:102700008220002C07D1EFF30584002C03D1280090
:10271000014FBC4600DFB0BD55260000012108482E
:10272000B0B549420068FFF7E7FF064FBC4600DF3F
:102730000400FFF76BF92000034FBC4600DFFEE703
:10274000381100207525000091250000B0B5050066
:10275000EFF310848220002C07D1EFF30584002CC6
:1027600003D12800014FBC4600DFB0BD8F2600001A
:10277000F7B5060000910192EFF310820024A24207
:1027800010D1EFF305831400002B0BD1EFF314836A
:10279000DB0709D40D4B1B78002B05D1019AFFF7FD
:1027A000AFFE04002000FEBD0121094D494228680A
:1027B000FFF7A2FF30000099019A064FBC4600DFE8
:1027C00004002868FFF7C2FFECE7C0463D11002077
:1027D000381100200125000010B50022FFF7C8FFC6
:1027E00010BD10B50300041E0FD001680B1E0CD0E5
:1027F0004068031E09D0002302789A4205D10431B3
:10280000890089B2FFF738FC6368180010BD00002A
:1028100070B5124D2B78002B01D100F09BFAFF22EE
:102820000F4B2C781B689A70002C11D121000D4899
:10283000FFF7D7FF0C4B2200186021000B48FFF771
:102840005FFE0B4B18600B48FFF734FF0A4B186014
:10285000012300202B70094B187070BD3C11002023
:1028600044110020F85A0000000C0020145B000006
:10287000F41000202C5B0000381100203D110020D6
:10288000B0B5EFF310858224002D0AD1EFF3058552
:10289000002D06D1EFF31484E40704D4FFF7B8FF4A
:1028A00004002000B0BD024FBC4600DFF8E7000086
:1028B0001128000030B5040085B00D00002817D0A5
:1028C0000378012B14D10800FFF756FD02A902007E
:1028D0002000FFF7DFFB012808D12800451EA84192
:1028E000800102990022130005B030BD1020F8E7E6
:1028F00080200021F6E770B5802304000E0015004B
:1029000000280ED0002A0CD10278012A09D1FFF745
:102910001BFC8123002804D031002000FFF718FCA5
:102920002B00180070BD0000F8B5124E3468002C62
:1029300006D00127A368013BA360A268002A00D04B
:10294000F8BD0D4B2568210018683560FFF7D3FFEF
:10295000002802D00420FFF74DF86379012B07D13E
:10296000E1682000FFF7ECFC002DE9D02C00E4E743
:102970002771F9E740110020000C00207FB504000A
:102980001600081E01D0002A04D0802323602000F6
:1029900004B070BD0B78012BF7D102A901ADFFF790
:1029A000DDFB042804D00196230007CD07C3EEE722
:1029B00010230193F8E70000B0B504001500EFF311
:1029C0001080002803D1EFF30580002805D02A00ED
:1029D0002000FFF7D3FF2000B0BD08001100034F17
:1029E000BC4600DF20606160A260F4E7B52800000B
:1029F00010B5012486B06442094B2200196803A86F
:102A0000FFF7DAFF039B102BF6D1049901A8FFF71B
:102A100005FE019B002BEFD002989847ECE7C046DB
:102A2000000C0020074B10B5586002234370064B82
:102A30001B68002B04D01B69002B01D0C06B98478A
:102A400010BDC046441100202C11002010B50348D1
:102A5000FFF73CF8FFF7E6FF10BDC046F810002076
:102A600070B5041E02D1FFF7F1FF70BD0A4EA278C7
:102A70003068012583789A4207D9FFF739F833681F
:102A800020005D70FFF7CEFFEFE76570210003487F
:102A9000FFF702F8E9E7C04644110020F8100020D3
:102AA00070B50D0000280ED0074B084C984203D09B
:102AB00001002068FFF726F8236805485D70FFF7DE
:102AC00005F8FFF7AFFF70BDFFFF000044110020C5
:102AD000F8100020024B1B68181E00D0D8787047F1
:102AE0004411002010B5002816D11A4B1B689970AC
:102AF0000533D977184843689B788B4202D8002267
:102B0000100010BD134C2168FEF7C6FF0122236898
:102B10005A70FFF79BFFF2E7104BFF221B88984289
:102B2000EED8431E0E489B001C58002CE8D0631DB5
:102B3000A170D977074B1B689C42DBD02000FFF7C0
:102B400059F86378012BDAD10348FEF7BFFFFFF78E
:102B500087FFD4E744110020F8100020F45A000049
:102B6000600B0020F7B51F00CBB215005A4253414D
:102B700000902148CE18FFF75EFA041E02D100250E
:102B80002800FEBD056301251C4B320A19888262AC
:102B90008D42F4D86B1E01931948AB00043BC35817
:102BA000002B01D00135F3E70121F6B26170611D00
:102BB000E570E761A7632370A670CE77A11D6360FF
:102BC000A360E36023612362A382E38223836383A0
:102BD000CB77002A03D10B48FFF72DFA20632000A2
:102BE0000099FFF70BF96B1E054A9B002000D4509B
:102BF000FFF736FFC4E7C046280F0020F45A000054
:102C0000600B002050090020F7B54C4D002803D080
:102C10002B68DB78984240D100232C680127637031
:102C200001F0ABF8E062FFF7CDF92B681C6A002CCD
:102C300013D12A684249D3784248013B9B005C503B
:102C4000116BFFF707FA29683F480C63FFF702FA98
:102C50002C60FFF7FBFE2000FEBD6368002B16D042
:102C60002000FEF733FF06000021FFF713F93000C4
:102C7000FEF7D8FF777031003448FEF70DFFE368A8
:102C8000326A6780A660E26034621C00CFE7E268C7
:102C90006380A360E3601400C9E72D4BFF241B8809
:102CA0009842D8D8013883000193019A244BD65812
:102CB000002ED0D03000FEF787FF3000FEF7B2FFC5
:102CC000346A002C17D11E4B019A316B1D489C5061
:102CD000FFF7C0F9310034631B48FFF7BBF91B480D
:102CE000296843689A788B789A42B4D901234B704B
:102CF000FEF7D2FEADE76368002B18D02000FEF788
:102D0000E5FE07000021FFF7C5F83800FEF78AFF4F
:102D1000012339007B700D48FEF7BEFE0122E368F7
:102D200062803A6AA760E2603C621C00C9E7E26820
:102D30006380A360E3601400C3E7C0464411002031
:102D4000600B002050090020280F0020F810002000
:102D5000F45A00002D4B70B5198800231C002C4834
:102D60008B424ED32B4B402219882B48FFF73EF95C
:102D700080222A4B12061B88294E1A43294B300009
:102D80001968FFF733F9284B08221988274B0025CB
:102D90001868FFF72BF9FF23254C3000E370FE3B4A
:102DA0006370631DDD77A31DDD77A5622570A570B7
:102DB0006560A560E56025612562A582E5822583C1
:102DC0006583FFF738F91B4920632000FFF716F8E9
:102DD0000422194B20001A705D60184B1A70DD60D8
:102DE0001D619D82164B1C6002236370FFF71AFE63
:102DF000144A154B12781D705D70DA70FFF772FA85
:102E000070BD9A00121814600133A9E7F45A00004B
:102E1000600B0020C05A0000280F0020105B00004B
:102E200050090020BC5A0000C25A0000A4F7FF1F3E
:102E30004C110020ED190000F810002010110020A6
:102E400044110020F15A00007C0B0020FF22154B9A
:102E50001204196810B50A431A601B68124A5B0213
:102E600011689B0E9B060B431360FFF76DF80F492B
:102E70000860002815DB83080D4A9B009B18182268
:102E8000C0001040E73282401C6822431A600A6882
:102E9000084953099B005B181F210A401E399140C5
:102EA000196010BD20ED00E01CED00E028110020AD
:102EB00000E400E000E100E010B50321FFF7F0FDC1
:102EC00010BD0000436810B5002B0ED0FEF7FEFDCC
:102ED0000400FEF7A7FE012120006170FEF7DAFF73
:102EE00021000448FEF7D8FD10BD4388013343801C
:102EF000FAE7C046F810002010B50400012100F0E8
:102F0000A1F901206406E40EA04010BD70B50500D3
:102F10000C0029804B1C0FD00800FFF7EDFF074B7A
:102F2000240BE418A401231DEB6004332B6114343B
:102F3000083368606B61AC6070BDC046C03FE003A1
:102F400010B50023C05E00F09DF910BD002902D02D
:102F5000012906D070478268416813688B4313606B
:102F6000F8E78268416813680B43F8E72A22034BAD
:102F70001A700022024B1A6130BF704700E0074010
:102F800000ED00E00022064B1A609860196840329C
:102F90000A431A60012219680A431A607047C04642
:102FA0000000044080230D4A70B511680C4D0B439E
:102FB00013602C68002C05D00A48013CFFF7E2FFA3
:102FC0002C6070BD084D2888002803D0FFF7DAFF79
:102FD0002C80F6E7FEF7F4FBF3E7C0460000044060
:102FE0001C080020FFFF000020080020F7B5684BF8
:102FF0001A680192002A00D08FE001241C6080230F
:10300000644E654A1B04B158644D0B43B350019A9A
:10301000634B644F1A6001235B426B610533EB61C4
:10302000EB692343EB61604B3868F1580723090CC7
:103030001940091900F04EFF5C4B5D49C01800F0C3
:1030400049FF5C4A01386860EC60B3585A4D23432D
:10305000B350019B1C202B60584900F0E9FB8022F3
:10306000574B52051A603F224F4B3F68F058554E60
:10307000000F3378001947439343802B33D03378C4
:10308000934364D173795B0653D4B379DB065ED482
:103090003378383ADB087178134029329C4011426A
:1030A00003D0FF2364015B011C401F22F37893438C
:1030B000602B35D007D8202B0ED0402B2ED0002BE4
:1030C00035D1A02106E0A02B2DD0C02B2DD0802BF8
:1030D0002DD1B721890001E0A021C900200078434B
:1030E00000F0F8FE0700002F31D03149380000F021
:1030F00077FF0C1E2BD12E49380000F0EBFE072382
:10310000012842D021000123400801281AD1782348
:10311000C9001940753B19436960F7BDF021DCE730
:10312000A0210901DAE7B721D7E72749D6E72749E0
:10313000D4E71F2330797179184001301940784362
:103140001831CDE7184202D101314008DDE70223F2
:103150003278134333700123727813437370002362
:103160000E226B60337A13400AD0022B0CD0337AD4
:10317000934333720423327A1A4332726A6801E04D
:1031800008236A68134300E06B686B60C5E7C046BC
:1031900018080020007004403C100000FC70034040
:1031A00000700340E0F0FF1F4410000020A1070062
:1031B00040420F003810000000000440A52F00001E
:1031C00000E100E00040064095080000710B00009F
:1031D000054B10B51B68002B01D1FFF707FF034B10
:1031E0009869C04310BDC04618080020FC70034019
:1031F0004021024A13688B4313607047000004406B
:103200007047000070B50400FFF7E2FF201A0028A5
:1032100000DC0120084D094E041480B22C6030807F
:10322000002C05D00648013CFFF7ACFE2C6070BDB9
:10323000FFF7A8FE3480FAE71C08002020080020D1
:10324000FFFF0000030BF0B51F0001220937BA4051
:10325000084D094C09022E5932432A51074A9B183E
:103260007C221B03104018180368054A13401943B9
:103270000160F0BD007004403810000049000400F7
:10328000FFF8FFFF0322034BC01803689343194361
:1032900001607047009004403F2100200E4A10B5A5
:1032A00013788B4383420FD10C490D4B58580D496D
:1032B000000F09680130484351790B4A490604D48C
:1032C00099580A4C2140995010BD80219C584902C0
:1032D000214399504008F7E70040064044100000A1
:1032E00000700440E0F0FF1F04100000FFFFFEFF2D
:1032F00070B50A4D8C000600605900280DD073B2DD
:10330000002B03DA064B01211B689847B30604D54E
:10331000034B00211B682859984770BD28080020DE
:103320002408002010B5034B01211879C0B2FFF723
:10333000DFFF10BD00B0064010B5034B0221187925
:10334000C0B2FFF7D5FF10BD00C0064010B5074C56
:1033500000212079C0B2FFF7CBFF082322791A425F
:1033600002D022791343237110BDC04600A006404D
:10337000F7B50D000C2103680600DC780C400194C1
:10338000DA788A43DA70414A934200D073E0FFF75B
:1033900083FF002814D0FFF77FFF290100F09AFD7A
:1033A0001F253268030A11782B40A9430B43137081
:1033B000C0B253785070D378019C1C43D470F7BDD1
:1033C000334B344AD758344B3F0F1A683F230137E9
:1033D0005743324A9C46117899431300802953D0B1
:1033E00064461178A143D8D1517949063AD49279EB
:1033F000D206D2D419785A78890694460122490F08
:103400008A4030206146014203D0FF215201490128
:103410000A401F21DB788B43602B1AD007D8202B62
:103420000ED0402B13D0002B1AD1A02106E0A02BE8
:1034300012D0C02B12D0802B12D1B721890001E00D
:10344000A021C9007A43100000F044FDA5E7F02157
:10345000F7E7A0210901F5E7B721F2E71049F1E705
:103460001049EFE71F2310795179184001301940B6
:1034700078431831E8E7064B064AD158064B490312
:10348000490F01311868DFE7380086E700A00640E1
:103490004410000000700440E0F0FF1F00400640B0
:1034A00095080000710B0000F0B50C270168C87882
:1034B000CE783840BE43CE70012A15D0002A13D0F2
:1034C000022A14D064002C43E4B28C7020240A78C1
:1034D000013BA2430A700A785B011343DBB20B7015
:1034E000CB781843C870F0BD15001400EAE700253A
:1034F0000124E7E7F8B50E00040049493000170041
:10350000FEF7C8F9474905003800FEF7C3F9010086
:103510002800FEF7A1F9444B05002060984200D135
:103520006CE0424B984200D170E0414B984210D180
:10353000FFF7B2FE3F4B404A00285BD080219858ED
:10354000C9040143995080223C49D2005858024393
:103550005A500C212368DA788A43DA700822D97825
:103560000A43DA70402219791142FCD00C21DA7832
:103570008A43DA702C4B9D424ED02C4B9D424DD04D
:103580002B4B9D4201D100236360962120008901CD
:10359000FFF7EEFE0123002208212000FFF784FF41
:1035A0001F493000FEF73CF91E493800FEF738F994
:1035B000731C08D0082322683000D1780B43D370E5
:1035C0000221FFF75FFE7B1C08D00423226838002D
:1035D000D1780B43D3700221FFF754FE144B9D4268
:1035E00007D10122164B21001A601648073201F05C
:1035F000DCFBF8BD802198580905A2E780230D491E
:103600000E4A1B01885803438B50A2E780230949C7
:103610000A4A5B018858F6E70123B5E70223B3E7BE
:103620009C5B0000305B000000B0064000C006401C
:1036300000A0064000700440041000003410000098
:103640003408002090110020034B1960436803499F
:103650009B005A507047C0462408002028080020CC
:103660000368274810B5834216D02648834216D0F7
:103670002548834216D10C242448002A1DD0002955
:1036800013D0012916D00100200000F0D1F8012349
:10369000A3401F4A136010BD1E480D24EDE71E48CD
:1036A0000E24EAE700200400E7E72022D9780A4345
:1036B000DA70E8E7DA788021F9E7002904D00129F7
:1036C0000BD0002904D00CE02021DA788A43DA708C
:1036D000DB785BB2DB43DB0F07E07F21DA780A405F
:1036E000DA70DA78012352099343002BD3D00123F7
:1036F000A3400A4AD367BFF34F8FBFF36F8FCAE768
:1037000000B0064000C0064000A006404D33000057
:1037100000E100E0253300003933000004E100E05F
:10372000082203681979114202D019790A431A71E3
:10373000187920231840704710B504002000FFF7C7
:10374000EFFF0028FAD02368D879C0B210BD082254
:1037500003681979114202D019790A431A7118794C
:103760007F239843704770B505000C002800FFF7D1
:10377000EEFF0028FAD02B68E4B2DC7170BD7FB593
:1037800010216846FEF700F807B000BD882200202F
:103790001F4B520110B5985080221E4992005C5870
:1037A00022435A501C491D4A1D4C99501D4B996C7F
:1037B00021409964DA6C1F212240DA6489221A4B75
:1037C0001A701A4B653A5A7076321A70DA780A40D3
:1037D000DA7001221A7158710F3299791142FCD1B5
:1037E0000C219A790A40082AFBD10C2138325A71EF
:1037F0009A790A40082AFBD1383299791142FCD0D3
:103800001A220C211A709A790A400C2AFBD110BD99
:103810000070044038100000000001104410000047
:10382000FFF8FFFE009004400050064000400640B4
:103830000A4AF0B5936895681C00002D0AD11D0056
:10384000074CC035E61A1F68F7500433AB42FAD173
:103850009460034C103080000151F0BD00ED00E099
:1038600000F0FF1F10B50400FEF72EF82368002BB0
:1038700005D1E068FDF7CEFF012360602360FEF70D
:1038800039F810BD70B50500FEF71EF82C68002C45
:1038900004D0E868FDF7BEFF6C68041BFEF72AF849
:1038A000200070BD70B50500FEF70EF82800AC686A
:1038B000FFF7E8FF2418FEF71DF8200070BD10B5D3
:1038C000FFF7F0FFFA21890000F08EFB10BD10B564
:1038D0000400FDF7F9FFE068FDF79CFF002360603E
:1038E000A360FEF707F810BD002310B50360436026
:1038F00083600400FDF760FFE0602000FFF7E7FF52
:10390000200010BD10B50368984710BD002801D0F5
:103910000B6803607047704770B504000D00884263
:103920000CD0FDF761FD002C08D0EB68002B03D014
:103930005B68290020009847EB68E360200070BDB9
:103940007047000010B50400034B08330360FDF717
:1039500055FD200010BDC046145C000010B50400E9
:10396000FFF7F0FF200000F0F3F9200010BD000089
:1039700010B5040000F028F8024B20000833236043
:1039800010BDC046145C00007047704770470B01C3
:10399000013110B5090141188A680C33C318126847
:1039A0001800904710BD70B504000D0003681B6837
:1039B00098472900201DFFF7DBFC2368E5625B6860
:1039C0002000984770BD0000F0B587B00192194AF9
:1039D0000400083202600022174E184DC362426094
:1039E0008260826182620F000C3002A90595029606
:1039F000FFF792FF02A8FDF7F7FC200002A91C3098
:103A000005950296251DFFF787FF02A8FDF7ECFC40
:103A1000019A39002800FFF76DFDE16A2800FFF7E1
:103A2000A7FC280022000649FFF70EFE200007B081
:103A3000F0BDC0462C5C000089390000085C000025
:103A40008F390000F0B50F0004001500036887B03F
:103A50001B689847FDF738FFFB6828010193261D76
:103A6000002B11D00C3020183900FFF755FF012230
:103A700029003000FFF7F4FDFDF73CFF236820002C
:103A80005B68984707B0F0BD064B0C300293064BBD
:103A900002A920180593FFF73FFF02A8FDF7A4FC39
:103AA000019AE5E789390000085C000010B501F0D3
:103AB000E9F910BD10B501F043FA10BD10B501F0E1
:103AC00097F910BD70B50400FFF782FBFA210500DD
:103AD0008900200000F088FA061E03DDFDF7EEFEE7
:103AE000002805D1FFF774FB401BA042FAD370BD3C
:103AF000300000F03BF9F5E7FA2310B59B0058437E
:103B0000FFF7E0FF10BD0000084B10B51B68002B4D
:103B10000AD1074C082120000422FFF7EBFC962174
:103B200020008901FFF724FC10BDC04634080020A6
:103B3000901100207047000010B50400022801DC3D
:103B4000002010BD00F046FF092300220360033C63
:103B5000084BA400E058E250904208D003681B696B
:103B60009847041EECDA00F035FF6442046001203F
:103B70004042E6E73808002070B506000D0014004A
:103B800000F028FF09230360022E0EDC124B1B6895
:103B9000002B01D1FFF7B8FF2E19B54216D02978B6
:103BA0000E48FFF7E0FD0135F7E7033E0C4BB6008A
:103BB000F05800280CD003682200DB6829009847E1
:103BC000041E03DA00F006FF63420360200070BDAC
:103BD00001246442FAE7C046340800209011002016
:103BE0003808002070B504000D00160000F0F2FE49
:103BF00009230360022C0CDC104B1B68002B01D145
:103C0000FFF782FF0E48FFF797FD01242870200080
:103C100070BD033C0B4BA400E05800280BD0036898
:103C200032009B6829009847041EF0DA00F0D2FEAB
:103C300063420360EBE701246442E8E734080020B4
:103C4000901100203808002070B504000D00160007
:103C500000F0C0FE092303600020022C0ADD033CB3
:103C6000064BA400E058002805D003683200DB6949
:103C70002900984770BD01204042FBE7380800202A
:103C800010B5FFF757FFFDF7E7FE10BD704710B501
:103C9000FFF7FCFFFDF784FA10BD00000C4910B5DA
:103CA0000B681818EFF30882904205D30C2201200C
:103CB000084B40421A6010BD074A1468002C04D01B
:103CC000064A126812199042F0D208601800F2E712
:103CD000E4F0FF1F98110020380900203C09002063
:103CE00070B50A4C05002368986800F02FFF236820
:103CF000D86800F02BFFFDF7DDFD002801D0FDF7AF
:103D000011FE002D01D0FDF725FEFEE7E8F0FF1FB4
:103D10000120704710B5FFF7E3FF10B5FDF7AAFECD
:103D200010BD10B5FDF7B0FE10BD000010B501F0DC
:103D30001DF8041E02D10248FDF706FE200010BD4A
:103D4000445C000010B5002801D001F019F810BD46
:103D500010B5FFF7F7FF10BD034B10B51B68002B24
:103D600000D0984710BDC0464009002010B5FEF7AE
:103D700035FC10BD80F309887047EFF30980704768
:103D8000684680F309884A480078C00703D10320B9
:103D900080F314887047022080F314887047454BE5
:103DA0009C46EFF305831B0605D1EFF31483DB0775
:103DB00001D000DF704760473F4B9C46EFF305831F
:103DC0001B0605D1EFF31483DB0701D000DF70473A
:103DD0006047EFF3098081690239097800292BD106
:103DE000A6461FC8A4467446E047EFF3098307C3FD
:103DF000324B06CB91421CD0083B00290DD0EFF38B
:103E000009802038C862F0C044464D4656465F4699
:103E1000F0C00CB4FEF7D6F80CBC1A60D06A1030B3
:103E2000F0C8A046A946B246BB4680F309882038B0
:103E3000F0C80220C043004710B5214A12689142E1
:103E400009D8204C89006458A6461FC8A446F047EC
:103E5000EFF309840FC410BDFEF738F8174B06CBFB
:103E600091421AD0083BEFF309802038C862F0C0B5
:103E700044464D4656465F46F0C00CB4FEF7A2F8E5
:103E80000CBC1A60D06A1030F0C8A046A946B246F1
:103E9000BB4680F309882038F0C80220C0430047A1
:103EA000FEF772F8DAE7FEF76DF8FEF76DF8D5E782
:103EB000F25A000037200000552000004411002075
:103EC00000000000FCFFFFFFFEE7FEE7FEE7FEE765
:103ED000FEE7FEE7002243088B4274D303098B42BE
:103EE0005FD3030A8B4244D3030B8B4228D3030CCA
:103EF0008B420DD3FF22090212BA030C8B4202D36C
:103F00001212090265D0030B8B4219D300E0090A93
:103F1000C30B8B4201D3CB03C01A5241830B8B429C
:103F200001D38B03C01A5241430B8B4201D34B0385
:103F3000C01A5241030B8B4201D30B03C01A5241EA
:103F4000C30A8B4201D3CB02C01A5241830A8B426F
:103F500001D38B02C01A5241430A8B4201D34B0258
:103F6000C01A5241030A8B4201D30B02C01A5241BC
:103F7000CDD2C3098B4201D3CB01C01A5241830970
:103F80008B4201D38B01C01A524143098B4201D3AA
:103F90004B01C01A524103098B4201D30B01C01AD5
:103FA0005241C3088B4201D3CB00C01A524183084F
:103FB0008B4201D38B00C01A524143088B4201D37C
:103FC0004B00C01A5241411A00D2014652411046DC
:103FD0007047FFE701B5002000F0F0F802BDC046D1
:103FE0000029F7D076E7704703460B437FD40022C1
:103FF00043088B4274D303098B425FD3030A8B427D
:1040000044D3030B8B4228D3030C8B420DD3FF22E6
:10401000090212BA030C8B4202D31212090265D0B4
:10402000030B8B4219D300E0090AC30B8B4201D367
:10403000CB03C01A5241830B8B4201D38B03C01AAE
:104040005241430B8B4201D34B03C01A5241030B25
:104050008B4201D30B03C01A5241C30A8B4201D3D6
:10406000CB02C01A5241830A8B4201D38B02C01A81
:104070005241430A8B4201D34B02C01A5241030AF8
:104080008B4201D30B02C01A5241CDD2C3098B42DD
:1040900001D3CB01C01A524183098B4201D38B015A
:1040A000C01A524143098B4201D34B01C01A5241FD
:1040B00003098B4201D30B01C01A5241C3088B4242
:1040C00001D3CB00C01A524183088B4201D38B002D
:1040D000C01A524143088B4201D34B00C01A5241CF
:1040E000411A00D201465241104670475DE0CA0FA6
:1040F00000D04942031000D34042534000229C4666
:1041000003098B422DD3030A8B4212D3FC2289016F
:1041100012BA030A8B420CD3890192118B4208D345
:10412000890192118B4204D389013AD0921100E0A7
:104130008909C3098B4201D3CB01C01A52418309BB
:104140008B4201D38B01C01A524143098B4201D3E8
:104150004B01C01A524103098B4201D30B01C01A13
:104160005241C3088B4201D3CB00C01A524183088D
:104170008B4201D38B00C01A5241D9D243088B42E3
:1041800001D34B00C01A5241411A00D20146634686
:1041900052415B10104601D34042002B00D54942EA
:1041A000704763465B1000D3404201B5002000F029
:1041B00005F802BD0029F8D016E770477047C046E1
:1041C000F8B54546DE4657464E460C03E0B54E0070
:1041D000C90F88460D00610A440F0C43C70019033C
:1041E0005800DB0F9B464B0A510F0B43760D400DD9
:1041F0001900D200D84500D1AEE0351A002D00DC00
:10420000F6E000280FD1134300D1DBE06B1E002B3A
:1042100000D037E1BA1A9742BF41641A7F42E41BCB
:104220000126170024E0C64B9E424DD080231B047C
:104230001943382D00DD07E11F2D00DD38E1202076
:10424000431B9A460B00504683409946130048464C
:10425000EB401843030050468240501E8241E94023
:104260001A43BA1A611A9742A441170064420C1B00
:10427000230262D56402650A002D00D1DFE0280028
:1042800000F08AFB0300083B1F2B00DDD2E0202258
:104290003C00D21A9D40D4409F4025439E4200DD01
:1042A000C4E09E1B731C1F2B00DDF1E020223800B0
:1042B0002900D21AD840914097402C000143781E23
:1042C0008741DC4000260F437B0709D00F233B408A
:1042D000042B05D03B1DBB42BF417F42E4191F00A8
:1042E00023022CD5964B01369E4200D19AE04546DA
:1042F000944BFF081C406007760564020743240BBB
:10430000760D00212403230B0C0D8F4A24051C433A
:104310001440330523435B00ED075B082B43380053
:1043200019003CBC90469946A246AB46F8BD64468F
:10433000044300D111E2040067467B07C6D145461D
:104340006007FF080743E4087D4B9E4230D02403FA
:104350007605240B760DD4E7331A9A46002B78DDC8
:10436000002831D076488642AED080200004014338
:104370005346382B00DCE9E00A43511E8A410021F4
:10438000D219BA42BF4109197C4217000C19230205
:10439000D3D56B4B01369E4200D13AE10120694BE7
:1043A0001C407B0807401F43E007074364088BE776
:1043B00023003B4300D1CBE18022120314432403AA
:1043C000240B9EE72E007FE70800104300D1B4E0E5
:1043D000581E002800D0DEE0BA18BA429B4164188B
:1043E0005B42E418170001262302A6D50226D5E772
:1043F000002D6ED1701C4005400D012800DCF9E055
:10440000B81A844687428041E51A40422D1A280294
:1044100000D489E0D71BBA4292411C1B5242A51A14
:10442000D84629E74546002400276AE7454CF61A96
:104430002C4049E73D002838854000272EE738000A
:1044400000F0AAFA20301DE70A43511E8A410021DC
:1044500007E7002B00D0F3E0701C43055B0D012B38
:1044600000DCADE0364B984200D1D1E0BA18BA4238
:10447000BF4164187F42E419E707520817436408F4
:10448000060021E72E48854200D193E01D00D0E6CA
:1044900029001F3EF140202B00D18DE04022D31A8D
:1044A0009D402F437D1EAF4100240F43002644E76B
:1044B0002B000800203BD8400300202D00D17DE0D8
:1044C0004020451BA9400A43511E8A4100211A433E
:1044D000C7E6002E50D01A4EB04257D080266B420D
:1044E0009946360434434B46382B00DDD6E01F2B6B
:1044F00000DD35E12026F51A2600AE40B2463E002A
:10450000DE40AC46350056462E436546AF407D1E24
:10451000AF41DC403743D71BBA4292410C1B524299
:10452000A41A0600D846A3E6644667462C4300D08A
:10453000A2E600250026002706E71E00C4E6C046C6
:10454000FF070000FFFF7FFFFFFF0F801F2B63DCD3
:104550002020C31A080098409C468346534610000A
:10456000D84003005846184363469A40531E9A4168
:1045700053460243D94003E726003E4306D0EB43AF
:104580009946002BC7D0944EB042ACD10C00170016
:104590000600D84698E6904B9A450BD08246E7E64F
:1045A000002800D09EE01800104300D1E9E01C0074
:1045B0001700D846884E87E6002572E7002182E77B
:1045C00023003B43002E00D0ABE0002B00D1E7E0FE
:1045D0000B00134300D177E6BA18BA42BF41641802
:1045E0007F42E419230200D4F2E07C4B17001C4008
:1045F000060069E620003843002ED1D100285BD1A7
:104600001C00144300D1A8E01C001700D8465BE64C
:1046100006000024002797E650460B002038C340D0
:1046200099465346202B00D195E0402350461B1A53
:1046300099400A43511E8A414B4600211A439FE686
:10464000002E30D126003E4367D0DB439A46002B34
:104650001CD0614EB04260D05346382B00DD96E04E
:104660001F2B00DD9FE02026F31A26009E409C466B
:10467000B34653463E00DE4033005E461E4363466B
:104680009F407B1E9F415346DC403743BF189742F3
:10469000924164185242A418060078E627437C1E13
:1046A000A741002437E74C4EB04236D080265B420B
:1046B00036049A463443CFE71800104300D103E68E
:1046C000B81A84466745AD41E01A6D42401B0502A9
:1046D00000D42CE6D71BBA4292411C1B5242A41AAA
:1046E000D846F1E51800104300D163E7F8086707E2
:1046F00007438020E4080003044208D0DD08054297
:1047000005D1D208590711430F002C00D8467B0F62
:10471000E4001C43FF00304ED6E50C0017000600F5
:10472000D2E5002B38D00B00134300D142E7F80844
:10473000670707438020E40800030442E7D0CB0862
:104740000342E4D1D208490711430F001C00DEE701
:1047500000270024D5E500216BE700250027F3E5BD
:104760004E462500203EF5404B462E00202B2DD0F6
:104770004025ED1AAC4027437C1EA7410024374357
:10478000C9E6802400252403134E0027DCE52743D7
:104790007C1EA741002479E70C0017000E4E93E51C
:1047A0000C00170090E556462300203EF340994642
:1047B0005346202B0ED0402356469B1B9C4027433C
:1047C0007C1EA7414B4600241F435FE70024D2E72D
:1047D0001700B2E50024F2E7FF070000FFFF7FFFAC
:1047E0004100090E4B1C70B5DBB24602750AC40FBE
:1047F000012B14DDE0239B006D07360BCB18002145
:104800000A0D280012051C4D32435B052A405B0847
:1048100013435B00E4075B082343190070BD0029C4
:1048200014D1002D1ED0280000F0B6F80A281CDC98
:104830000B232A001B1ADA40030015339D400F4B4F
:1048400012031B1A5B05160B5B0DD8E7002D06D073
:10485000320B802636036D071643094BCFE7084B12
:104860000026CCE700230026C9E703002A000B3B03
:104870009A400025E3E7C046FFFF0F808903000050
:10488000FF070000F0B54C00640D0B03621C450FE0
:104890005B0A52052B43C90FC500520D012A28DDC2
:1048A0003A4AA618FE2E1BDC002E3EDD80010200D7
:1048B000501E82416D0F2A43DB0013435A0704D078
:1048C0000F221A40042A00D004338022D2041A4056
:1048D0005AD00136FF2E03D09B015B0AF4B201E0EF
:1048E000FF2400235802E405400AC9072043084377
:1048F000F0BD002C07D01D43F2D08020DB008004E7
:104900000343FF26DAE72B4303D00523DB08FF2C04
:1049100003D05B025B0AE4B2E4E7002B32D08020D4
:10492000C00303435B025B0ADCE73200173214DB8F
:1049300080221E2712041343BF1B1F2F0FDC144AB3
:10494000944664442A00A5402E00A340751EAE4143
:10495000FA40334313430026B0E70024D5E7022290
:104960005242961B1A00F240202F09D00948844673
:104970006444A3402B435D1EAB41002613439DE7D7
:104980000023F7E70023ADE73400BFE780FCFFFF1B
:1049900082FCFFFFA2FCFFFF1C2101231B049842A5
:1049A00001D3000C10391B0A984201D3000A0839C0
:1049B0001B09984201D30009043902A2105C401877
:1049C0007047C0460403020201010101000000001B
:1049D00000000000014B18687047C046E8F0FF1F58
:1049E000F7B58A8905000C00130760D44B68002BCB
:1049F00004DC0B6C002B01DC0020FEBDE76A002FFD
:104A0000FAD000232E682B6080235B011A4034D03B
:104A1000606DA3895B0706D56368C01A636B002BC2
:104A200001D0236CC01A0200216A00232800E76A23
:104A3000B847A189431C06D12B681D2B31D82C4ABD
:104A4000DA40D3072DD50023636023692360CB04AC
:104A500005D5431C02D12B68002B00D16065616B2A
:104A60002E600029C8D023004433994202D0280088
:104A7000FFF724F800206063BFE70123216A2800C4
:104A8000B847431CC5D12B68002BC2D01D2B01D0C9
:104A9000162B01D12E60AFE74023A2891343A381D7
:104AA000ABE740230B430120A3814042A5E70F69F8
:104AB000002FA1D00B680F60DB1B0193002392072E
:104AC00000D14B69A360019B002B00DC94E7019BA4
:104AD0003A00216A2800A66AB047002803DC402378
:104AE000A2891343DFE7019B3F181B1A0193EAE7F2
:104AF000010040200B6970B505000C00002B01D1AE
:104B0000002070BD002804D08369002B01D100F083
:104B100073F80B4B9C4209D16C680C22A35E002BEE
:104B2000EED021002800FFF75BFFEAE7054B9C422F
:104B300001D1AC68F1E7044B9C42EED1EC68ECE7A4
:104B4000845C0000A45C0000645C000010B5011EE1
:104B500005D1054B0549186800F0C2F810BD044B9B
:104B60001868FFF7C7FFF9E7C45C0000F54A0000CA
:104B7000E8F0FF1F10B5024900F0B2F810BDC046C2
:104B8000F54A0000002310B5040003604360836011
:104B900081814366C28103614361836119000822F8
:104BA0005C3000F01DF9054B24626362044BA36284
:104BB000044BE362044B236310BDC046D552000092
:104BC000FD520000355300006153000070B56825A8
:104BD0004A1E55430E0029007431FEF767FF041E7C
:104BE00008D000212A00016046600C30A0606832C5
:104BF00000F0F6F8200070BD836913B50400002BA7
:104C000028D18364C3640365134B144A1B68826212
:104C10000193984201D101238361200000F020F824
:104C20006060200000F01CF8A060200000F018F880
:104C30000022E06004216068FFF7A4FF012209213F
:104C4000A068FFF79FFF02221221E068FFF79AFF9A
:104C50000123A36113BDC046C45C0000754B000076
:104C6000F8B51E4B07001E68B369002B02D1300057
:104C7000FFF7C2FF4836B4687368013B04D5336858
:104C8000002B07D03668F6E70C22A55E002D0DD06C
:104C90006834F2E704213800FFF798FF30600028FD
:104CA000F0D10C2304003B602000F8BD012320005C
:104CB0005B42E3810233A38165662560A560656080
:104CC00025616561A561082229005C3000F088F843
:104CD0006563A563A564E564E6E7C046C45C0000BF
:104CE000F7B504000700002601914834002C01D1DB
:104CF0003000FEBD6368A5680093009B013B0093F4
:104D000001D52468F2E7AB89012B08D90E22AB5EEE
:104D1000013304D029003800019B984706436835C9
:104D2000EBE7000070B500260C4D0D4C641BA41081
:104D3000A64209D1002600F001FD0A4D0A4C641B71
:104D4000A410A64205D170BDB300EB5898470136B8
:104D5000EEE7B300EB5898470136F2E74CF1FF1F3E
:104D60004CF1FF1F4CF1FF1F54F1FF1F10B5034B17
:104D700001001868FEF79AFE10BDC046E8F0FF1F5C
:104D800010B5034B01001868FEF798FE10BDC04631
:104D9000E8F0FF1FC9B28218904201D1002070478D
:104DA00003788B42FBD00130F6E7002310B59A421E
:104DB00000D110BDCC5CC4540133F8E710B5884273
:104DC00002D98B18984208D300239A4207D0CC5CB2
:104DD000C4540133F9E78B5C8354013AFBD210BD14
:104DE00003008218934200D1704719700133F9E72C
:104DF00070B50500002910D00C1F2368002B00DAC5
:104E0000E4182800FEF789FF1D4A1368002B05D11E
:104E1000636014602800FEF784FF70BDA34209D9C7
:104E2000216860188342F3D118685B6841182160DB
:104E3000EEE713005A68002A01D0A242F9D9196896
:104E40005818A0420BD120680918581819608242DE
:104E5000E0D110685268411819605A60DAE7A04240
:104E600002D90C232B60D5E721686018824203D158
:104E7000106852684118216062605C60CAE7C046F1
:104E800044090020032370B5CD1C9D43083506005E
:104E90000C2D1ED20C25A9421DD83000FEF73DFF77
:104EA000254A14682100002919D1244C2368002BBD
:104EB00003D1300000F0FCF920602900300000F040
:104EC000F7F9431C2CD10C2330003360FEF729FF87
:104ED00003E0002DDFDA0C233360002070BD0B6887
:104EE0005B1B1AD40B2B03D90B60CC18256003E095
:104EF0008C420ED1636813603000FEF712FF200071
:104F000007220B30231D9043C31AE7D05A42E250C8
:104F1000E4E74B6863600C00EEE70C004968C2E709
:104F20000323C41C9C43A042E0D0211A300000F0AF
:104F3000BFF9431CDAD1C6E7440900204809002024
:104F4000F8B507000D001600002905D11100FEF785
:104F5000ADFD04002000F8BD002A03D1FEF7AEFD30
:104F60003400F7E700F068FA2C008642F2D93100ED
:104F70003800FEF79BFD041EECD029003200FFF73D
:104F800014FF29003800FEF799FDE3E7F7B5150097
:104F900001938A680B6900900C00934200DA1300B9
:104FA00022002B6043321278002A01D001332B609B
:104FB00023689B0602D52B6802332B6006272368E3
:104FC0001F4027D0230043331B785A1E9341226889
:104FD000920630D42200019943320098089EB047CF
:104FE000431C25D0062320682A68E1680340002579
:104FF000042B03D18D1AEB43DB171D40A3682269F4
:10500000934201DD9B1AED180027BD4220D10020FC
:1050100010E00137E3682A689B1A9F42D2DA220027
:105020000123193201990098089EB047431CF0D122
:1050300001204042FEBD3020E118433108702100BC
:105040005A1C45310978A218433202331170C1E766
:10505000220001231A3201990098089EB047431C90
:10506000E6D00137D1E70000F0B58BB006920A0018
:1050700043320793059004920A7E0C00109B6E2A1F
:1050800000D18FE017D8632A2CD008D8002A00D18D
:1050900099E0582A54D026004236327029E0642A1A
:1050A00001D0692AF7D121681A68080623D5111D95
:1050B0001960156825E0732A00D188E008D86F2AA6
:1050C00029D0702AE7D1202209680A43226003E030
:1050D000752A20D0782ADED122007821453211703D
:1050E0006C4A30E00E001A684236111D19601368D0
:1050F0003370012379E04906D9D5111D19600023C9
:10510000D55E002D03DA2D23049A6D421370624B95
:105110000A2703932FE020681968050603D5081DA8
:1051200018600D6805E04006F9D50D68081D186087
:10513000ADB2594B082703936F2A18D00A2716E0FF
:1051400045310A70544A03921A682168101D18608C
:105150001568080622D5CB0702D520231943216004
:105160001027002D03D1202322689A4322602300B8
:10517000002243331A706368A360002B5CDB0422B7
:10518000216891432160002D58D1049E002B64D0EA
:105190002600039B42361B7833705EE04806DAD562
:1051A000ADB2D8E709681A68080605D5111D19605F
:1051B000136862691A6006E04906F7D5111D196087
:1051C0001368A28A1A800023049E236154E01A689F
:1051D000111D19601668002162683000FFF7DAFDC2
:1051E000002801D0801B6060636823610023049A5B
:1051F000137041E02369320006990598079DA8477E
:10520000431C43D0236800259B070FD4099BE0680B
:1052100098423DDA18003BE022000123193206993A
:105220000598079EB047431C30D00135E368099AC2
:105230009B1A9D42F0DBE9E7002DA9D0049E2800CF
:105240003900FEF7CDFE039B013E5B5C2800337006
:105250003900FEF73FFE051EF1D1082F09D1236862
:10526000DB0706D563682269934202DC3023013EE6
:105270003370049B9B1B2361079B09AA00932100A9
:10528000069B0598FFF782FE431CB3D101204042E4
:105290000BB0F0BDD95C0000C85C000010B5034B3A
:1052A0000A0001001868FEF705FC10BDE8F0FF1FBA
:1052B000002370B5064C050008002360FEF7EEFCE5
:1052C000431C03D12368002B00D02B6070BDC04667
:1052D0009811002070B50C000E25495F00F01AFAF5
:1052E000002803DB636D1B18636570BDA389024A48
:1052F0001340A381F9E7C046FFEFFFFFF8B51F0099
:105300008B8905000C001600DB0505D50E23C95E50
:105310000022022300F07CF8A389054A28001340EC
:10532000A38132000E23E15E3B0000F04BF8F8BD94
:10533000FFEFFFFF70B50C000E25495F00F068F825
:10534000A389421C03D1054A1340A38170BD80226A
:1053500052011343A3816065F8E7C046FFEFFFFFEA
:1053600010B50E23C95E00F041F810BD0023C25CE9
:105370000133002AFBD1581E7047000030B59BB0A6
:105380000091049108496D46029105910121822402
:105390004942E981A4006946AC8100F0B7F80023D6
:1053A000009A13701BB030BDFFFFFF7F10B51300D4
:1053B0000A00010002480068FFF7E0FF10BDC04688
:1053C000E8F0FF1F70B50500080011000022064C30
:1053D00022601A00FEF7D0FB431C03D12368002B88
:1053E00000D02B6070BDC04698110020002370B51E
:1053F000064C050008002360FEF79EFB431C03D10A
:105400002368002B00D02B6070BDC046981100208F
:1054100070B50500080011000022064C22601A0039
:10542000FEF712FC431C03D12368002B00D02B6035
:1054300070BDC046981100200B1F1B68181F002B61
:1054400001DA0B58C0187047F0B58E6885B00700B8
:105450000C00039201939E4239D890238A89DB0085
:105460001A4234D00325096923685B1A02936369E1
:1054700002985D43EB0F5D19019B6D1001331B1802
:10548000AB4200D91D00530532D529003800FEF784
:105490000DFB061E09D10C233B6040230120A2898D
:1054A00040421343A38105B0F0BD029A2169FFF782
:1054B0007CFCA389144A1A4080231343A381029BD6
:1054C0002661F61826606561019EED1AA560019BB4
:1054D000B34200D21E00320003992068FFF76EFC31
:1054E000A36800209B1BA36023689E192660DAE74F
:1054F0002A003800FEF7DEFA061EE0D121693800E6
:10550000FEF7DCFAC7E7C0467FFBFFFFF0B59FB0B0
:10551000029005938B890F0016001B0611D50B69AD
:10552000002B0ED14021FEF7C1FA38603861002807
:1055300005D10C23029A013813601FB0F0BD40233F
:105540007B61002306AD6B6120336B761033AB7645
:1055500034002378002B47D1A31B04930DD0A31B49
:10556000320039000298FFF76FFF431C00D1B5E00D
:105570006A69049B944663446B612378002B00D1D5
:10558000ACE00122002352426A6002A95432521850
:1055900001342B60EB60AB601370AB65584E052295
:1055A00021783000FFF7F6FB621C002820D1296823
:1055B000CB0604D5532302AE20309B1918700B077D
:1055C00004D553232B2002AE9B19187023782A2B65
:1055D00016D000200A21099B2278303A092A55D991
:1055E000002815D0099313E0252BB5D00134B0E77E
:1055F0000123801B8340296814000B432B60CDE7F7
:10560000059B181D1B680590002B39DB09931400BE
:1056100023782E2B0BD16378621C2A2B3ED1059B5D
:1056200002341A1D1B680592002B34DB0793354E9C
:10563000217803223000FFF7ADFB002806D040237D
:10564000801B83402A68013413432B602178062293
:105650002D48661C2976FFF79DFB002846D02B4B72
:10566000002B2FD12968059B0722C90528D59B1837
:105670009343083305936B69039A9B186B6167E743
:105680005B42EB6002230B432B60C0E74B430134CA
:105690009B180120A0E701235B42C7E70023140009
:1056A0000A201A006B6021783039092903D9002BB0
:1056B000BDD00792BBE74243013452180123F2E701
:1056C0000733D5E705AB00933A00114B2900029848
:1056D00000E000BF0390039B0133CCD1BB890B9842
:1056E0005B0600D429E70120404226E705AB009382
:1056F0003A00074B29000298FFF7B6FCEAE7C046DC
:10570000EA5C0000F05C0000F45C000000000000B7
:105710004954000070B50500080011000022064C35
:1057200022601A00FEF75EFA431C03D12368002BA7
:1057300000D02B6070BDC04698110020F8B5C0465F
:10574000F8BC08BC9E467047F8B5C046F8BC08BC1B
:105750009E46704700000000000000007104000039
:10576000A1040000DD040000E504000000000000CA
:1057700000000000630800002F090000ED04000095
:10578000F504000000000000000000003B080000DD
:10579000FB080000FD0400000505000000000000FB
:1057A0000000000067070000DD0900000D05000093
:1057B0001505000000000000000000001D050000AD
:1057C00061050000BD050000C505000000000000E7
:1057D00000000000CD05000041060000E1060000C9
:1057E000E90600000000000000000000590E000063
:1057F000390F000035070000000000000000000025
:10580000090700001F070000250700002D07000002
:10581000636F6E74726F6C2F636F6D6D616E642F4A
:10582000686172647761726500656E635F63686169
:105830007474657200396630653938626461363572
:1058400039383139383664646635336166613761B9
:105850003430653439003131616264373331633259
:10586000353933333236316364363138336264313B
:1058700032643632393500726F7373657269616CE8
:105880005F6D7367732F4C6F6700306164353166ED
:1058900038386663343438393266386331303638F4
:1058A0003430373736343630303500726F737365C5
:1058B0007269616C5F6D7367732F546F70696349B0
:1058C0006E666F00726F7373657269616C5F6D7382
:1058D00067732F52657175657374506172616D00E5
:1058E0004D6573736167652066726F6D20646576C0
:1058F0006963652064726F707065643A206D6573CA
:1059000073616765206C6172676572207468616E8F
:10591000206275666665722E00323365613161659D
:1059200063336233616564356461393438333562B9
:1059300038626465313436386300636F6E74726F39
:105940006C2F456E636F6465724461746100373813
:1059500037306239353962333364353866646637D7
:1059600032616139326163613463383532300063EA
:105970006F6E74726F6C2F486172647761726543E9
:105980006F6D6D616E640063643731363663373432
:105990006335353263333131666263633266653550
:1059A00061376263323839007374645F6D73677393
:1059B0002F54696D65000000D1130000C31300006F
:1059C000CF130000726F735F6C69622F4275666659
:1059D0006572656453657269616C2F4275666665B0
:1059E00072656453657269616C2E63707000257313
:1059F00020256420627566666572206F7665727711
:105A00007269746520286D61785F6275665F73697D
:105A10007A653A2025642065786365656465643A33
:105A200020256429210D0A0000000000000000006C
:105A300041390000413900003D1400009514000078
:105A400095130000A1130000A5130000EF1500003E
:105A5000071600006916000037160000645A00009F
:105A600090F7FF1FED2F0000D1310000F131000051
:105A7000013200000532000070696E6D6170206DAA
:105A800069732D6D617463680070696E6D6170205B
:105A90006E6F7420666F756E6420666F722070651D
:105AA000726970686572616C00636F756C64206EFA
:105AB0006F742070696E6F75740000001002000032
:105AC000CC010000E8030000525458206572726F48
:105AD0007220636F64653A203078253038582C2066
:105AE0007461736B2049443A203078253038580A65
:105AF000001001000700000004000000B4F7FF1FC1
:105B0000D4F7FF1FE4F7FF1FF4F7FF1F05000100A4
:105B100000020001F1290000020000000100000065
:105B200020030000080C00207FBB000008080020B4
:105B30000C20000000B0064003000000040000003C
:105B400000A00640020000001030000000C0064027
:105B5000030000000830000000C006400300000001
:105B60001830000000A00640030000005C40000068
:105B700000C00640040000005440000000A00640A1
:105B8000040000000440000000B0064003000000D4
:105B9000FFFF0000FFFFFFFF0000000010200000DB
:105BA00000B00640030000000800000000A006400E
:105BB000020000001430000000C006400300000096
:105BC0000C30000000C00640030000001C30000044
:105BD00000A00640030000005040000000A0064066
:105BE000040000005840000000C00640040000000F
:105BF0000040000000B0064003000000FFFF00006E
:105C0000FFFFFFFF00000000053900000D39000014
:105C100017390000000000000000000041390000BA
:105C200041390000453900005D39000000000000E6
:105C3000000000008B3900008D390000FD130000CA
:105C4000291400004F70657261746F72206E657761
:105C50005B5D206F7574206F66206D656D6F727966
:105C60000D0A00000000000000000000000000001D
:105C70000000000000000000000000000000000024
:105C80000000000000000000000000000000000014
:105C90000000000000000000000000000000000004
:105CA00000000000000000000000000000000000F4
:105CB00000000000000000000000000000000000E4
:105CC00000000000ECF0FF1F30313233343536373E
:105CD0003839414243444546003031323334353659
:105CE00037383961626364656600232D302B2000EC
:105CF000686C4C0065666745464700000000000080
:085D000074E0FF7F01000000C8
:105D0800000000000100000089190000A11900002E
:105D180000000000010000000010000004F8FF1F50
:105D2800006CDC02A0110020ECF0FF1F0000000056
:105D3800845C0000A45C0000645C000000000000BB
:105D4800000000000000000000000000000000004B
:105D5800000000000000000000000000000000003B
:105D6800000000000000000000000000000000002B
:105D7800000000000000000000000000000000001B
:105D880000000000000000000000000039040000CE
:085D9800BD0C00001104000025
:04000003000000C138
:00000001FF
