:1000000000800010BD3B0000ED3B0000EF3B000016
:10001000F13B0000F33B0000F53B00000000000056
:10002000000000000000000000000000F13A0000A5
:10003000F93B0000000000005B3B0000913B00002A
:10004000FF3B0000FF3B0000FF3B0000FF3B0000C8
:10005000FF3B0000FF3B0000FF3B0000FF3B0000B8
:10006000FF3B0000FF3B0000FF3B0000FF3B0000A8
:10007000FF3B0000FF3B0000FF3B0000FF3B000098
:10008000FF3B0000FF3B0000FF3B0000FF3B000088
:10009000FF3B0000FF3B0000FF3B0000FF3B000078
:1000A000FF3B0000FF3B0000FF3B0000FF3B000068
:1000B000FF3B0000FF3B0000FF3B0000FF3B000058
:1000C000FF3B0000FF3B0000FF3B000010B5054C6C
:1000D000237833B9044B13B10448AFF300800123F4
:1000E000237010BD7801001000000000D4590000FA
:1000F0000C4B43B10C4810B50C49AFF300800C48D1
:10010000036823B910BD0A48036833B97047094B27
:10011000002BF7D0BDE810401847064B002BF5D058
:10012000184700BF00000000D45900007C010010F7
:10013000780100100000000043680B7043681B0A40
:100140004B70C3888B70C379CB7083680B718368E5
:100150001B0A4B7143898B71C37A0820CB7170479E
:100160000B7843604A7843EA022343608A7843EA83
:1001700002434360CA7843EA026343600B798360B9
:100180004A7943EA022383608A7943EA024383601F
:10019000CA7943EA026383600820704700487047C9
:1001A00084550000004870476355000000487047C0
:1001B00087540000004870476654000000487047AC
:1001C0005354000000487047325400000048704704
:1001D000A0540000004870471154000043681A0AF8
:1001E0000B704A701A0C1B0E8A70CB7083681A0A47
:1001F0000B714A711A0C1B0E8A71CB71C3681A0AF3
:100200000B724A721A0C1B0E8A72CB720369102091
:100210001A0A0B734A731A0C1B0E8A73CB7370473E
:100220000B6843604B6883608B68C360CB68036175
:1002300010207047004870474B5500000048704739
:100240002A55000043681A0A0B704A701A0C1B0EDC
:100250008A70CB7083681A0A0B714A711A0C1B0ED4
:100260008A71CB71C3681A0A0B724A721A0C1B0E80
:100270008A72CB7203691A0A0B734A731A0C1B0E2B
:100280008A73CB7343691A0A0B744A741A0C1B0ED7
:100290008A74CB7483691A0A0B754A751A0C1B0E83
:1002A0008A75CB75C3691C201A0A0B764A761A0C1C
:1002B0001B0E8A76CB7670470B6843604B68836071
:1002C0008B68C360CB6803610B6943614B698361D1
:1002D0008B69C3611C2070470048704716550000A9
:1002E00000487047F554000070B5054600F10C0455
:1002F0002046FFF795FF2B6A2046BDE8704018475F
:10030000406A7047004870474B55000000487047EE
:100310002A55000090F85C05704738B504460D4634
:1003200001F040F92946204602F0CAFCBDE83840F9
:1003300001F04EB9C36810B41A6814680A4681689F
:100340001846234610BC18472DE9F04118260446EC
:100350000D46174698463246002104F048FB2946D0
:10036000204601F08AF8A5193246002600212846C9
:1003700004F03DFB3946284604F1300701F07DF8D2
:1003800004F1380501F00EF94146384602F0DEFC72
:1003900001F01EF901F006F90699284602F0D6FC94
:1003A00001F016F9E368626831461A60E269636A2F
:1003B00038461A60FFF7B1FF28463146FFF7ADFF18
:1003C0002046BDE8F08138B50C46054600212046A0
:1003D00004F0DEF8002148B105F13800FFF79DFF79
:1003E000214605F13000FFF798FF38BD204604F0A4
:1003F000BBF80028F9D0002105F13000FFF78DFF90
:1004000024F0004105F13800EDE7000010B5044686
:1004100041680A48FFF7D7FFA1680948FFF7D3FFF3
:10042000E1680848FFF7CFFF6268074B5A60A2688F
:100430009A60E268DA6022691A6110BD80020010D9
:1004400038020010F0010010DC0100100023013818
:1004500021FA03F20833202B00F8012FF8D170475E
:1004600043682DE9F0410B7043680D461B0A4B7041
:10047000C3880A1D8B70C3790446CB700021606865
:10048000531B814202F104020FD2E36853F821307A
:100490000131180A02F8043C02F8030C180C1B0E78
:1004A00002F8020C02F8013CE9E72269EA542169EA
:1004B000EA18090A5170618A04339170E17C2B4477
:1004C000D170002122695E1B914203F104030FD217
:1004D000A26952F821200131100A03F8042C03F814
:1004E000030C100C120E03F8020C03F8012CE9E7C0
:1004F0000027E369AB55E269AB19120A5A70E28B27
:1005000004369A70E27FDA70E3699F4214D2636A1C
:1005100053F8270004F037FD80460146A819FFF77D
:1005200095FF636A043653F82710A819424604F071
:1005300039FA46440137E7E73046BDE8F081F8B5BF
:100540000E460379054606F8013B80680F4604F025
:100550001AFD044601463046FFF778FF2246A96897
:10056000781D04F01FFA601DF8BD83882DE9F04165
:100570000B70838805461B0A4B7080680C4604F09C
:1005800002FD07460146A01CFFF760FF3A46A96836
:10059000A01D04F007FAE86804F0F5FC064607F130
:1005A000060801460A3704EB0800FFF74FFF324602
:1005B000E968E01904F0F6F9286904F0E4FC3E4427
:1005C00007460146A0190436FFF740FF3A46A01936
:1005D000296904F0E7F96B693E44A3551A0A3444CB
:1005E00062701A0C1B0EA270E370301DBDE8F08122
:1005F000002310B50360013911F8012F02FA03F44A
:10060000026808332243202B0260F5D110BD37B5B4
:100610000C4611F8013B0546037101A8FFF7E8FFFE
:10062000019B621D581D111B884204D912F8011B41
:1006300002F8021CF7E70022234404341A71AC606C
:1006400003B030BDF0B50C460B7885B083804A7896
:10065000064643EA02238380023101A8FFF7C8FF60
:10066000019FA31DBD1D1A1B954204D913F8012B30
:1006700003F8022CF7E70022E3195A71631DB360F7
:10068000611902A8FFF7B4FF2B1D029D07F10A02B2
:100690001D442244111B8D4204D912F8011B02F89B
:1006A000021CF7E70022013B6119234401F8012CE9
:1006B00003A8F360FFF79CFF0398043528446319EF
:1006C0001A1B904204D913F8012B03F8022CF7E708
:1006D0000023013D2218254402F8013C356193783E
:1006E00051781B0443EA0123215CD2780B4343EA8F
:1006F00002630430736105B0F0BD2DE9F341436836
:100700000D6804469D420E4604D9A900C06804F055
:10071000DFFBE06000216560321D6068931B814251
:1007200002F1040213D212F8023C12F8030C1B046B
:1007300043EA002312F8040C034312F8010C43EAC5
:100740000063E068A36040F821300131E5E7F2186A
:1007500095785078F15C2D0445EA0025D2780D4358
:100760001F1D236945EA02659D4204D9A900A069BD
:1007700004F0AEFBA06100212561F31922699D1BE5
:10078000914203F1040313D213F8022C13F8030C63
:10079000120442EA002213F8040C024313F8010C7D
:1007A00042EA0062A069626140F821200131E5E778
:1007B00073199F785978725D3F04DB7847EA012707
:1007C000174347EA0367E36904359F4204D9B90038
:1007D000606A04F07DFB6062E7610027B846E36968
:1007E0009F421AD2711901A8FFF702FF2B1D019D2C
:1007F000F2181D44911BA94204D212F8011B02F801
:10080000021CF7E7721902F8018C013B626A33445B
:10081000236242F827300137E1E7284602B0BDE8FD
:10082000F081000030B50A4B85B0044601930023E7
:100830000293039354F8603B01AA1B680A21054602
:100840009847204602F0E4FE286705B030BD00BF9F
:100850003853000000222DE9F04105464FF400779F
:10086000294B86B00093294BADF8042002930393E3
:100870000493059200F5906400F2E4462368BBB14E
:100880009A685868ADF804201A68036802929B6859
:1008900098472368039058680368DB689847216885
:1008A0002B68049005971B686A4609692846984793
:1008B0000434B442E2D14FF4007705F5A96620680C
:1008C000C8B14368ADF804308368029303689B683D
:1008D0009847039020680368DB6898472B6804906A
:1008E0002068D3F80080036805975B6898476A46DC
:1008F00001462846C0470434A642E0D1012385F8CA
:100900005C3506B0BDE8F08150530000035600008E
:10091000F0B51F4B85B0019300230E46044600F14D
:10092000600528460293039302F072FE31464FF4AD
:100930007A76226F871A01A8FFF712FCB7FBF6F24E
:10094000029B2846134406FB12720293114F039B2D
:1009500007FB0232039202F05BFEB0FBF6F3029A51
:100960000399013AD21A62670B4A06FB13030A4441
:10097000214607FB132304F1740041F8783F00F08F
:1009800053FB284602F044FEC4F8640505B0F0BDF0
:100990003853000040420F0000CA9A3B2DE9F34152
:1009A000574C584B2046002540F8043B0423564A38
:1009B000564904F160068DE828004FF4807300F07A
:1009C00007FC304602F03AFE4FF4614330464FF4E4
:1009D0000076E36502F0F0FD3246294604F180001E
:1009E00025676567A567E56704F001F83246642668
:1009F000294604F5207003F0FAFF3246294604F533
:100A0000906003F0F4FF32460026294604F2E440E9
:100A100003F0EDFF3E4BC4F87455C4F87035C4F8CC
:100A20007855C4F87C55C4F88055C4F88465C4F87A
:100A30008855C4F88C55C4F89055C4F89455354A77
:100A400035492046C4F84855C4F84C55C4F85055AB
:100A5000C4F85455C4F8585584F85C55C4F860552A
:100A6000C4F86455C4F8685584F86C5502F0E8FF82
:100A70002A4C2B4B2B4F2360DFF8FC802A4BC7F806
:100A800000807E60BE60FE603E616660A660E660DB
:100A900026616661A661E661244A009324493E3BD3
:100AA0002448FFF751FC244B244A00932449433344
:100AB0002448FFF749FC244B244A00932449033B74
:100AC0002448FFF741FC244B244A1E611A60244A43
:100AD000C3F80C801A6201225A62224A5E619A604F
:100AE0009E61DE61204A214B83E884001D61204A1B
:100AF000204B83E814001D6102B0BDE8F08100BF07
:100B0000C8020010C853000003C0092002C0092019
:100B100080530000C800001011100000A801001050
:100B2000B0530000DC01001043C0092042C009207E
:100B300004C009208002001001C0092000C0092063
:100B400045C009203802001009C0092007C009204B
:100B500008C00920F001001060080010DC530000FC
:100B60000D040000EC530000095400009401001033
:100B700005540000C801001098530000F0B5632927
:100B800085B004460E4603DD90F85C55002D4DD02F
:100B9000136804F287211B6810469847FF2384F8E6
:100BA0008032FE23C0F3072284F88132C3B284F876
:100BB00082321344DB4384F8832284F88432052292
:100BC000002384F8856246F3072684F8866204F2DF
:100BD0008521861DB24204DC11F8015B01322B44F1
:100BE000F8E7DB4300F10805B5F5007F204480F805
:100BF00087320CDC04F520773E460434F31B9D421B
:100C000014DD16F8011B204600F04FFBF6E7094BF8
:100C100001AA019303238DF80830074B07210393A2
:100C2000236820461B6898474FF0FF35284605B0DB
:100C3000F0BD00BF68530000BC5400002DE9F74F21
:100C4000044600F16009484602F0E2FC42F6F82250
:100C5000D4F864350546C31A934284BF002384F850
:100C60005C35D4F8483533B1D4F8683583423CBF9D
:100C70000023C4F848350027BA463E4604F1040B69
:100C800004F18008E36FE3B9584600F0DBF910BBCC
:100C900094F85C355BB140F6C412D4F86035EB1AB9
:100CA000934204D92046FFF7BDFDC4F86055002FDC
:100CB00040F0D780BAF1000F14BF6FF0020000209F
:100CC000A6E0484602F0A4FCE36F401B9842DBD943
:100CD0006FF001009CE0584600F0BCF90028D7DB1B
:100CE000D4F85835D4F848250344072AC4F85835B1
:100CF00010D1D4F854355A1C2344C4F8542583F831
:100D00008000D4F84C35013BC4F84C35002BB9D1E8
:100D100008231CE0B2B9FF2807D10123C4F84835E5
:100D200005F11403C4F86835ACE74846019202F0B7
:100D30006FFC41F28833401B9842019AA2D984F893
:100D40005C25C5E7012A0FD1FE2803D10223C4F890
:100D5000483597E794F85C35C4F84865002B91D185
:100D60002046FFF75FFD8DE7022A09D10323C4F86F
:100D70004C05C4F85465C4F84835C4F8580581E7F3
:100D8000032A07D1D4F84C3503EB0020C4F84C05F6
:100D90000423DCE7042A0BD15A42D2B2DBB258BF9B
:100DA0005342FF2B01D10523D1E7C4F8486569E719
:100DB000052A03D1C4F850050623DCE7062A0BD127
:100DC000D4F8503503EB00200723C4F85005C4F8CD
:100DD0004835D4F84C3599E7082A7FF453AF5A4286
:100DE000D2B2DBB258BF5342FF2BC4F848657FF440
:100DF00049AFD4F8503573B92046FFF713FD2046AC
:100E0000FFF728FD4FF0FF30C4F86055C4F8645573
:100E100003B0BDE8F08F0A2B05D141462046FFF70D
:100E200077FD01272EE7062B08D1414604F5AE6079
:100E3000FFF763FC012384F86C3523E70B2B04D107
:100E400084F85C654FF0010A1CE704EB8303D3F8D8
:100E5000540300283FF416AF036841461B689847C7
:100E600010E76FF00300D3E75B4C80B5E16D201D08
:100E700002F034FC002304F27C421146C4F84835E9
:100E8000C4F84C35C4F85435C4F8503551F8040F43
:100E9000002840F08E80514903F590707D3344F86E
:100EA00020108B60CC60002352F8041F002940F012
:100EB00085804B4A03F590717D3344F8212093607F
:100EC000D4600023474A52F8041F00297BD1464AC8
:100ED00004EB83046433C4F8E4245360434C444B70
:100EE000DFF828816360434B3C4DA360424B38A739
:100EF000D7E90067E360414B2361414B6361414B9C
:100F0000A361414BE36141462846FFF713FA374995
:100F10003348FFF70FFA3048FFF790FE4FF4FA70AE
:100F200002F082FC606802F0CFFF32463B4602F0DE
:100F30006DFE03F01DF86060A06802F0C5FF324648
:100F40003B4602F063FE03F013F8A060E06802F095
:100F5000BBFF32463B4602F059FE03F009F8E06061
:100F6000206902F0B1FF32463B4602F04FFE02F02C
:100F7000FFFF2061606902F0A7FF32463B4602F0A6
:100F800045FE02F0F5FF6061A06902F09DFF324668
:100F90003B4602F03BFE02F0EBFFA061E06902F08D
:100FA00093FF32463B4602F031FE02F0E1FFE06182
:100FB000A9E70133192B7FF469AF74E70133192BCB
:100FC0007FF472AF7DE70133192B7FF47CAF85E7A7
:100FD0009A9999999999B93FC80200109401001003
:100FE000C8010010A807001060080010A801001038
:100FF0000000C8420000DC420000F0420000024352
:1010000000000C430000164300002043DC010010E8
:1010100010B50446034B40F8043B00F065F8204649
:1010200010BD00BFC853000030B50D68044C026805
:10103000B5FBF4F31A4404FB135302600B6030BD9C
:1010400000CA9A3B426B806B101A18BF0120704790
:1010500001207047034610B5826B016B501C9863EA
:10106000885CDA6B9C6B013AB4FBF2F102FB114233
:101070009A6310BD034610B107C983E807007047A3
:1010800070474268816812F0010F4FEA62020368FC
:101090001CBF8858C35888181847C36810B5044641
:1010A0000BB19B689847204610BD000070B50546FF
:1010B000074B064645F80C3B45B100F12C04AC4209
:1010C00004D0103C2046FFF7E8FFF8E7304670BD3B
:1010D0000C59000010B50446FFF7E8FF204602F067
:1010E000CDFC204610BD000030B500250446124B53
:1010F00085B003602A466946039502F041FB6846C5
:10110000FFF7CBFF012269462046039502F038FB2A
:101110006846FFF7C2FF04F1400000F045F904F112
:10112000300000F041F9054B20462360FFF7BEFF79
:10113000204605B030BD00BF0C560000F45800003A
:1011400010B50446FFF7D0FF204602F097FC20467A
:1011500010BD30B5044685B0051D284602F054F890
:10116000F0B1626CA36C9A4210D0A36C226C591C33
:10117000A164D15CE36CA06C013BB0FBF3F203FB18
:1011800012032846A36402F065F8E6E70023204630
:1011900001226946039302F0F3FA6846FFF77DFFE8
:1011A00005B030BD10B586B08DE80C00019B0292F1
:1011B0000393064B04919DF8202002A9059302F0A9
:1011C000DFFA02A8FFF769FF06B010BD94550000D2
:1011D0007FB504461D464FF41653089E02F06AFA86
:1011E00020460E4B294640F8303B00F0ECF806FB59
:1011F00005F104F1400000F0E6F8094B20460293A7
:1012000000230393009304AB13E90C002146FFF77E
:10121000C9FF20462565666504B070BD0C56000008
:101220008B12000070B5044686B0043001F0ECFF6C
:10123000C0B1002602AD012229462046059602F0E3
:101240009FFA2846FFF729FF2046FFF782FF064B4B
:10125000039602930123009395E80C002146204653
:10126000FFF7A0FF06B070BD53110000436802688D
:1012700010B55C1C4460D154C3684168013BB1FBAC
:10128000F3F203FB1213436010BD38B5051D04468D
:10129000284601F0B3FF38B1284601F095FFC1B2EE
:1012A00004F13000FFF7E2FF38BD38B505460C46C3
:1012B0004030C9B2FFF7DAFF2846FFF7B3FF2046F8
:1012C00038BD2DE9F04107460C46B1B10D4600F19D
:1012D00040082E4616F8011B21B14046FFF7C6FF15
:1012E0003546F6E70A214046FFF7C0FF2C1B38467B
:1012F000FFF798FF601CBDE8F0810846BDE8F0816B
:101300002DE9F04107460D4691B1A2B10E468C1869
:1013100000F14008B44205D016F8011B4046FFF723
:10132000A5FFF7E73846FFF77DFF601BBDE8F081BA
:101330000846BDE8F0811046BDE8F0810EB42DE905
:10134000F04185B0026D02AFD31D23F00703ADEB72
:10135000030D07F1240454F8048B02AE0546002166
:10136000304603F044FB2246414630467C6003F0A1
:101370002BFE2B6D024683420CD200905D22084862
:10138000084900F058F900200C37BD46BDE8F0418F
:1013900003B0704731462846FFF7B2FFF4E700BFBD
:1013A000CA550000A055000010B50446006808B1F9
:1013B00002F060FB204610BD0021C26841608160E0
:1013C000006803F014BB38B5044608460D4602F029
:1013D00045FBE56020602046FFF7EEFF204638BD64
:1013E0000748084A08B5121A002103F000FB02F072
:1013F000E1FA03F095FA02F0E4FA02F023FB00BFF1
:10140000780100108425001070B50E46044615467C
:1014100001F0C6FB013609D02046002101F0DAFBBD
:1014200029462046BDE8704001F0D1BB70BD38B5FB
:1014300004460D4643685AB1C26820461360012134
:1014400001F0C8FB29462046BDE8384001F0BFBB8B
:101450000269F2E70322FFF7D7BF70B50E460446D4
:10146000154601F09DFB013606D02A462046BDE810
:1014700070400221FFF7DBBF70BD0022FFF7EDBF18
:101480000048704738560000014800F003B800BF1C
:1014900038560000036870B5DB68044698476368F7
:1014A0005A6823681AB99B68BDE8704018475B68A2
:1014B000156898476368281A00285A6807DC9168FD
:1014C00059601B68002BEAD050689847E7E723680B
:1014D00010681B69BDE87040184703685B681847CF
:1014E00010B5044601300DD110BD9C4209D12046F3
:1014F000896801F075FC2046BDE81040022101F02A
:1015000088BC0C310B685A1CEFD10248BDE8104072
:1015100000F091B885560000884208B508D0431CF9
:1015200006D0013106D0044800F085F84FF0FF31B5
:10153000084608BD0146FBE7545600000B685A1CDC
:1015400001D118467047834201D1486870470C3179
:10155000F4E70000421C10B5044607D0FFF7EEFF89
:10156000431C044602D1024800F065F8204610BD35
:101570006556000000F04CB808B500F049F838B1E5
:1015800000F04EF830B900F043F80028FBD108BD58
:101590004FF0FF3008BDEFF31080C04300F00100B2
:1015A0007047000008B5FFF7F6FF72B6064B1A68E1
:1015B00022B980F00100054AC0B210701A681A689A
:1015C00001321A6008BD00BF940800109008001096
:1015D00008B5074B1A6852B1FFF7DDFF1A68013AE8
:1015E0001A601B681BB9034B1B7803B962B608BDB0
:1015F000940800109008001030B585B06D4618248E
:1016000020462946ABBE0446204605B030BD00004A
:10161000024B186800F00100704700BFF0ED00E0D9
:1016200037B540F2051401AD20462946ABBE04464D
:10163000204603B030BD0FB4012008B502F002FA15
:1016400000B599B0FFF7AEFF17496846FFF715FFE1
:10165000164906A8FFF711FF15490CA8FFF70DFF63
:10166000144912A8FFF709FF019A039B96201A60FC
:10167000079A0A9B1A600D9A109B1A60139A159B81
:101680001A6002F0D1F8019A049B96201A60079A1A
:10169000099B1A600D9A0F9B1A60139A169B1A6089
:1016A00002F0C2F8E0E700BF32C0092034C00920D0
:1016B00035C0092037C0092001F09CBA08B5024C9A
:1016C00023689847FCE700BFCC00001008B50B4822
:1016D00000F034FE0A4B18600A4800F02FFE0A4B57
:1016E00018600A4800F02AFE094B186003F018F948
:1016F000BDE808400021084602F063B9E456000046
:10170000EC1D0010E0560000A0080010DC560000A0
:1017100098080010FFF7D2BF10B5044600F07CFD1A
:101720002146BDE8104002460148FFF784BF00BFD4
:10173000A456000002F0A4B90B4AF0B4C2F18053E1
:1017400003F50043B3F5806F194628BF4FF480615D
:10175000064F074D5B1A074C07489E183A602E60EB
:1017600023600160F0BC704788250010041B001046
:10177000A8080010001B0010A408001000F0B2FE22
:10178000FFF7DAFF0348002100F060FE00F0C6FC1E
:10179000FEE70000D0000010024B4FF0FF31186848
:1017A00000F0EABDA0080010014B186800F00CBE64
:1017B000A008001030B502788C78013A4368D2B2A4
:1017C00013B19D78A54207D2022A4B60416006D82A
:1017D00003B19960886030BD18465B68F0E700236C
:1017E0008B6030BD436802785968013A022A416033
:1017F0004FF0000205D809B188605A609A60184617
:1018000070475A60FBE70000034B5A6842600022B1
:1018100058608260704700BFE0240010104B10B584
:10182000DA688AB19A8A8A42DC680CD3C460D860CC
:10183000C468036104B12061521A92B28282998A0B
:101840008A1A9A8210BD3CB900248A1AC460D860F2
:1018500003619A82848210BDA38A1A442346E2E778
:10186000F82400102DE9F041174DEB6853B1002624
:10187000AB8A164F013BDFF85880AB82AA8A0AB9BF
:10188000EC680CB9BDE8F081A36833B161685960B8
:10189000616809B18B606260A66021463846FFF737
:1018A00089FFA38AAB826378042B01BFD8F800308C
:1018B000E28A9B18A38201236370E368EB600BB19B
:1018C0001D61E6602661D9E7F8240010E0240010CD
:1018D0007425001083682BB142685A6042685AB17F
:1018E00093607047054B5A68904202D142685A6033
:1018F00070471346002AF6D1704700BFE02400105D
:1019000010B5846801462CB94378012B0DD1074CE2
:1019100003E0A4682378002BFBD00846FFF7DAFF2A
:101920002046BDE81040FFF745BF10BDE024001081
:10193000036910B563B1C268DA60C2684AB1998AB6
:10194000848A2144998213610023C36000230361C8
:1019500010BD9A82FAE7000070B4114BDD78EFF306
:101960001086EFF3108272B69A78954211D901323F
:101970009A701A78541CA54208BF00241C7006B93E
:1019800062B6954207D970BC03EBC20358609960F8
:101990007047002EF4D070BC0220FFF7BDBE00BF20
:1019A000641D0010032303700023438043608360A1
:1019B000C36070472DE9F84343880546002B63D088
:1019C000324F81683A6891425ED1013B9BB24380BD
:1019D0001BB100242046BDE8F8830B6A984229D148
:1019E000C3680B6291F824300C6A5CBB8B706A6828
:1019F000DFF89C80002A3BD02846FFF7F3FE06461E
:101A00004FF00109214600F0BDF83046FFF790FF86
:101A1000336A3968EB60D8F80430A5F80290AE60FC
:101A200035628A789B789A4214D3304600F04EFE95
:101A3000D0E71346002BD5D0DA689542F9D1EA6891
:101A4000DA60CFE762681AB19278934238BF1346E2
:101A5000E468CAE74046FFF7ADFE31464046FFF76F
:101A6000A9FE3B6883F8019086F801902046DDE7E7
:101A7000D8F8042092789A42ABD94046FFF79AFEF4
:101A800001223B685A70F1E7FF24A3E72C250010E0
:101A9000E0240010438870B504460E46134D43B948
:101AA0002A68116A8260C16010620133638000207D
:101AB00070BD80682A689042F7D081B193788278AF
:101AC0009A4202D28370FFF71BFF62684AB129680D
:101AD0002046FFF76FFE0921304600F019FE012075
:101AE00070BD2B6863605A609C60F4E72C25001081
:101AF000F0B54FF080764FF0000E836A056B9B08BF
:101B000002BF1E4B1B889B0805EB8302540748BF8E
:101B1000043A02E94200A2F14004A2F14406A2F113
:101B20000C0746F804EFBE42FBD1C66942F8206CB0
:101B300041631249C4620968C90017D5112B15D930
:101B40006FF00701103B5B084B43A3F138010A44D7
:101B50004FF0CC30214691420BD108331C44231F57
:101B60009D423CBF4FF0CC3344F8043C044B2B6007
:101B7000F0BD41F8040C41F8080DECE7EC5600000C
:101B8000A52E5AE2C36A19627047C36A19625A6283
:101B900070470000054B1B7823B94FF08052044B6F
:101BA0001A6070470122034B1A707047FC1800102E
:101BB00004ED00E0FD18001038B51A4B1A4C1868F7
:101BC00001234370FFF720FE6578A3783BB91748DF
:101BD0006570FFF707FEBDE8384000F05DBD04EB1F
:101BE000C503586802789AB9198900F0BBF9E378FF
:101BF00001359D4208BF0025EFF31083EFF31082FB
:101C000072B6A278013AA270002BDED162B6DCE790
:101C1000012A03D1996800F033F9E8E700F09CFF4E
:101C2000E5E700BF2C250010641D0010E024001023
:101C3000084B4FF0FF301A68074B1A6000225A60B9
:101C4000072243F8042C054A136843F07F431360CE
:101C5000704700BF0457000014E000E020ED00E0F2
:101C60007047000008B50B4B186801234370FFF75D
:101C7000CBFD00F0ADF9084A136801331360FFF79C
:101C8000F1FD00F091FC0548FFF7ACFDBDE8084010
:101C900000F002BD2C25001074250010E024001077
:101CA000064B1A68136BD26A934203D81A68044B26
:101CB0009A4202D00120FFF72FBD70472C2500105B
:101CC000A52E5AE2002ABBBF22F00042073203329F
:101CD00022F00702A8BF22F0030210B5B4BF102300
:101CE0000C2392B1D4188C420FD8014403445442BF
:101CF00041600360826021449818814202D3005100
:101D00000346F9E70020186010BD012010BDEFF375
:101D1000108372B6026803F001030AB11168016012
:101D200003B962B61046704781420DD343689942A9
:101D30000AD2EFF3108372B602680A60016013F0F2
:101D4000010003D162B67047012070470020704740
:101D500001230370002310398908437083704360A6
:101D6000038143818381C1817047000070B58589FB
:101D700004461646002D38D043891A1D50F82220FB
:101D800001330A60C2899BB29A42438104BF002397
:101D900043814368F3B14378022B1BD1FFF722FD47
:101DA00005460021FFF7EEFE2389E9691A1D44F874
:101DB00022100133E2899BB29A42238108BF00239B
:101DC000284608BF2381FFF7B3FD284600F07EFCBC
:101DD000002070BDEFF31080EFF3108372B6013D69
:101DE000A5810028F4D162B670BD4AB14268094BA2
:101DF00042B11968FFF7DEFC0821304600F088FC8C
:101E0000012070BD1B6843605A60986001234370D5
:101E1000F2E700BF2C250010C2898089101A704794
:101E200008B5FFF799FDBDE80840FFF7B3BE838909
:101E300010B504460BB34389043350F823300B60CC
:101E40004378022B04D10021FFF786FDFFF7A2FEA5
:101E5000EFF31083EFF3108272B6A289013AA281E8
:101E600003B962B66389E28901339BB29A42638106
:101E700001D100236381042010BD184610BD00006D
:101E8000436870B504460E46002B4BD04578022DB2
:101E900020D0032D0AD0012D61D1FFF7A3FC044609
:101EA00032461021FFF771FE65700EE00846FFF71D
:101EB0002EFF0546002852D02046FFF793FC294606
:101EC0000446FFF75FFE012363702046FFF730FDF5
:101ED000214622E0FFF786FC05460021FFF752FE6F
:101EE0002389E9691A1D44F82210EFF31082EFF3F9
:101EF000108172B6A1890131A18102B962B6E2896D
:101F000001339BB29A42238104BF00232381012322
:101F100028466B70FFF70CFD2946BDE8704010485D
:101F2000FFF748BC8089E189884213D223891A1DB2
:101F300044F82260EFF31082EFF3108572B601309F
:101F4000A08102B962B601339BB2994208BF002357
:101F5000238170BD0320BDE87040FFF7DDBB70BD7D
:101F6000E024001010B5038B42781943062A04467A
:101F70000183438B15D133EA010219D121EA030110
:101F800021832046FFF7D4FC012320466370628B37
:101F90000821FFF7FAFD2146BDE810400548FFF78C
:101FA00009BC052A04D111EA030201D04283E5E706
:101FB00010BD00BFE02400100022034B1A60034A4A
:101FC0001268DA80704700BF18250010E85600003C
:101FD00008B50E4B5A680E4B196891420D4905D051
:101FE0001A60DA880868013A02449A8098880A8858
:101FF00090420AD1002205481A60FFF7F3FBBDE8C2
:10200000084001460148FFF7D5BB08BDE024001099
:10201000182500107425001030B500240A4A1368F2
:1020200043B90360816013B19D68691A996044B136
:10203000206030BD9D68A942F3D31C46491B1B6834
:10204000EEE7106030BD00BF28250010C0B1431C72
:1020500011D00C4B984211D84FF47A710A4B1B687F
:102060005A1E01FB0020B0FBF3F34FF6FE708342D3
:1020700006D898B270474FF6FF7070474FF6FE7063
:10208000704700BF00093D00A056000038B183072B
:1020900004D10378002B18BF002070470020704740
:1020A000B0B50E4D00AF2878A8B90D4C236893F851
:1020B000241000F04FFB2368DA78FF2A03D1DA6A94
:1020C000203282F3098862680AB984E80C0000F0C3
:1020D000F9FC01232B700020B0BD00BF25250010A6
:1020E0002C250010014B1878704700BF25250010E3
:1020F00010B5EFF3108434B9EFF305841CB9EFF396
:102100001484E40702D4034B187810BDDFF808C02C
:1021100000DF10BD25250010E520000090B589B036
:1021200000AFEFF31083002B37D1EFF30583002BC3
:1021300033D1FFF7DDFF28B9194C246814B1646866
:1021400004B1A047EFF3148404F00304022C18D068
:10215000032C1CD0012C1ED007F1200484F3098825
:10216000104C2478E40710D5022484F31488BFF3BC
:102170004F8FBFF36F8FDFF830C000DF2437BD46CD
:1021800090BD084C2478E407F5D40324EDE7054C12
:102190002478E407EFD5FF20F0E78220EEE700BFC8
:1021A00014250010CE560000A120000070B50B468B
:1021B0001646024610B90024204670BD006800286B
:1021C000F9D0B2F90440E51CADB2062DF3D8D168C0
:1021D000C1B11269043444EA012100F0F9FA00287F
:1021E000E9D00A4B013853F82040094AE36A5A63A0
:1021F000084B1B6843B19B6833B13146E078984780
:10220000E063D9E70A46E5E7E663D5E7281D001055
:10221000992300001425001008B500F093FA18B1B6
:10222000024B013853F8200008BD00BF281D0010E4
:1022300010B5FFF72BFF044670B1084B1B681BB1AC
:10224000DB680BB1C06B9847E07800F017FBFF2804
:102250000CBF8120002010BD802010BD142500106F
:1022600008B528B1FFF7F2FE00F072FC402008BD6F
:1022700008BD000010B5EFF3108434B9EFF3058406
:102280001CB9DFF80CC000DF10BD822010BD0000BB
:1022900061220000830705D138B1436901691B68D9
:1022A0001846704700231946FAE70346FBE700008B
:1022B00010B504460846DFF80CC000DF84E80300D0
:1022C000204610BD9522000010B548B1046824B125
:1022D000237823B92046FFF765FB204610BD002078
:1022E00010BD70B510F0030405460E4611D180B143
:1022F0000378032B0DD10846FFF7A8FE01462846B8
:10230000FFF7C8FB012806D1002E14BFC120812091
:1023100070BD802070BD204670BD820708B50AD10F
:1023200048B10378032B06D1FFF744FBFF280CBF0D
:102330008120002008BD802008BD000070B5054642
:10234000EFF3108494B9EFF305867EB9EFF31484AC
:10235000E40706D4064C24781CB9BDE87040FFF7AA
:10236000B3BF2846DFF80CC000DF70BD002070BD91
:1023700025250010C922000010B5EFF3108434B9F0
:10238000EFF305841CB9DFF80CC000DF10BD82201C
:1023900010BD0000E3220000084808B54FF0FF31EF
:1023A0000068FFF7E9FFDFF818C000DF0446FFF719
:1023B000C1F92046DFF80CC000DFFEE72025001041
:1023C000192200003122000010B5EFF3108434B957
:1023D000EFF305841CB9DFF80CC000DF10BD8220CC
:1023E00010BD00001B2300002DE9F04180460F4680
:1023F0001646EFF3108404BBEFF30583D3B9EFF374
:102400001483DB0706D40E4B1B781BB9BDE8F041E3
:10241000FFF7CCBE0B4D4FF0FF312868FFF7ACFF44
:10242000404639463246DFF820C000DF04462868BF
:10243000FFF7CAFF2046BDE8F0810024FAE700BF9D
:102440002525001020250010AD2100000022FFF7F7
:10245000CBBF10B5044660B1016851B1406848B1C6
:10246000037833B90431890089B2FFF771FC6068E1
:1024700010BD002010BD000038B5114C23780BB9F9
:1024800000F0A6FAFF220F4B25781B689A708DB9D1
:1024900029460D48FFF7DDFF0C4B2A4618602946F8
:1024A0000B48FFF783FE0B4B18600B48FFF746FF06
:1024B0000A4B1860012300202370094B187038BDA7
:1024C000242500102C250010D4560000E81D001013
:1024D000F0560000DC2400100857000020250010F2
:1024E0002525001010B5EFF3108474B9EFF30584BF
:1024F0005CB9EFF31484E40703D4BDE81040FFF7A0
:10250000BBBFDFF80CC000DF10BD822010BD000093
:10251000792400002DE9FF410C46804618B303786A
:10252000012B25D10846FFF791FD02A9024640463E
:10253000FFF71CFC012811D10020002C02460346A5
:1025400018BF4020029904460D4616461F462046F5
:10255000294632463B4604B0BDE8F08100200246E1
:1025600003461020EEE78024054606460746EEE7C0
:10257000002580242E462F46E9E770B50E46144606
:10258000054660B15AB90378012B08D1FFF744FC26
:1025900038B128463146FFF743FC204670BD802005
:1025A00070BD812070BD0000F8B5114E34682CB1AB
:1025B000A368104F013BA360A26802B1F8BD256873
:1025C000214638683560FFF7D8FF10B10420FFF7C7
:1025D000A3F86379012B07D1E1682046FFF71CFDC2
:1025E000002DEBD02C46E7E701232371F8E700BF6D
:1025F00028250010E81D00107FB504461646084641
:1026000001B122B180232360204604B070BD0B7855
:10261000012BF7D102A9FFF70AFC042808BF1023F9
:1026200001AD14BF0196019395E8070084E8070007
:10263000EAE7000038B504461546EFF3108010B9FC
:10264000EFF3058028B12A462046FFF7D5FF204644
:1026500038BD08461146DFF80CC000DF84E80700EB
:10266000F5E70000152500007FB50A4C4FF0FF325A
:10267000216803A8FFF7DEFF039B102BF6D1049916
:1026800001A8FFF715FE019B002BEFD00298984799
:10269000ECE700BFE81D0010054B586002234370B3
:1026A000044B1B681BB11B690BB1C06B184770470B
:1026B0002C2500101425001008B50348FFF792F8E8
:1026C000BDE80840FFF7E8BFE024001070B50446FD
:1026D00018B9BDE87040FFF7EFBF0B4EA278306825
:1026E000012583789A4208D9FFF78EF8336820468F
:1026F0005D70BDE87040FFF7CFBF65702146BDE853
:1027000070400248FFF756B82C250010E024001056
:1027100038B50D46014680B14FF6FF739842074C1D
:1027200002D02068FFF77AF8236805485D70FFF74C
:1027300059F8BDE83840FFF7AFBF38BD2C25001071
:10274000E0240010024B186800B1C078704700BF49
:102750002C25001010B5A8B9194B1B68997083F887
:102760002410184843689B788B4201D8002010BD84
:10277000134C2168FFF71EF8012223685A70FFF7F7
:102780009BFFF3E7104B1B88984217D80F4B01387B
:1027900053F8204094B10A4BA1701B6884F82410B0
:1027A0009C42DED02046FFF7ABF86378012BDDD1E9
:1027B0000448FFF717F8FFF789FFD7E7FF2010BDA0
:1027C0002C250010E0240010D0560000281D001019
:1027D0002DE9F0470D4611F0FF0F804623481646BD
:1027E0009A4608BF0135FFF792FA044620B94FF028
:1027F00000094846BDE8F08700211D4B06631B8891
:10280000280A1C4EA0628B4201F10109EFD006EBB1
:10281000890252F8042C0F464946002AF3D10123BD
:10282000EDB284F80390C4F81CA0C4F838A022705C
:102830006370A57084F824506260A260E260226137
:102840002262A282E2822283628384F8252018B960
:102850000948FFF75CFA206320464146FFF748F934
:10286000204646F82740FFF731FFC2E7102100104D
:10287000D0560000281D0010181B00102DE9F84F3D
:102880004D4D18B12B68DB78984241D100232C685C
:102890000127637001F001F9E062FFF701FA2B688C
:1028A000DFF828811C6AA4B92A684449D3784448CF
:1028B000013B41F82340116BFFF736FA2968414884
:1028C0000C63FFF731FA2C60FFF7F6FE2046BDE8F7
:1028D000F88F6368B3B12046FEF784FF06460021F7
:1028E000FFF750F93046FFF723F87770314640463E
:1028F000FEF760FFE368326A6780A660E2603462D8
:102900001C46D0E7E2686380A360E3601446CAE730
:102910002D4B1B8898424DD8284B471E53F82760F3
:102920009946002E46D04FF0010A3046FEF7D2FFFE
:102930003046FEF7FDFFDFF894B0346AB4B9316B6E
:102940001F4849F82740FFF7EFF9314634631D4827
:10295000FFF7EAF91D48296843689A788B789A420C
:10296000B4D901234B70FEF725FFADE76368DBB1F7
:102970002046FEF737FF80460021FFF703F9404667
:10298000FEF7D6FF88F801A041465846FEF712FF31
:10299000E368D8F82020A4F802A0C4F80880E26018
:1029A000C8F820401C46C9E7E2686380A360E36082
:1029B0001446C3E7FF2489E72C250010281D0010CA
:1029C000181B001010210010D0560000E024001049
:1029D00038B52C4B2C491A880023184693424DD306
:1029E0002A4B402219882A48FFF76CF9294B2A48BC
:1029F0001A882A4B42F000421968FFF763F9284B06
:102A000008221988274B284C1868FFF75BF9FF2329
:102A10000025E370012320486370A5622570A5702E
:102A200084F824506560A560E56025612562A58273
:102A3000E5822583658384F82550FFF768F91B49F3
:102A400020632046FFF754F80422194B20461A70E1
:102A50005D60184B1A70DD601D619D82164B1C6015
:102A600002236370FFF718FE144A154B12781D708D
:102A70005D70DA70BDE83840FFF79EBA41F8230078
:102A80000133ABE7D0560000281D00109C56000013
:102A900010210010EC560000181B00109856000082
:102AA0009E5600009C0800103425001015170000E9
:102AB000E0240010F82400102C250010CD56000052
:102AC000641D001008B51E4B1A6842F47F021A609C
:102AD0001B681B0203F07F43DB43B3FA83F3194AFD
:102AE000DBB21268C3F10803C2F30222934298BF1B
:102AF000531C6FF08072144802FA03F3016803F06C
:102B00007F4321F07F4213430360FFF791F80F4B9F
:102B10000028186012DBFF22012100F1604000F55F
:102B2000644002701A6853099B0003F1604302F08D
:102B30001F0203F5614301FA02F21A6008BD00BFEB
:102B400020ED00E00CED00E01CED00E01025001091
:102B50000321FFF7DDBD0000426810B57AB1FEF732
:102B600041FE0446FEF7E4FE012120466170FFF7B6
:102B700009F82146BDE810400348FEF71BBE428815
:102B80000132428010BD00BFE024001010B50021CA
:102B9000044600F025F9012004F01F04A04010BDF8
:102BA00038B505464B1C0C4629600FD00846FFF788
:102BB000EDFF24F01F0404F11803EB6004F11C0383
:102BC0002B6104F1140368606B61AC6038BD006870
:102BD00000F01FB911B1012907D070478268416820
:102BE000136823EA01031360704782684168136821
:102BF0000B43F8E708B5FEF7BFFC0022044BC3F80F
:102C0000C020044A136923F00403136130BF08BDD8
:102C100000C00F4000ED00E008B5104B1868E0B9A7
:102C200001210F4A1960D2F8C43043F40003C2F8FE
:102C3000C430A2F5D022106702200A4B1B685060F6
:102C40000948B3FBF0F3013BD3600420516007490E
:102C500000F040FC1022064B1A6008BD101900104D
:102C600000C00F400001001000093D008914000061
:102C700000E100E008B5044B1B680BB9FFF7CCFF7F
:102C8000024B986808BD00BF1019001000400940B1
:102C9000034B98615A6942F001025A61704700BFC4
:102CA00000400940024A536923F001035361704711
:102CB000004009400122014B1A6070470040094062
:102CC00070B50D4606460021284601F04DFCE8B9D6
:102CD0004FF07E51284601F065FC08B14FF07E555B
:102CE0000B4CA06901F04AFA294601F09FFA01F065
:102CF00063FCA36931799842336808BF01301860DA
:102D00000123226D8B401343236570BD0025E7E747
:102D1000008001400B4B10B51A680B4B4A4302214F
:102D200059609A61996931B1006801689C695143A1
:102D3000B1FBF4F101601A6D42F001021A6509223B
:102D40005A6010BD141900100080014070B50D4686
:102D50001D4E044631462846FEF7FCFB1B4B2071F6
:102D6000C0B253F820302360194BD3F8C42042F08E
:102D70004002C3F8C420D3F8A82122F44052C3F87B
:102D8000A8210022A3F56423DA6002225A6100F12F
:102D900008020120D96C90400843D8640D4B0E4ABC
:102DA0001B682046B3FBF2F30C4A44F62061136023
:102DB000FFF7B0FF20460021FFF782FF314628468B
:102DC000BDE87040FEF78CBB0C570000E40000101B
:102DD00000C00F400001001000093D001419001050
:102DE00010B5032400F16040A0F51C204300000949
:102DF000800000F1804000F53030026803F01E03CF
:102E00009C4022EA0402026002689940114301607A
:102E100010BD00F16040A0F51C2043099B0003F1A8
:102E2000804303F5303330B500F01F029C6EC1F3D0
:102E3000800505FA02F224EA02049C669C6E224395
:102E40009A6695B9032443000009800000F1804090
:102E500000F53030026C03F01E039C4022EA0402AD
:102E60000264026C99401143016430BD012810B422
:102E700008D0022808D010BC7047506820F001002C
:102E8000506010E003460EE038230F4803FB0103B7
:102E90005868013006D018699C68046093F8363091
:102EA000002BEAD0002338225143074842184058EB
:102EB0000028E0D01BB992F83620002ADBD0034A64
:102EC0001946126810BC104720190010181900107C
:102ED000034A00219068C0F34200FFF7C7BF00BF5C
:102EE00000C00040034A01219068C0F34200FFF790
:102EF000BDBF00BF00000140034A02219068C0F33B
:102F00004200FFF7B3BF00BF00800940034A03211E
:102F10009068C0F34200FFF7A9BF00BF00C009409E
:102F200070B50B46066829498E4222D006DCA1F511
:102F300080418E420CD000210C460BE024498E4289
:102F40001AD001F580418E42F5D12249082401E0D2
:102F5000052421499AB10125726805FA03F3134348
:102F60007360204600F0B6FA1C4B05FA04F41C60AE
:102F700070BD1B490624EDE71A490724EAE7012B37
:102F80000AD042683820184900FB021292F8361025
:102F900092F83520D14217D1012202FA03F0B3FA98
:102FA00083F371685B0921EA00017160716802FABC
:102FB00003F30B4208D1094B02FA04F4C3F8804032
:102FC000BFF34F8FBFF36F8F70BD00BF0000014094
:102FD000008009400D2F0000D12E000000E100E02C
:102FE000E52E0000F92E0000201900102DE9F04F09
:102FF000644B046887B09C4200F08D806ADCA3F5C6
:1030000080439C4279D0604B0801D3F800C0BCFBE0
:10301000F0F293B200FB12C2002A00F0AA80012550
:10302000E6469946AB464FF0000A0191039100260F
:103030004FEA4E030493DDF804804FEA8E03EFB2AB
:103040000593F3B20093049B002BABBF059BB3FB2E
:10305000F8F3B3FBF8F31B09A8BF5B090133C3F313
:103060004F03002B00F0888016B1012B08BF02230C
:10307000A8195843C000BEFBF0F00130C1EB50006E
:103080000028B8BF40420290029A0398824262DA56
:1030900091425AD10F2D07D1BB469946DDF800A0C9
:1030A0005F464B46CDF800A0217B41F080012173A3
:1030B000C3F30721DBB221712370009B43EA07129F
:1030C000D2B284F82820237B03F07F03237307B058
:1030D000BDE8F08F2D4B9C4229D003F580439C42E4
:1030E00091D12B4BD3F8AC2122F44022C3F8AC2170
:1030F000D3F8AC2142F4802224E0254BD3F8A82158
:1031000022F0C002C3F8A821D3F8A82142F040025F
:10311000C3F8A82177E71E4BD3F8A82122F4407208
:10312000C3F8A821D3F8A82142F48072F0E7184B25
:10313000D3F8AC2122F44032C3F8AC21D3F8AC214F
:1031400042F48032C3F8AC215DE7BB469946029A4F
:10315000DDF800A003920136F3B2BB428844FFF4CD
:1031600070AF0F2D9CD0019B01350B44E6440193B9
:103170005DE70127009297E7002E0CBF0123022391
:1031800076E700BF00000140000100100080094008
:1031900000C00F40034B1960382341684B4302497C
:1031A000CA507047181900102019001030B431B9F6
:1031B00038254368034C05FB034383F8362030BCB5
:1031C000FFF7AEBE2019001010B50268137DDB07B3
:1031D000FCD5382443680848117804FB0303586879
:1031E000C9B2013006D058699B680360536843F048
:1031F00001035360084610BD201900100368187DB4
:1032000000F00100704700003821114A436801FBBB
:103210000323DA69013209D01A6B1B6A12681A4259
:1032200014D10368187DC0F3801070470268127DC6
:10323000920604D50022012083F83420704793F8C9
:1032400034000F288CBF00200120704700207047F9
:103250002019001038B504460D462046FFF7D4FF6C
:103260000028FAD038212368EDB21D706368044A43
:1032700001FB032393F83420013283F8342038BD56
:10328000201900102DE9F84F9A463C4C036805467A
:10329000A34218BF00248946904647681CB1237C8E
:1032A00003F03F03237438234FF0FF32344E284697
:1032B00003FB0763DA615A60002283F83520114668
:1032C000FFF72EFEB9F1000F55D02E494046FEF70C
:1032D00035F92D4983465046FEF730F9A9F102032E
:1032E000012B1BD8BAF1FF3F0BD0244B98420DD1D4
:1032F00064B1237C244943F0800323745046FEF7D5
:10330000EFF8B9F1030F0CD0BDE8F88F382000FBBF
:10331000076051461C30FEF79DF8F2E7B9F1010F46
:1033200029D1B8F1FF3F01D1BDE8F88F07222B6802
:103330001A72124B9B450AD14CB1237C404643F094
:10334000400323740F49BDE8F84FFEF7C9B838248D
:1033500004FB0760414600220430FEF77EF801229C
:103360006B68284604FB036686F835200021BDE81B
:10337000F84FFFF7D5BDBDE8F88F00BF0000014052
:1033800020190010E4570000C05700002DE9F0415B
:103390000F460546464938461646FEF7DBF84549CE
:1033A00004463046FEF7D6F801462046FEF7B4F84C
:1033B000414B0446984228605DD047D8A3F580432E
:1033C000984250D001234FF0000823724FF4165159
:1033D0002846C4F80480FFF709FE03222B6834490D
:1033E0001A733846FEF77CF832493046FEF778F813
:1033F0007A1C03D041463846FFF70BFD731C03D0FF
:1034000000213046FFF705FD2B4B9C424BD03ED8A8
:10341000A3F580439C4243D038216A68274B284655
:1034200001FB02324FF0FF3300215360D3611A4693
:10343000FFF728FF224B9C4206D10122214B6968ED
:103440001A602868204B03C3BDE8F0811F4B9842E7
:1034500017D003F580439842B4D11D4AD2F8C43046
:1034600043F0007304E01A4AD2F8C43043F0080372
:10347000C2F8C430A6E7164AD2F8C43043F01003AD
:10348000F6E7134AD2F8C43043F08073F0E70F4BED
:103490009C420AD003F580439C42BDD1032300E047
:1034A00000236B60B8E70123FBE70223F9E700BFC5
:1034B0007458000008580000000001402019001056
:1034C00000C000401C190010782500100080094041
:1034D00000C00F4030B50C4CA268A4681346B4F18C
:1034E000805F0CD2131F094C094A53F8045F42F85D
:1034F000045FA242F9D14FF08053034A9360103029
:1035000043F8201030BD00BF00ED00E0C000001007
:10351000FCFFFF0F2022264BC3F8A021D3F8A021E7
:10352000920603D5D3F8A0215006FBD50222C3F89A
:10353000042100220120C3F8A821C3F8AC210B22EA
:10354000C3F80C01AA21C3F884205522C3F88C10BB
:10355000C3F88C20C3F88000C3F88C10C3F88C200B
:10356000134B1A46D3F888104901FBD50321C3F841
:103570008010AA21C3F88C105521C3F88C10D2F802
:10358000883013F0407FFAD00523C2F80831094B88
:10359000C2F8C4300023C2F8C831136823F4704362
:1035A00023F03A0343F4405343F03A031360704767
:1035B00000C00F40DE87280410B50446FDF7F2FF77
:1035C00023682BB9E068FDF788FF01236060236062
:1035D000BDE81040FDF7FCBF38B50546FDF7E2FF3A
:1035E0002C6824B1E868FDF778FF6C68041BFDF7D0
:1035F000EFFF204638BD38B50546FDF7D3FF284616
:10360000AC68FFF7E9FF0444FDF7E2FF204638BD50
:1036100008B5FFF7F0FF4FF47A7390FBF3F008BDA5
:1036200010B50446FDF7BEFFE068FDF756FF002326
:103630006060A360BDE81040FDF7CABF002310B56D
:103640000360436083600446FDF71AFFE060204694
:10365000FFF7E6FF204610BD0368184708B10B6866
:10366000036070477047884238B504460D460AD05B
:10367000FDF713FD3CB1EB681BB15B6829462046A2
:103680009847EB68E360204638BD704710B50446A4
:10369000024B0360FDF70AFD204610BDF458000000
:1036A00010B50446FFF7F2FF204600F0E7F9204688
:1036B00010BD000010B5044600F024F8014B204670
:1036C000236010BDF458000070477047704700EB4E
:1036D0000112936902F10C001B68184770B505468A
:1036E0000E46044655F8043B1B6898472846314669
:1036F000FFF77CFC2368E6622046BDE870405B680B
:10370000184700002DE9FF410F460021044690466E
:10371000174A184E184DC362026041608160816192
:10372000816269460C3003950096FFF79CFF68465E
:10373000FDF7B3FC694604F11C0003950096251DB6
:10374000FFF791FF6846FDF7A8FC42463946284638
:10375000FFF71CFEE16A2846FFF748FC2846224690
:103760000649FFF717FD204604B0BDE8F08100BF11
:103770000C590000C9360000E0580000CF360000A8
:103780002DE9FF4105468846164655F8043B044698
:103790001B689847FDF706FFD8F80C70300197B109
:1037A0000C3041462044FFF75EFF01223146284697
:1037B000FFF7FCFCFDF70CFF236820465B68984789
:1037C00004B0BDE8F081074B0C300093064B69460E
:1037D00020440393FFF747FF6846FDF75EFC3A4637
:1037E000E4E700BFC9360000E058000001F054B91A
:1037F00001F0B0B901F004B970B505464FF47A7420
:10380000FFF738FA95FBF4F4002C064602DDFDF7CD
:10381000C2FE28B9FFF72EFA801BA842FAD370BD6A
:10382000204600F035F9F5E74FF47A735843FFF777
:10383000E3BF000008B5084B1B685BB9074908489F
:10384000084AFFF7A3FD4FF41651BDE808400448AD
:10385000FFF7CCBB08BD00BF1C19001002C0092037
:103860007825001003C0092070470000022810B519
:10387000044601DC002010BD00F0BEFE092300223A
:103880000360094B033C53F8240043F8242040B163
:1038900003681B699847041EECDA00F0ADFE644231
:1038A00004604FF0FF3010BD001A0010F8B5054657
:1038B0000E46144600F0A0FE0923022D03600FDC23
:1038C000124B1B680BB9FFF7B5FF35463719104E81
:1038D000BD4215D015F8011B3046FFF7BBFCF7E7DA
:1038E0000C4B033D53F8250060B103682246DB68AA
:1038F00031469847041E03DA00F07EFE63420360FF
:103900002046F8BD4FF0FF34FAE700BF1C19001045
:1039100078250010001A001070B504460D461646B2
:1039200000F06AFE0923022C03600BDC0F4B1B68BE
:103930000BB9FFF77FFF0E48FFF746FC0124287004
:10394000204670BD0B4B033C53F8240058B103686C
:1039500032469B6829469847041EF1DA00F04CFE77
:1039600063420360ECE74FF0FF34E9E71C190010F5
:1039700078250010001A001070B504460D46164652
:1039800000F03AFE0923022C03600BDD084B033CD8
:1039900053F8240040B1036832462946BDE8704020
:1039A000DB691847002070BD4FF0FF3070BD00BFCD
:1039B000001A001008B5FFF757FFFDF7DFFE08BD3E
:1039C000704708B5FFF7FCFFBDE80840FDF74CBAAB
:1039D0000C4A10B513681844EFF30881884205D3E8
:1039E0000C22094B4FF0FF301A6010BD07490C68DC
:1039F00024B10749096821448842F1D21060184671
:103A000010BD00BF0401001080250010001B001035
:103A1000041B0010094C08B523680546986800F09F
:103A2000A3FE2368D86800F09FFEFDF7A3FD08B150
:103A3000FDF7E2FD0DB1FDF703FEFEE70801001002
:103A40000120704708B5FFF7E5FF08B5FDF7A4FEB4
:103A500008BD08B5FDF7A8FE08BD000010B500F0D0
:103A600083FF044610B90248FDF7E5FD204610BD6E
:103A70001C59000008B100F07FBF7047FFF7FABF84
:103A8000024B1B6803B11847704700BF081B0010AA
:103A9000FEF7F0BB80F309887047EFF309807047A9
:103AA000684680F309883F480078C00714BF0220A9
:103AB000032080F314887047DFF8ECC0EFF3058330
:103AC0001B0618BF6047EFF31483DB0708BF60478E
:103AD00000DF7047DFF8D4C0EFF305831B0618BF83
:103AE0006047EFF31483DB0708BF604700DF7047D0
:103AF000EFF30980816911F8021CF1B990E80F1009
:103B0000E047EFF3098C8CE80700294B93E80600A7
:103B100091420FD039B12CE9F00FC1F82CC00CB490
:103B2000FEF7BEF80CBC1A60D2F82CC0BCE8F00F4F
:103B30008CF309886FF0020E704710B51D4A1268A9
:103B4000914209D81C4C54F8214090E80F10A0472E
:103B5000EFF3098C8CE80F0010BDFEF72DF8144B25
:103B600093E80600914210D0EFF3098C2CE9F00F96
:103B7000C1F82CC00CB4FEF793F80CBC1A60D2F854
:103B80002CC0BCE8F00F8CF309886FF0020E704770
:103B9000FEF768F8FFF7E3BFFEF762F8FEF762F89A
:103BA000FFF7DDBFCE5600000F1D0000291D0000ED
:103BB0002C25001000000000FCFFFFFF0649074A0B
:103BC000074B9A42BEBF51F8040B42F8040BF8E7CA
:103BD0000448804704480047E0590000C80000102E
:103BE0007801001015350000E1130000FEE7FEE744
:103BF000FEE7FEE7FEE7FEE7FEE7FEE7FEE7FEE79D
:103C000081F0004102E000BF83F0004330B54FEA8D
:103C100041044FEA430594EA050F08BF90EA020FFA
:103C20001FBF54EA000C55EA020C7FEA645C7FEA8D
:103C3000655C00F0E2804FEA5454D4EB5555B8BFB0
:103C40006D420CDD2C4480EA020281EA030382EA21
:103C5000000083EA010180EA020281EA0303362DB3
:103C600088BF30BD11F0004F4FEA01314FF4801C86
:103C70004CEA113102D0404261EB410113F0004F98
:103C80004FEA03334CEA133302D0524263EB43034F
:103C900094EA050F00F0A780A4F10104D5F1200EED
:103CA0000DDB02FA0EFC22FA05F2801841F1000148
:103CB00003FA0EF2801843FA05F359410EE0A5F11C
:103CC00020050EF1200E012A03FA0EFC28BF4CF04D
:103CD000020C43FA05F3C01851EBE37101F0004503
:103CE00007D54FF0000EDCF1000C7EEB00006EEB10
:103CF0000101B1F5801F1BD3B1F5001F0CD349089A
:103D00005FEA30004FEA3C0C04F101044FEA4452F0
:103D100012F5800F80F09A80BCF1004F08BF5FEA77
:103D2000500C50F1000041EB045141EA050130BD57
:103D30005FEA4C0C404141EB010111F4801FA4F1FA
:103D40000104E9D191F0000F04BF01460020B1FA4F
:103D500081F308BF2033A3F10B03B3F120020CDA87
:103D60000C3208DD02F1140CC2F10C0201FA0CF065
:103D700021FA02F10CE002F11402D8BFC2F1200CCA
:103D800001FA02F120FA0CFCDCBF41EA0C01904080
:103D9000E41AA2BF01EB0451294330BD6FEA0404C9
:103DA0001F3C1CDA0C340EDC04F11404C4F12002B4
:103DB00020FA04F001FA02F340EA030021FA04F3C6
:103DC00045EA030130BDC4F10C04C4F1200220FA1D
:103DD00002F001FA04F340EA0300294630BD21FA5B
:103DE00004F0294630BD94F0000F83F4801306BF21
:103DF00081F480110134013D4EE77FEA645C18BF15
:103E00007FEA655C29D094EA050F08BF90EA020FAB
:103E100005D054EA000C04BF1946104630BD91EAA3
:103E2000030F1EBF0021002030BD5FEA545C05D1A6
:103E30004000494128BF41F0004130BD14F58004E5
:103E40003CBF01F5801130BD01F0004545F0FE4159
:103E500041F470014FF0000030BD7FEA645C1ABF8E
:103E6000194610467FEA655C1CBF0B46024650EAC5
:103E7000013406BF52EA033591EA030F41F40021F1
:103E800030BD00BF90F0000F04BF0021704730B577
:103E90004FF4806404F132044FF000054FF000014C
:103EA00050E700BF90F0000F04BF0021704730B50D
:103EB0004FF4806404F1320410F0004548BF4042E2
:103EC0004FF000013EE700BF42004FEAE2014FEA37
:103ED00031014FEA02701FBF12F07F4393F07F4F12
:103EE00081F06051704792F0000F14BF93F07F4F44
:103EF000704730B54FF4607401F0004521F0004187
:103F000020E700BF50EA010208BF704730B54FF00C
:103F100000050AE050EA010208BF704730B511F011
:103F2000004502D5404261EB41014FF4806404F149
:103F300032045FEA915C3FF4DCAE4FF003025FEACB
:103F4000DC0C18BF03325FEADC0C18BF033202EB53
:103F5000DC02C2F1200300FA03FC20FA02F001FAAD
:103F600003FE40EA0E0021FA02F11444C1E600BF4C
:103F70004FEA4102B2F1E04324BFB3F5001CDCF18B
:103F8000FE5C0DD901F0004C4FEAC0024CEA5070C3
:103F9000B2F1004F40EB830008BF20F001007047F2
:103FA00011F0804F21D113F13872BCBF01F00040F5
:103FB000704741F480114FEA5252C2F11802C2F127
:103FC000200C10FA0CF320FA02F018BF40F00100A8
:103FD0004FEAC1234FEAD32303FA0CFC40EA0C005A
:103FE00023FA02F34FEA4303CCE77FEA625307D197
:103FF00050EA01331EBF4FF0FE4040F440007047CE
:1040000001F0004040F0FE4040F40000704700BF67
:1040100080F0004002E000BF81F0004142001FBF7D
:104020005FEA410392EA030F7FEA226C7FEA236C86
:104030006AD04FEA1262D2EB1363C1BFD21841407B
:1040400048404140B8BF5B42192B88BF704710F011
:10405000004F40F4000020F07F4018BF404211F0B4
:10406000004F41F4000121F07F4118BF494292EA1C
:10407000030F3FD0A2F1010241FA03FC10EB0C0048
:10408000C3F1200301FA03F100F0004302D54942D5
:1040900060EB4000B0F5000F13D3B0F1807F06D382
:1040A00040084FEA310102F10102FE2A51D2B1F17A
:1040B000004F40EBC25008BF20F0010040EA03006F
:1040C0007047490040EB000010F4000FA2F101021C
:1040D000EDD1B0FA80FCACF1080CB2EB0C0200FAA6
:1040E0000CF0AABF00EBC25052421843BCBFD040F4
:1040F0001843704792F0000F81F4000106BF80F46E
:1041000000000132013BB5E74FEA41037FEA226C30
:1041100018BF7FEA236C21D092EA030F04D092F0FB
:10412000000F08BF0846704790EA010F1CBF00202F
:10413000704712F07F4F04D1400028BF40F000408C
:10414000704712F100723CBF00F50000704700F0AC
:10415000004343F0FE4040F4000070477FEA2262D3
:1041600016BF08467FEA23630146420206BF5FEAA4
:10417000412390EA010F40F4800070474FF00003A4
:1041800004E000BF10F0004348BF40425FEA000C6B
:1041900008BF704743F0964301464FF000001CE013
:1041A00050EA010208BF70474FF000030AE000BF69
:1041B00050EA010208BF704711F0004302D54042A7
:1041C00061EB41015FEA010C02BF84460146002019
:1041D00043F0B64308BFA3F18053A3F50003BCFA34
:1041E0008CF2083AA3EBC25310DB01FA02FC6344E1
:1041F00000FA02FCC2F12002BCF1004F20FA02F2E8
:1042000043EB020008BF20F00100704702F12002DA
:1042100001FA02FCC2F1200250EA4C0021FA02F23B
:1042200043EB020008BF20EADC7070474FF0FF0C40
:104230001CEAD0521EBF1CEAD15392EA0C0F93EA3B
:104240000C0F6FD01A4480EA010C400218BF5FEADD
:1042500041211ED04FF0006343EA501043EA511150
:10426000A0FB01310CF00040B1F5000F3EBF49004A
:1042700041EAD3715B0040EA010062F17F02FD2A4E
:104280001DD8B3F1004F40EBC25008BF20F0010031
:10429000704790F0000F0CF0004C08BF49024CEA48
:1042A000502040EA51207F3AC2BFD2F1FF0340EADA
:1042B000C250704740F400004FF00003013A5DDC4B
:1042C00012F1190FDCBF00F000407047C2F100028C
:1042D000410021FA02F1C2F1200200FA02FC5FEA79
:1042E000310040F1000053EA4C0308BF20EADC70C3
:1042F000704792F0000F00F0004C02BF400010F435
:10430000000F013AF9D040EA0C0093F0000F01F0E1
:10431000004C02BF490011F4000F013BF9D041EA03
:104320000C018FE70CEAD15392EA0C0F18BF93EA05
:104330000C0F0AD030F0004C18BF31F0004CD8D12F
:1043400080EA010000F00040704790F0000F17BFB6
:1043500090F0004F084691F0000F91F0004F14D0FC
:1043600092EA0C0F01D142020FD193EA0C0F03D154
:104370004B0218BF084608D180EA010000F0004057
:1043800040F0FE4040F40000704740F0FE4040F432
:10439000400070474FF0FF0C1CEAD0521EBF1CEAD1
:1043A000D15392EA0C0F93EA0C0F69D0A2EB0302EF
:1043B00080EA010C49024FEA402037D04FF0805389
:1043C00043EA111143EA10130CF000408B4238BF4E
:1043D0005B0042F17D024FF4000C8B4224BF5B1A5C
:1043E00040EA0C00B3EB510F24BFA3EB510340EAAA
:1043F0005C00B3EB910F24BFA3EB910340EA9C0058
:10440000B3EBD10F24BFA3EBD10340EADC001B01C7
:1044100018BF5FEA1C1CE0D1FD2A3FF650AF8B426B
:1044200040EBC25008BF20F0010070470CF0004C78
:104430004CEA50207F32C2BFD2F1FF0340EAC250A3
:10444000704740F400004FF00003013A37E792F064
:10445000000F00F0004C02BF400010F4000F013AC2
:10446000F9D040EA0C0093F0000F01F0004C02BFBD
:10447000490011F4000F013BF9D041EA0C0195E726
:104480000CEAD15392EA0C0F08D142027FF47DAFBF
:1044900093EA0C0F7FF470AF084676E793EA0C0FAF
:1044A00004D14B023FF44CAF08466EE730F0004CAD
:1044B00018BF31F0004CCAD130F000427FF45CAF3D
:1044C00031F000437FF43CAF5FE700BF4FF0FF3CAB
:1044D00006E000BF4FF0010C02E000BF4FF0010CFE
:1044E0004DF804CD4FEA40024FEA41037FEA226CC7
:1044F00018BF7FEA236C11D001B052EA530C18BFE9
:1045000090EA010F58BFB2EB030088BFC81738BF4D
:104510006FEAE17018BF40F0010070477FEA226C3B
:1045200002D15FEA402C05D17FEA236CE4D15FEA37
:10453000412CE1D05DF8040B704700BF844608466B
:104540006146FFE70FB5FFF7C9FF002848BF10F12C
:10455000000F0FBD4DF808EDFFF7F4FF0CBF012071
:1045600000205DF808FB00BF4DF808EDFFF7EAFFFB
:1045700034BF012000205DF808FB00BF4DF808EDB6
:10458000FFF7E0FF94BF012000205DF808FB00BFAB
:104590004DF808EDFFF7D2FF94BF012000205DF831
:1045A00008FB00BF4DF808EDFFF7C8FF34BF01203E
:1045B00000205DF808FB00BF42000ED2B2F1FE4FB2
:1045C0000BD34FF09E03B3EB126209D44FEA0023E2
:1045D00043F0004323FA02F070474FF000007047A9
:1045E00012F1610F01D1420202D14FF0FF3070474A
:1045F0004FF00000704700BF014B1868704700BFC4
:10460000080100108A892DE9F041054610070C4683
:104610005AD44B68002B05DC0B6C002B02DC00200D
:10462000BDE8F081E66A002EF9D0002312F4805232
:104630002F682B6033D0606DA3895A0705D5636856
:10464000C01A636B0BB1236CC01A00230246E66AE2
:10465000216A2846B047431CA38906D129681D2931
:104660004BD82B4ACA40D60747D500226260226940
:10467000D904226004D5421C01D12B6803B96065BE
:10468000616B2F600029CAD004F14403994202D023
:104690002846FFF7AFF800206063BDE8F081216A8B
:1046A00001232846B047411CC6D12B68002BC3D03C
:1046B0001D2B01D0162B01D12F60B0E7A38943F049
:1046C0004003A381BDE8F0810F69002FA7D09307B5
:1046D00018BF00230E6808BF4B69A6EB07080F60E0
:1046E0008B60B8F1000F9ADD43463A46216A2846AE
:1046F000A66AB047002807DCA38943F04003A381E2
:104700004FF0FF30BDE8F0810744A8EB0008E8E770
:104710000100402038B50B6905460C46DBB118B1E5
:1047200083690BB900F072F80C4B9C4209D16C689C
:10473000B4F90C307BB121462846BDE83840FFF77C
:1047400061BF074B9C4201D1AC68F1E7054B9C422D
:1047500008BFEC68ECE7002038BD00BF5C590000E2
:104760007C5900003C590000014620B9044B054922
:10477000186800F0B7B8044B1868FFF7CBBF00BF4C
:104780009C5900001547000008010010014900F085
:10479000A9B800BF15470000002310B50446036008
:1047A0004360836081814366C281036143618361A9
:1047B000194608225C3000F01AF9054B2462636246
:1047C000044BA362044BE362044B236310BD00BFA0
:1047D000014F0000234F00005B4F00007F4F00009F
:1047E00070B568254A1E55430E4605F17401FEF763
:1047F000FDFF044640B1002180E842000C30A0607B
:1048000005F1680200F0F3F8204670BD836910B529
:10481000044633BB8364C3640365124B124A1B68AE
:104820008262984204BF0123836100F01FF8606038
:10483000204600F01BF8A060204600F017F8002288
:10484000E06004216068FFF7A7FF01220921A0684A
:10485000FFF7A2FF02221221E068FFF79DFF01236C
:10486000A36110BD9C5900008D470000F8B51C4B9A
:1048700007461E68B36913B93046FFF7C7FF4836CD
:10488000B4687368013B03D5336833B13668F7E722
:10489000B4F90C506DB16834F4E704213846FFF7E1
:1048A0009FFF30600028F1D10C2304463B60204676
:1048B000F8BD4FF6FF73E38101236566A381256090
:1048C000A560656025616561A5610822294604F13E
:1048D0005C0000F08CF86563A563A564E564E6E719
:1048E0009C5900002DE9F84380468946002600F1D6
:1048F000480414B93046BDE8F883A5686768013FED
:1049000001D52468F5E7AB89012B07D9B5F90E303D
:10491000013303D029464046C84706436835EEE7D1
:1049200070B500250C4E0D4CA41BA410A54209D156
:1049300000F0F2FC00250A4E0A4CA41BA410A5426C
:1049400005D170BD56F8253098470135EEE756F889
:10495000253098470135F2E76C0100106C0100101A
:104960006C01001074010010024B01461868FEF73C
:104970003DBF00BF08010010024B01461868FEF75A
:1049800039BF00BF0801001010B5C9B202449042FF
:10499000034601D1002010BD1C7801308C42F6D1B5
:1049A000184610BD10B5431E0A44914200D110BDF7
:1049B00011F8014B03F8014FF7E7884210B501EBFE
:1049C000020303D8421E99420CD110BD9842F9D27D
:1049D0008118D21AD34200D110BD13F8014D01F84D
:1049E000014DF7E711F8014B02F8014FEBE70346E1
:1049F0000244934200D1704703F8011BF9E700001D
:104A000038B50546002943D051F8043C0C1F002B53
:104A1000B8BFE418FFF719F81E4A1368104633B9F7
:104A2000636014602846BDE83840FFF712B8A3421F
:104A30000BD921686218934201BF1A685B6852184B
:104A4000226063600460EDE713465A680AB1A2422F
:104A5000FAD919685818A0420BD120680144581897
:104A600082421960DED110685268014419605A60B0
:104A7000D8E702D90C232B60D4E7206821188A429A
:104A800001BF116852680918216062605C60C9E763
:104A900038BD00BF0C1B001070B5CD1C25F0030500
:104AA00008350C2D38BF0C25002D064601DBA94228
:104AB00003D90C233360002070BDFEF7C6FF234AE4
:104AC0001468214691B9224C23681BB9304600F086
:104AD00007FA20602946304600F002FA431C26D12E
:104AE0000C2330463360FEF7B4FFE4E70B685B1B32
:104AF0001AD40B2B0FD90B60CC18CD503046FEF7D3
:104B0000A8FF04F10B00231D20F00700C31A1BD0DF
:104B10005A42E25070BD8C420BBF63684B68136011
:104B2000636018BF0C46E9E70C464968CAE7C41C35
:104B300024F00304A04205D0211A304600F0D0F939
:104B40000130CDD02560D9E770BD00BF0C1B00102F
:104B5000101B0010F8B5074614460E4621B9114641
:104B6000BDE8F840FEF742BE22B9FEF743FE2546F7
:104B70002846F8BD00F066FA84420FD9214638462F
:104B8000FEF734FE05460028F2D031462246FFF7F4
:104B900009FF31463846FEF72DFEE9E73546E7E7DF
:104BA0002DE9F04791461F468A680B6906469342F5
:104BB000B8BF1346C9F8003091F843200C46DDF821
:104BC000208012B10133C9F800302368990642BF32
:104BD000D9F800300233C9F80030256815F0060511
:104BE00007D104F1190AE368D9F800209B1A9D4205
:104BF0002ADB94F843302268003318BF0123920661
:104C00002FD404F1430239463046C047013022D048
:104C10002368E56803F00603042B18BF0025D9F8C4
:104C200000204FF0000908BFAD1AA368226908BF31
:104C300025EAE5759342C4BF9B1AED181A344D4519
:104C40001BD10020BDE8F08701235246394630468B
:104C5000C047013003D14FF0FF30BDE8F087013588
:104C6000C1E73020E11881F843005A1C94F8451040
:104C70002244023382F84310C3E701232246394617
:104C80003046C0470130E6D009F10109D7E70000FE
:104C90002DE9F04317460A7E85B06E2A98460646EF
:104CA0000C460C9B01F1430E00F0BC801AD8632A1D
:104CB0002ED00AD8002A00F0C880582A00F08A8036
:104CC00004F1420584F842202AE0642A01D0692ACE
:104CD000F6D121681A6811F0800F23D0111D1960D8
:104CE000136827E0732A00F0B48008D86F2A2AD00E
:104CF000702AE5D10A6842F020020A6003E0752AB2
:104D000021D0782ADCD178226F4984F8452064E0EC
:104D10001A6801F14205111D1960136884F84230C8
:104D20000123A3E011F0400F02F104011960D7D074
:104D3000B2F90030002B03DA2D225B4284F84320C5
:104D400062490A2217E02068196810F0800F03D02A
:104D5000081D18600B6806E010F0400F01F1040018
:104D60001860F7D00B886F2A14BF0A22082257490F
:104D7000002084F843006568002DA560C0F29C8087
:104D8000206820F004002060002B3FD1002D40F06F
:104D900095807546082A0BD12368DA0708D5236960
:104DA00062689A42DEBF302305F8013C05F1FF3509
:104DB000AEEB05032361CDF800803B4603AA2146F4
:104DC0003046FFF7EDFE013055D14FF0FF3005B012
:104DD000BDE8F08381F845203C492268186812F04C
:104DE000800F00F104051D6001D0036802E0550644
:104DF000FBD50388D00744BF42F0200222601BB9D4
:104E0000226822F0200222601022B1E77546B3FB2F
:104E1000F2F002FB1033CB5C05F8013D034600289D
:104E2000F5D1B7E708681A6810F0800F496904D017
:104E3000101D18601368196007E010F0400F02F1B0
:104E4000040018601368F6D01980002375462361AA
:104E5000B1E71A68111D19601568002162682846BB
:104E6000FFF792FD08B1401B606063682361002377
:104E700084F843309FE723692A4639463046C047C5
:104E80000130A2D023689B0707D5002504F119093A
:104E9000E368039A9B1A9D4205DBE068039B9842F6
:104EA000B8BF184693E701234A4639463046C04703
:104EB00001308AD00135EBE7002BA7D10B7804F144
:104EC000420584F8423065E7B1590000A05900005E
:104ED000024B0A4601461868FEF78ABC080100101A
:104EE00038B50023054C054608462360FEF770FDE3
:104EF000431C02D1236803B12B6038BD802500100C
:104F000010B50C46B1F90E1000F0F4F90028ABBF53
:104F1000636DA3891B1823F48053ACBF6365A38121
:104F200010BD2DE9F0411F468B890546DB050C4677
:104F3000164605D502230022B1F90E1000F070F8D4
:104F4000A389324623F48053A381B4F90E103B4663
:104F50002846BDE8F04100F041B810B50C46B1F963
:104F60000E1000F05DF8431CA38915BF606523F4A3
:104F7000805343F48053A38118BFA38110BDB1F9BE
:104F80000E1000F03DB8034613F8012B002AFBD1A8
:104F9000181A0138704710B59AB0009104916FF05B
:104FA0000041029105914FF6FF714FF40274ADF884
:104FB0000E106946ADF80C4000F0A8F80022009BE6
:104FC0001A701AB010BD000013460A460146024886
:104FD0000068FFF7E0BF00BF0801001038B50546C4
:104FE000084611460022054C22601A46FEF75EFC78
:104FF000431C02D1236803B12B6038BD802500100B
:1050000038B50023054C054608462360FEF72EFC04
:10501000431C02D1236803B12B6038BD80250010EA
:1050200038B50546084611460022054C22601A464E
:10503000FEF7A2FC431C02D1236803B12B6038BDEC
:105040008025001051F8040C0028A0F10400BCBF1A
:105050000B58C01870472DE9F0478E6882469E4273
:105060000C469146984635D88A8912F4906F31D013
:105070000223256809696F1A656905EB450595FBEB
:10508000F3F508F101033B449D4238BF1D4653052B
:1050900031D52946FEF7AAFB064650B90C23CAF8BB
:1050A0000030A3894FF0FF3043F04003A381BDE8F7
:1050B000F0873A462169FFF775FCA38923F49063D2
:1050C00043F08003A38126613E4426604646656125
:1050D000ED1BA560464528BF464649463246206836
:1050E000FFF76BFCA36800209B1BA36023681E4492
:1050F0002660BDE8F0872A46FEF77AFB06460028C0
:10510000E1D121695046FEF775FBC7E72DE9F04F65
:105110009DB003938B8980461C060D4616460FD51D
:105120000B696BB94021FEF761FB2860286128B943
:105130000C23C8F800304FF0FF30C4E040236B610F
:105140000023099320238DF8293030234FF0010BE1
:105150008DF82A3037463C4614F8013B002B3CD1F1
:10516000B7EB060A0BD05346324629464046FFF7B6
:1051700072FF013000F0A280099B534409933B78F1
:10518000002B00F09B8000234FF0FF320493079325
:10519000059206938DF853301A93052221785048D2
:1051A000FFF7F2FB671C049BD8B9D90644BF202245
:1051B0008DF853201A0744BF2B228DF853202278F4
:1051C0002A2A16D000210A20079A27463B78013464
:1051D000303B092B50D9C9B111E0252BC0D027464F
:1051E000B9E73F4A3C46801A0BFA00F01843049096
:1051F000D3E7039A111D12680391002A01DB07927D
:1052000004E0524243F00203079204933B782E2BB2
:105210000DD17B78791C2A2B32D1039B02371A1DC2
:105220001B680392002BB8BF4FF0FF3305932D4C42
:10523000032239782046FFF7A7FB38B14023001B33
:1052400003FA00F0049B01370343049339780622E4
:1052500025487E1C8DF82810FFF796FB002835D0D6
:10526000224BFBB9039B073323F007030833039357
:10527000099B4B4409936DE700FB02320121A4E72F
:1052800000230A24184605930F463A780131303A34
:10529000092A03D9002BCAD00590C8E704FB0020D7
:1052A0000123F1E703AB00932A46114B04A94046C2
:1052B000AFF30080B0F1FF3F8146D9D1AB895B06E7
:1052C0003FF539AF09981DB0BDE8F08F03AB0093EF
:1052D0002A46074B04A94046FFF7DAFCEAE700BF7D
:1052E000C2590000C8590000CC590000000000005D
:1052F0005750000038B50546084611460022054CB7
:1053000022601A46FEF708FB431C02D1236803B152
:105310002B6038BD80250010F8B500BFF8BC08BC74
:105320009E467047F8B500BFF8BC08BC9E46704763
:1053300000000000000000003901000061010000D1
:105340009D010000A5010000000000000000000019
:105350006B05000045060000AD010000B50100002E
:1053600000000000000000003F0500000F060000E4
:10537000BD010000C50100000000000000000000A9
:1053800061040000FB060000CD010000D501000013
:105390000000000000000000DD010000210200000C
:1053A000350200003D020000000000000000000087
:1053B00045020000B9020000D9020000E10200002D
:1053C00000000000000000007D0B00003D0C00000C
:1053D000150300000000000000000000E9020000CA
:1053E00001030000050300000D030000636F6E74ED
:1053F000726F6C2F636F6D6D616E642F6861726484
:105400007761726500656E635F636861747465726D
:10541000003966306539386264613635393831397A
:1054200038366464663533616661376134306534BB
:1054300039003131616264373331633235393333A6
:105440003236316364363138336264313264363235
:10545000393500726F7373657269616C5F6D736764
:10546000732F4C6F6700306164353166383866637E
:10547000343438393266386331303638343037377F
:1054800036343630303500726F7373657269616C13
:105490005F6D7367732F546F706963496E666F0039
:1054A000726F7373657269616C5F6D7367732F528E
:1054B000657175657374506172616D004D657373CC
:1054C0006167652066726F6D20646576696365202B
:1054D00064726F707065643A206D6573736167659F
:1054E000206C6172676572207468616E20627566F7
:1054F0006665722E003233656131616563336233F4
:1055000061656435646139343833356238626465A5
:10551000313436386300636F6E74726F6C2F456E72
:10552000636F646572446174610037383730623983
:1055300035396233336435386664663732616139D0
:105540003261636134633835323000636F6E747278
:105550006F6C2F4861726477617265436F6D6D6126
:105560006E64006364373136366337346335353201
:105570006333313166626363326665356137626316
:10558000323839007374645F6D7367732F54696DBB
:1055900065000000831000007510000081100000FD
:1055A000726F735F6C69622F4275666665726564BF
:1055B00053657269616C2F427566666572656453E6
:1055C000657269616C2E63707000257320256420FC
:1055D000627566666572206F76657277726974654A
:1055E00020286D61785F6275665F73697A653A201D
:1055F00025642065786365656465643A20256429BF
:10560000210D0A0000000000000000008B360000A1
:105610008B360000E9100000411100004510000029
:105620005110000055100000AB120000C312000022
:105630003D130000011300004056000088080010D0
:10564000192C0000752C0000A52C0000B52C0000C2
:10565000912C000070696E6D6170206D69732D6D05
:10566000617463680070696E6D6170206E6F742084
:10567000666F756E6420666F7220706572697068FF
:105680006572616C00636F756C64206E6F7420705E
:10569000696E6F757400000010020000CC030000FA
:1056A000E8030000525458206572726F7220636FD5
:1056B00064653A203078253038582C207461736B3B
:1056C0002049443A203078253038580A001001002B
:1056D0000F00000004000000AC080010CC0800100F
:1056E000DC080010EC0800100500010000020001B9
:1056F00069260000020000000100000020030000F5
:10570000F01D0010FF7601000019001032C00920C2
:10571000010000000200000034C009200200000067
:105720000200000035C00920030000000200000054
:1057300037C00920040000000200000038C0092022
:1057400005000000020000003AC009200600000029
:105750000200000040C0092001000000010000001C
:1057600041C00920020000000100000042C00920E1
:10577000030000000100000043C0092004000000F5
:105780000100000044C009200500000001000000E5
:1057900045C00920060000000100000079C0092072
:1057A00002000000030000007AC00920030000008E
:1057B00003000000FFFFFFFFFFFFFFFF00000000EE
:1057C00011C00920000001400100000042C0092072
:1057D0000000014002000000FFFFFFFFFFFFFFFF8E
:1057E0000000000016C00920000001400100000078
:1057F00047C009200000014002000000FFFFFFFF3A
:10580000FFFFFFFF0000000001C0092000C00940A9
:105810000200000003C0092000C000400100000099
:105820000BC00920008009400100000010C00920C1
:1058300000000140010000001AC0092000C009401A
:105840000300000041C009200000014002000000E8
:1058500049C0092000800940020000009DC00920C5
:1058600000C0094003000000FFFFFFFFFFFFFFFF34
:105870000000000000C0092000C009400200000034
:1058800002C0092000C00040010000000AC0092039
:1058900000800940010000000FC009200000014005
:1058A0000100000019C0092000C0094003000000E9
:1058B00040C00920000001400200000048C009204B
:1058C00000800940020000009CC0092000C009407F
:1058D00003000000FFFFFFFFFFFFFFFF00000000CD
:1058E000593600005D3600006536000000000000FB
:1058F000000000008B3600008B3600008D36000063
:10590000A13600000000000000000000CB360000BF
:10591000CD360000AD100000D51000004F7065724C
:1059200061746F72206E65775B5D206F7574206F98
:1059300066206D656D6F72790D0A00000000000031
:105940000000000000000000000000000000000057
:105950000000000000000000000000000000000047
:105960000000000000000000000000000000000037
:105970000000000000000000000000000000000027
:105980000000000000000000000000000000000017
:105990000000000000000000000000000C010010EA
:1059A0003031323334353637383941424344454655
:1059B00000303132333435363738396162636465EB
:1059C0006600232D302B2000686C4C00656667450F
:0859D000464700000000000042
:0859D800BCE0FF7F01000000AC
:1059E00000000000B9160000CD1600000000000005
:1059F0000100000000100000FC08001018800140A9
:105A00001C800140208001402480014040800140F2
:105A1000448001404880014000D8B8058825001026
:105A20000C010010000000005C5900007C590000CF
:105A30003C590000000000000000000000000000D1
:105A40000000000000000000000000000000000056
:105A50000000000000000000000000000000000046
:105A60000000000000000000000000000000000036
:105A70000000000000000000000000000000000026
:105A800000000000F10000009D090000CD000000B2
:0400000300003BBD01
:00000001FF
